{
	"contracts/test.sol": {
		"Test": {
			"abi": [
				{
					"inputs": [],
					"name": "LlmInferenceError",
					"type": "error"
				},
				{
					"inputs": [],
					"name": "ModelInferenceError",
					"type": "error"
				},
				{
					"anonymous": false,
					"inputs": [
						{
							"indexed": false,
							"internalType": "string",
							"name": "result",
							"type": "string"
						}
					],
					"name": "LlmInferenceCompleted",
					"type": "event"
				},
				{
					"anonymous": false,
					"inputs": [
						{
							"indexed": false,
							"internalType": "bool",
							"name": "isSimulation",
							"type": "bool"
						},
						{
							"indexed": false,
							"internalType": "int128",
							"name": "value",
							"type": "int128"
						},
						{
							"indexed": false,
							"internalType": "int128",
							"name": "decimals",
							"type": "int128"
						}
					],
					"name": "ModelInferenceCompleted",
					"type": "event"
				},
				{
					"inputs": [],
					"name": "result",
					"outputs": [
						{
							"internalType": "int128",
							"name": "",
							"type": "int128"
						},
						{
							"internalType": "int128",
							"name": "",
							"type": "int128"
						}
					],
					"stateMutability": "view",
					"type": "function"
				},
				{
					"inputs": [],
					"name": "resultNumber",
					"outputs": [
						{
							"internalType": "int128",
							"name": "value",
							"type": "int128"
						},
						{
							"internalType": "int128",
							"name": "decimals",
							"type": "int128"
						}
					],
					"stateMutability": "view",
					"type": "function"
				},
				{
					"inputs": [],
					"name": "resultString",
					"outputs": [
						{
							"internalType": "string",
							"name": "",
							"type": "string"
						}
					],
					"stateMutability": "view",
					"type": "function"
				},
				{
					"inputs": [],
					"name": "run",
					"outputs": [],
					"stateMutability": "nonpayable",
					"type": "function"
				},
				{
					"inputs": [],
					"name": "runLlm",
					"outputs": [],
					"stateMutability": "nonpayable",
					"type": "function"
				},
				{
					"inputs": [],
					"name": "runTee",
					"outputs": [],
					"stateMutability": "nonpayable",
					"type": "function"
				},
				{
					"inputs": [],
					"name": "runVanilla",
					"outputs": [],
					"stateMutability": "nonpayable",
					"type": "function"
				}
			],
			"devdoc": {
				"kind": "dev",
				"methods": {},
				"version": 1
			},
			"evm": {
				"assembly": "    /* \"contracts/test.sol\":114:3739  contract Test {... */\n  mstore(0x40, 0x80)\n  callvalue\n  dup1\n  iszero\n  tag_1\n  jumpi\n  0x00\n  dup1\n  revert\ntag_1:\n  pop\n  dataSize(sub_0)\n  dup1\n  dataOffset(sub_0)\n  0x00\n  codecopy\n  0x00\n  return\nstop\n\nsub_0: assembly {\n        /* \"contracts/test.sol\":114:3739  contract Test {... */\n      mstore(0x40, 0x80)\n      callvalue\n      dup1\n      iszero\n      tag_1\n      jumpi\n      0x00\n      dup1\n      revert\n    tag_1:\n      pop\n      jumpi(tag_2, lt(calldatasize, 0x04))\n      shr(0xe0, calldataload(0x00))\n      dup1\n      0x7a998900\n      gt\n      tag_10\n      jumpi\n      dup1\n      0x7a998900\n      eq\n      tag_6\n      jumpi\n      dup1\n      0x7b89dc9f\n      eq\n      tag_7\n      jumpi\n      dup1\n      0xa7d97dc2\n      eq\n      tag_8\n      jumpi\n      dup1\n      0xc0406226\n      eq\n      tag_9\n      jumpi\n      jump(tag_2)\n    tag_10:\n      dup1\n      0x454e33e3\n      eq\n      tag_3\n      jumpi\n      dup1\n      0x5a61dd9e\n      eq\n      tag_4\n      jumpi\n      dup1\n      0x65372147\n      eq\n      tag_5\n      jumpi\n    tag_2:\n      0x00\n      dup1\n      revert\n        /* \"contracts/test.sol\":137:163  string public resultString */\n    tag_3:\n      tag_11\n      tag_12\n      jump\t// in\n    tag_11:\n      mload(0x40)\n      tag_13\n      swap2\n      swap1\n      tag_14\n      jump\t// in\n    tag_13:\n      mload(0x40)\n      dup1\n      swap2\n      sub\n      swap1\n      return\n        /* \"contracts/test.sol\":1772:2095  function runVanilla() public {... */\n    tag_4:\n      tag_15\n      tag_16\n      jump\t// in\n    tag_15:\n      stop\n        /* \"contracts/test.sol\":3338:3462  function result() public view returns (int128, int128) {... */\n    tag_5:\n      tag_17\n      tag_18\n      jump\t// in\n    tag_17:\n      mload(0x40)\n      tag_19\n      swap3\n      swap2\n      swap1\n      tag_20\n      jump\t// in\n    tag_19:\n      mload(0x40)\n      dup1\n      swap2\n      sub\n      swap1\n      return\n        /* \"contracts/test.sol\":170:206  TensorLib.Number public resultNumber */\n    tag_6:\n      tag_21\n      tag_22\n      jump\t// in\n    tag_21:\n      mload(0x40)\n      tag_23\n      swap3\n      swap2\n      swap1\n      tag_20\n      jump\t// in\n    tag_23:\n      mload(0x40)\n      dup1\n      swap2\n      sub\n      swap1\n      return\n        /* \"contracts/test.sol\":2383:2862  function runLlm() public {... */\n    tag_7:\n      tag_24\n      tag_25\n      jump\t// in\n    tag_24:\n      stop\n        /* \"contracts/test.sol\":2874:3326  function runTee() public {... */\n    tag_8:\n      tag_26\n      tag_27\n      jump\t// in\n    tag_26:\n      stop\n        /* \"contracts/test.sol\":1515:1760  function run() public {... */\n    tag_9:\n      tag_28\n      tag_29\n      jump\t// in\n    tag_28:\n      stop\n        /* \"contracts/test.sol\":137:163  string public resultString */\n    tag_12:\n      0x00\n      dup1\n      sload\n      tag_30\n      swap1\n      tag_31\n      jump\t// in\n    tag_30:\n      dup1\n      0x1f\n      add\n      0x20\n      dup1\n      swap2\n      div\n      mul\n      0x20\n      add\n      mload(0x40)\n      swap1\n      dup2\n      add\n      0x40\n      mstore\n      dup1\n      swap3\n      swap2\n      swap1\n      dup2\n      dup2\n      mstore\n      0x20\n      add\n      dup3\n      dup1\n      sload\n      tag_32\n      swap1\n      tag_31\n      jump\t// in\n    tag_32:\n      dup1\n      iszero\n      tag_33\n      jumpi\n      dup1\n      0x1f\n      lt\n      tag_34\n      jumpi\n      0x0100\n      dup1\n      dup4\n      sload\n      div\n      mul\n      dup4\n      mstore\n      swap2\n      0x20\n      add\n      swap2\n      jump(tag_33)\n    tag_34:\n      dup3\n      add\n      swap2\n      swap1\n      0x00\n      mstore\n      keccak256(0x00, 0x20)\n      swap1\n    tag_35:\n      dup2\n      sload\n      dup2\n      mstore\n      swap1\n      0x01\n      add\n      swap1\n      0x20\n      add\n      dup1\n      dup4\n      gt\n      tag_35\n      jumpi\n      dup3\n      swap1\n      sub\n      0x1f\n      and\n      dup3\n      add\n      swap2\n    tag_33:\n      pop\n      pop\n      pop\n      pop\n      pop\n      dup2\n      jump\t// out\n        /* \"contracts/test.sol\":1772:2095  function runVanilla() public {... */\n    tag_16:\n        /* \"contracts/test.sol\":1812:1837  ModelOutput memory output */\n      0x00\n        /* \"opengradient-neuroml/src/OGInference.sol\":143:185  0x00000000000000000000000000000000000000F4 */\n      0xf4\n        /* \"contracts/test.sol\":1840:1879  OG_INFERENCE_CONTRACT.runModelInference */\n      0xffffffffffffffffffffffffffffffffffffffff\n      and\n      0x7289e9c2\n        /* \"contracts/test.sol\":1894:2039  ModelInferenceRequest(... */\n      mload(0x40)\n      dup1\n      0x60\n      add\n      0x40\n      mstore\n      dup1\n        /* \"contracts/test.sol\":1934:1960  ModelInferenceMode.VANILLA */\n      0x00\n        /* \"contracts/test.sol\":1894:2039  ModelInferenceRequest(... */\n      0x02\n      dup2\n      gt\n      iszero\n      tag_37\n      jumpi\n      tag_38\n      tag_39\n      jump\t// in\n    tag_38:\n    tag_37:\n      dup2\n      mstore\n      0x20\n      add\n        /* \"contracts/test.sol\":1979:1987  MODEL_ID */\n      mload(0x40)\n      dup1\n      0x60\n      add\n      0x40\n      mstore\n      dup1\n      0x23\n      dup2\n      mstore\n      0x20\n      add\n      data_3f2f14e363c0fee08dc4f1fa6f0a9661e53cd7b46ec08752c03200dc71e09685\n      0x23\n      swap2\n      codecopy\n        /* \"contracts/test.sol\":1894:2039  ModelInferenceRequest(... */\n      dup2\n      mstore\n      0x20\n      add\n        /* \"contracts/test.sol\":2006:2024  createModelInput() */\n      tag_40\n        /* \"contracts/test.sol\":2006:2022  createModelInput */\n      tag_41\n        /* \"contracts/test.sol\":2006:2024  createModelInput() */\n      jump\t// in\n    tag_40:\n        /* \"contracts/test.sol\":1894:2039  ModelInferenceRequest(... */\n      dup2\n      mstore\n      pop\n        /* \"contracts/test.sol\":1840:2050  OG_INFERENCE_CONTRACT.runModelInference(... */\n      mload(0x40)\n      dup3\n      0xffffffff\n      and\n      0xe0\n      shl\n      dup2\n      mstore\n      0x04\n      add\n      tag_42\n      swap2\n      swap1\n      tag_43\n      jump\t// in\n    tag_42:\n      0x00\n      mload(0x40)\n      dup1\n      dup4\n      sub\n      dup2\n      0x00\n      dup8\n      gas\n      call\n      iszero\n      dup1\n      iszero\n      tag_45\n      jumpi\n      returndatasize\n      0x00\n      dup1\n      returndatacopy\n      revert(0x00, returndatasize)\n    tag_45:\n      pop\n      pop\n      pop\n      pop\n      mload(0x40)\n      returndatasize\n      0x00\n      dup3\n      returndatacopy\n      returndatasize\n      not(0x1f)\n      0x1f\n      dup3\n      add\n      and\n      dup3\n      add\n      dup1\n      0x40\n      mstore\n      pop\n      dup2\n      add\n      swap1\n      tag_46\n      swap2\n      swap1\n      tag_47\n      jump\t// in\n    tag_46:\n        /* \"contracts/test.sol\":1812:2050  ModelOutput memory output = OG_INFERENCE_CONTRACT.runModelInference(... */\n      swap1\n      pop\n        /* \"contracts/test.sol\":2061:2087  processModelOutput(output) */\n      tag_48\n        /* \"contracts/test.sol\":2080:2086  output */\n      dup2\n        /* \"contracts/test.sol\":2061:2079  processModelOutput */\n      tag_49\n        /* \"contracts/test.sol\":2061:2087  processModelOutput(output) */\n      jump\t// in\n    tag_48:\n        /* \"contracts/test.sol\":1801:2095  {... */\n      pop\n        /* \"contracts/test.sol\":1772:2095  function runVanilla() public {... */\n      jump\t// out\n        /* \"contracts/test.sol\":3338:3462  function result() public view returns (int128, int128) {... */\n    tag_18:\n        /* \"contracts/test.sol\":3377:3383  int128 */\n      0x00\n        /* \"contracts/test.sol\":3385:3391  int128 */\n      dup1\n        /* \"contracts/test.sol\":3412:3424  resultNumber */\n      0x01\n        /* \"contracts/test.sol\":3412:3430  resultNumber.value */\n      0x00\n      add\n      0x00\n      swap1\n      sload\n      swap1\n      0x0100\n      exp\n      swap1\n      div\n      0x0f\n      signextend\n        /* \"contracts/test.sol\":3432:3444  resultNumber */\n      0x01\n        /* \"contracts/test.sol\":3432:3453  resultNumber.decimals */\n      0x00\n      add\n      0x10\n      swap1\n      sload\n      swap1\n      0x0100\n      exp\n      swap1\n      div\n      0x0f\n      signextend\n        /* \"contracts/test.sol\":3404:3454  return (resultNumber.value, resultNumber.decimals) */\n      swap2\n      pop\n      swap2\n      pop\n        /* \"contracts/test.sol\":3338:3462  function result() public view returns (int128, int128) {... */\n      swap1\n      swap2\n      jump\t// out\n        /* \"contracts/test.sol\":170:206  TensorLib.Number public resultNumber */\n    tag_22:\n      0x01\n      dup1\n      0x00\n      add\n      0x00\n      swap1\n      sload\n      swap1\n      0x0100\n      exp\n      swap1\n      div\n      0x0f\n      signextend\n      swap1\n      dup1\n      0x00\n      add\n      0x10\n      swap1\n      sload\n      swap1\n      0x0100\n      exp\n      swap1\n      div\n      0x0f\n      signextend\n      swap1\n      pop\n      dup3\n      jump\t// out\n        /* \"contracts/test.sol\":2383:2862  function runLlm() public {... */\n    tag_25:\n        /* \"contracts/test.sol\":2419:2447  LlmResponse memory llmResult */\n      0x00\n        /* \"opengradient-neuroml/src/OGInference.sol\":143:185  0x00000000000000000000000000000000000000F4 */\n      0xf4\n        /* \"contracts/test.sol\":2450:2487  OG_INFERENCE_CONTRACT.runLLMInference */\n      0xffffffffffffffffffffffffffffffffffffffff\n      and\n      0xea3dd516\n        /* \"contracts/test.sol\":2502:2801  LlmInferenceRequest(... */\n      mload(0x40)\n      dup1\n      0xc0\n      add\n      0x40\n      mstore\n      dup1\n        /* \"contracts/test.sol\":2540:2564  LlmInferenceMode.VANILLA */\n      0x00\n        /* \"contracts/test.sol\":2502:2801  LlmInferenceRequest(... */\n      0x01\n      dup2\n      gt\n      iszero\n      tag_52\n      jumpi\n      tag_53\n      tag_39\n      jump\t// in\n    tag_53:\n    tag_52:\n      dup2\n      mstore\n      0x20\n      add\n        /* \"contracts/test.sol\":2583:2592  LLM_MODEL */\n      mload(0x40)\n      dup1\n      0x60\n      add\n      0x40\n      mstore\n      dup1\n      0x23\n      dup2\n      mstore\n      0x20\n      add\n      data_3f2f14e363c0fee08dc4f1fa6f0a9661e53cd7b46ec08752c03200dc71e09685\n      0x23\n      swap2\n      codecopy\n        /* \"contracts/test.sol\":2502:2801  LlmInferenceRequest(... */\n      dup2\n      mstore\n      0x20\n      add\n      mload(0x40)\n      dup1\n      0x80\n      add\n      0x40\n      mstore\n      dup1\n      0x4c\n      dup2\n      mstore\n      0x20\n      add\n      data_f4da665ee6fc96cf56122fca1859b5d7132aa9b5fc976350c10115db56bc12ff\n      0x4c\n      swap2\n      codecopy\n      dup2\n      mstore\n      0x20\n      add\n        /* \"contracts/test.sol\":577:581  1000 */\n      0x03e8\n        /* \"contracts/test.sol\":2502:2801  LlmInferenceRequest(... */\n      0xffffffff\n      and\n      dup2\n      mstore\n      0x20\n      add\n        /* \"contracts/test.sol\":2746:2766  createStopSequence() */\n      tag_54\n        /* \"contracts/test.sol\":2746:2764  createStopSequence */\n      tag_55\n        /* \"contracts/test.sol\":2746:2766  createStopSequence() */\n      jump\t// in\n    tag_54:\n        /* \"contracts/test.sol\":2502:2801  LlmInferenceRequest(... */\n      dup2\n      mstore\n      0x20\n      add\n        /* \"contracts/test.sol\":2785:2786  0 */\n      0x00\n        /* \"contracts/test.sol\":2502:2801  LlmInferenceRequest(... */\n      0xffffffff\n      and\n      dup2\n      mstore\n      pop\n        /* \"contracts/test.sol\":2450:2812  OG_INFERENCE_CONTRACT.runLLMInference(... */\n      mload(0x40)\n      dup3\n      0xffffffff\n      and\n      0xe0\n      shl\n      dup2\n      mstore\n      0x04\n      add\n      tag_56\n      swap2\n      swap1\n      tag_57\n      jump\t// in\n    tag_56:\n      0x00\n      mload(0x40)\n      dup1\n      dup4\n      sub\n      dup2\n      0x00\n      dup8\n      gas\n      call\n      iszero\n      dup1\n      iszero\n      tag_59\n      jumpi\n      returndatasize\n      0x00\n      dup1\n      returndatacopy\n      revert(0x00, returndatasize)\n    tag_59:\n      pop\n      pop\n      pop\n      pop\n      mload(0x40)\n      returndatasize\n      0x00\n      dup3\n      returndatacopy\n      returndatasize\n      not(0x1f)\n      0x1f\n      dup3\n      add\n      and\n      dup3\n      add\n      dup1\n      0x40\n      mstore\n      pop\n      dup2\n      add\n      swap1\n      tag_60\n      swap2\n      swap1\n      tag_61\n      jump\t// in\n    tag_60:\n        /* \"contracts/test.sol\":2419:2812  LlmResponse memory llmResult = OG_INFERENCE_CONTRACT.runLLMInference(... */\n      swap1\n      pop\n        /* \"contracts/test.sol\":2838:2847  llmResult */\n      dup1\n        /* \"contracts/test.sol\":2838:2854  llmResult.answer */\n      0x00\n      add\n      mload\n        /* \"contracts/test.sol\":2823:2835  resultString */\n      0x00\n        /* \"contracts/test.sol\":2823:2854  resultString = llmResult.answer */\n      swap1\n      dup2\n      tag_62\n      swap2\n      swap1\n      tag_63\n      jump\t// in\n    tag_62:\n      pop\n        /* \"contracts/test.sol\":2408:2862  {... */\n      pop\n        /* \"contracts/test.sol\":2383:2862  function runLlm() public {... */\n      jump\t// out\n        /* \"contracts/test.sol\":2874:3326  function runTee() public {... */\n    tag_27:\n        /* \"contracts/test.sol\":2910:2938  LlmResponse memory llmResult */\n      0x00\n        /* \"opengradient-neuroml/src/OGInference.sol\":143:185  0x00000000000000000000000000000000000000F4 */\n      0xf4\n        /* \"contracts/test.sol\":2941:2978  OG_INFERENCE_CONTRACT.runLLMInference */\n      0xffffffffffffffffffffffffffffffffffffffff\n      and\n      0xea3dd516\n        /* \"contracts/test.sol\":2993:3265  LlmInferenceRequest(... */\n      mload(0x40)\n      dup1\n      0xc0\n      add\n      0x40\n      mstore\n      dup1\n        /* \"contracts/test.sol\":3031:3051  LlmInferenceMode.TEE */\n      0x01\n        /* \"contracts/test.sol\":2993:3265  LlmInferenceRequest(... */\n      dup1\n      dup2\n      gt\n      iszero\n      tag_65\n      jumpi\n      tag_66\n      tag_39\n      jump\t// in\n    tag_66:\n    tag_65:\n      dup2\n      mstore\n      0x20\n      add\n        /* \"contracts/test.sol\":3070:3079  LLM_MODEL */\n      mload(0x40)\n      dup1\n      0x60\n      add\n      0x40\n      mstore\n      dup1\n      0x23\n      dup2\n      mstore\n      0x20\n      add\n      data_3f2f14e363c0fee08dc4f1fa6f0a9661e53cd7b46ec08752c03200dc71e09685\n      0x23\n      swap2\n      codecopy\n        /* \"contracts/test.sol\":2993:3265  LlmInferenceRequest(... */\n      dup2\n      mstore\n      0x20\n      add\n      mload(0x40)\n      dup1\n      0x60\n      add\n      0x40\n      mstore\n      dup1\n      0x35\n      dup2\n      mstore\n      0x20\n      add\n      data_8f23d9e0330573bf46adfac85abd5be0e856a65ec30b3850de968b37c8398ca5\n      0x35\n      swap2\n      codecopy\n      dup2\n      mstore\n      0x20\n      add\n        /* \"contracts/test.sol\":577:581  1000 */\n      0x03e8\n        /* \"contracts/test.sol\":2993:3265  LlmInferenceRequest(... */\n      0xffffffff\n      and\n      dup2\n      mstore\n      0x20\n      add\n        /* \"contracts/test.sol\":3210:3230  createStopSequence() */\n      tag_67\n        /* \"contracts/test.sol\":3210:3228  createStopSequence */\n      tag_55\n        /* \"contracts/test.sol\":3210:3230  createStopSequence() */\n      jump\t// in\n    tag_67:\n        /* \"contracts/test.sol\":2993:3265  LlmInferenceRequest(... */\n      dup2\n      mstore\n      0x20\n      add\n        /* \"contracts/test.sol\":3249:3250  0 */\n      0x00\n        /* \"contracts/test.sol\":2993:3265  LlmInferenceRequest(... */\n      0xffffffff\n      and\n      dup2\n      mstore\n      pop\n        /* \"contracts/test.sol\":2941:3276  OG_INFERENCE_CONTRACT.runLLMInference(... */\n      mload(0x40)\n      dup3\n      0xffffffff\n      and\n      0xe0\n      shl\n      dup2\n      mstore\n      0x04\n      add\n      tag_68\n      swap2\n      swap1\n      tag_57\n      jump\t// in\n    tag_68:\n      0x00\n      mload(0x40)\n      dup1\n      dup4\n      sub\n      dup2\n      0x00\n      dup8\n      gas\n      call\n      iszero\n      dup1\n      iszero\n      tag_70\n      jumpi\n      returndatasize\n      0x00\n      dup1\n      returndatacopy\n      revert(0x00, returndatasize)\n    tag_70:\n      pop\n      pop\n      pop\n      pop\n      mload(0x40)\n      returndatasize\n      0x00\n      dup3\n      returndatacopy\n      returndatasize\n      not(0x1f)\n      0x1f\n      dup3\n      add\n      and\n      dup3\n      add\n      dup1\n      0x40\n      mstore\n      pop\n      dup2\n      add\n      swap1\n      tag_71\n      swap2\n      swap1\n      tag_61\n      jump\t// in\n    tag_71:\n        /* \"contracts/test.sol\":2910:3276  LlmResponse memory llmResult = OG_INFERENCE_CONTRACT.runLLMInference(... */\n      swap1\n      pop\n        /* \"contracts/test.sol\":3302:3311  llmResult */\n      dup1\n        /* \"contracts/test.sol\":3302:3318  llmResult.answer */\n      0x00\n      add\n      mload\n        /* \"contracts/test.sol\":3287:3299  resultString */\n      0x00\n        /* \"contracts/test.sol\":3287:3318  resultString = llmResult.answer */\n      swap1\n      dup2\n      tag_72\n      swap2\n      swap1\n      tag_63\n      jump\t// in\n    tag_72:\n      pop\n        /* \"contracts/test.sol\":2899:3326  {... */\n      pop\n        /* \"contracts/test.sol\":2874:3326  function runTee() public {... */\n      jump\t// out\n        /* \"contracts/test.sol\":1515:1760  function run() public {... */\n    tag_29:\n        /* \"contracts/test.sol\":1548:1573  ModelOutput memory output */\n      0x00\n        /* \"opengradient-neuroml/src/OGInference.sol\":143:185  0x00000000000000000000000000000000000000F4 */\n      0xf4\n        /* \"contracts/test.sol\":1576:1615  OG_INFERENCE_CONTRACT.runModelInference */\n      0xffffffffffffffffffffffffffffffffffffffff\n      and\n      0x7289e9c2\n        /* \"contracts/test.sol\":1630:1704  ModelInferenceRequest(ModelInferenceMode.ZK, MODEL_ID, createModelInput()) */\n      mload(0x40)\n      dup1\n      0x60\n      add\n      0x40\n      mstore\n      dup1\n        /* \"contracts/test.sol\":1652:1673  ModelInferenceMode.ZK */\n      0x01\n        /* \"contracts/test.sol\":1630:1704  ModelInferenceRequest(ModelInferenceMode.ZK, MODEL_ID, createModelInput()) */\n      0x02\n      dup2\n      gt\n      iszero\n      tag_74\n      jumpi\n      tag_75\n      tag_39\n      jump\t// in\n    tag_75:\n    tag_74:\n      dup2\n      mstore\n      0x20\n      add\n        /* \"contracts/test.sol\":1675:1683  MODEL_ID */\n      mload(0x40)\n      dup1\n      0x60\n      add\n      0x40\n      mstore\n      dup1\n      0x23\n      dup2\n      mstore\n      0x20\n      add\n      data_3f2f14e363c0fee08dc4f1fa6f0a9661e53cd7b46ec08752c03200dc71e09685\n      0x23\n      swap2\n      codecopy\n        /* \"contracts/test.sol\":1630:1704  ModelInferenceRequest(ModelInferenceMode.ZK, MODEL_ID, createModelInput()) */\n      dup2\n      mstore\n      0x20\n      add\n        /* \"contracts/test.sol\":1685:1703  createModelInput() */\n      tag_76\n        /* \"contracts/test.sol\":1685:1701  createModelInput */\n      tag_41\n        /* \"contracts/test.sol\":1685:1703  createModelInput() */\n      jump\t// in\n    tag_76:\n        /* \"contracts/test.sol\":1630:1704  ModelInferenceRequest(ModelInferenceMode.ZK, MODEL_ID, createModelInput()) */\n      dup2\n      mstore\n      pop\n        /* \"contracts/test.sol\":1576:1715  OG_INFERENCE_CONTRACT.runModelInference(... */\n      mload(0x40)\n      dup3\n      0xffffffff\n      and\n      0xe0\n      shl\n      dup2\n      mstore\n      0x04\n      add\n      tag_77\n      swap2\n      swap1\n      tag_43\n      jump\t// in\n    tag_77:\n      0x00\n      mload(0x40)\n      dup1\n      dup4\n      sub\n      dup2\n      0x00\n      dup8\n      gas\n      call\n      iszero\n      dup1\n      iszero\n      tag_79\n      jumpi\n      returndatasize\n      0x00\n      dup1\n      returndatacopy\n      revert(0x00, returndatasize)\n    tag_79:\n      pop\n      pop\n      pop\n      pop\n      mload(0x40)\n      returndatasize\n      0x00\n      dup3\n      returndatacopy\n      returndatasize\n      not(0x1f)\n      0x1f\n      dup3\n      add\n      and\n      dup3\n      add\n      dup1\n      0x40\n      mstore\n      pop\n      dup2\n      add\n      swap1\n      tag_80\n      swap2\n      swap1\n      tag_47\n      jump\t// in\n    tag_80:\n        /* \"contracts/test.sol\":1548:1715  ModelOutput memory output = OG_INFERENCE_CONTRACT.runModelInference(... */\n      swap1\n      pop\n        /* \"contracts/test.sol\":1726:1752  processModelOutput(output) */\n      tag_81\n        /* \"contracts/test.sol\":1745:1751  output */\n      dup2\n        /* \"contracts/test.sol\":1726:1744  processModelOutput */\n      tag_49\n        /* \"contracts/test.sol\":1726:1752  processModelOutput(output) */\n      jump\t// in\n    tag_81:\n        /* \"contracts/test.sol\":1537:1760  {... */\n      pop\n        /* \"contracts/test.sol\":1515:1760  function run() public {... */\n      jump\t// out\n        /* \"contracts/test.sol\":640:1264  function createModelInput() private pure returns (ModelInput memory) {... */\n    tag_41:\n        /* \"contracts/test.sol\":690:707  ModelInput memory */\n      tag_82\n      tag_83\n      jump\t// in\n    tag_82:\n        /* \"contracts/test.sol\":720:748  ModelInput memory modelInput */\n      0x00\n        /* \"contracts/test.sol\":751:880  ModelInput(... */\n      mload(0x40)\n      dup1\n      0x40\n      add\n      0x40\n      mstore\n      dup1\n        /* \"contracts/test.sol\":821:822  1 */\n      0x01\n        /* \"contracts/test.sol\":776:823  new TensorLib.MultiDimensionalNumberTensor[](1) */\n      0xffffffffffffffff\n      dup2\n      gt\n      iszero\n      tag_85\n      jumpi\n      tag_86\n      tag_87\n      jump\t// in\n    tag_86:\n    tag_85:\n      mload(0x40)\n      swap1\n      dup1\n      dup3\n      mstore\n      dup1\n      0x20\n      mul\n      0x20\n      add\n      dup3\n      add\n      0x40\n      mstore\n      dup1\n      iszero\n      tag_88\n      jumpi\n      dup2\n      0x20\n      add\n    tag_89:\n      tag_90\n      tag_91\n      jump\t// in\n    tag_90:\n      dup2\n      mstore\n      0x20\n      add\n      swap1\n      0x01\n      swap1\n      sub\n      swap1\n      dup2\n      tag_89\n      jumpi\n      swap1\n      pop\n    tag_88:\n      pop\n        /* \"contracts/test.sol\":751:880  ModelInput(... */\n      dup2\n      mstore\n      0x20\n      add\n        /* \"contracts/test.sol\":867:868  0 */\n      0x00\n        /* \"contracts/test.sol\":838:869  new TensorLib.StringTensor[](0) */\n      0xffffffffffffffff\n      dup2\n      gt\n      iszero\n      tag_92\n      jumpi\n      tag_93\n      tag_87\n      jump\t// in\n    tag_93:\n    tag_92:\n      mload(0x40)\n      swap1\n      dup1\n      dup3\n      mstore\n      dup1\n      0x20\n      mul\n      0x20\n      add\n      dup3\n      add\n      0x40\n      mstore\n      dup1\n      iszero\n      tag_94\n      jumpi\n      dup2\n      0x20\n      add\n    tag_95:\n      tag_96\n      tag_97\n      jump\t// in\n    tag_96:\n      dup2\n      mstore\n      0x20\n      add\n      swap1\n      0x01\n      swap1\n      sub\n      swap1\n      dup2\n      tag_95\n      jumpi\n      swap1\n      pop\n    tag_94:\n      pop\n        /* \"contracts/test.sol\":751:880  ModelInput(... */\n      dup2\n      mstore\n      pop\n        /* \"contracts/test.sol\":720:880  ModelInput memory modelInput = ModelInput(... */\n      swap1\n      pop\n        /* \"contracts/test.sol\":901:934  TensorLib.Number[] memory numbers */\n      0x00\n        /* \"contracts/test.sol\":960:961  2 */\n      0x02\n        /* \"contracts/test.sol\":937:962  new TensorLib.Number[](2) */\n      0xffffffffffffffff\n      dup2\n      gt\n      iszero\n      tag_98\n      jumpi\n      tag_99\n      tag_87\n      jump\t// in\n    tag_99:\n    tag_98:\n      mload(0x40)\n      swap1\n      dup1\n      dup3\n      mstore\n      dup1\n      0x20\n      mul\n      0x20\n      add\n      dup3\n      add\n      0x40\n      mstore\n      dup1\n      iszero\n      tag_100\n      jumpi\n      dup2\n      0x20\n      add\n    tag_101:\n      tag_102\n      tag_103\n      jump\t// in\n    tag_102:\n      dup2\n      mstore\n      0x20\n      add\n      swap1\n      0x01\n      swap1\n      sub\n      swap1\n      dup2\n      tag_101\n      jumpi\n      swap1\n      pop\n    tag_100:\n      pop\n        /* \"contracts/test.sol\":901:962  TensorLib.Number[] memory numbers = new TensorLib.Number[](2) */\n      swap1\n      pop\n        /* \"contracts/test.sol\":986:1024  TensorLib.Number(7286679744720459, 17) */\n      mload(0x40)\n      dup1\n      0x40\n      add\n      0x40\n      mstore\n      dup1\n        /* \"contracts/test.sol\":1003:1019  7286679744720459 */\n      0x19e33255c6ae4b\n        /* \"contracts/test.sol\":986:1024  TensorLib.Number(7286679744720459, 17) */\n      0x0f\n      signextend\n      dup2\n      mstore\n      0x20\n      add\n        /* \"contracts/test.sol\":1021:1023  17 */\n      0x11\n        /* \"contracts/test.sol\":986:1024  TensorLib.Number(7286679744720459, 17) */\n      0x0f\n      signextend\n      dup2\n      mstore\n      pop\n        /* \"contracts/test.sol\":973:980  numbers */\n      dup2\n        /* \"contracts/test.sol\":981:982  0 */\n      0x00\n        /* \"contracts/test.sol\":973:983  numbers[0] */\n      dup2\n      mload\n      dup2\n      lt\n      tag_104\n      jumpi\n      tag_105\n      tag_106\n      jump\t// in\n    tag_105:\n    tag_104:\n      0x20\n      mul\n      0x20\n      add\n      add\n        /* \"contracts/test.sol\":973:1024  numbers[0] = TensorLib.Number(7286679744720459, 17) */\n      dup2\n      swap1\n      mstore\n      pop\n        /* \"contracts/test.sol\":1071:1109  TensorLib.Number(4486280083656311, 16) */\n      mload(0x40)\n      dup1\n      0x40\n      add\n      0x40\n      mstore\n      dup1\n        /* \"contracts/test.sol\":1088:1104  4486280083656311 */\n      0x0ff03f7abfce77\n        /* \"contracts/test.sol\":1071:1109  TensorLib.Number(4486280083656311, 16) */\n      0x0f\n      signextend\n      dup2\n      mstore\n      0x20\n      add\n        /* \"contracts/test.sol\":1106:1108  16 */\n      0x10\n        /* \"contracts/test.sol\":1071:1109  TensorLib.Number(4486280083656311, 16) */\n      0x0f\n      signextend\n      dup2\n      mstore\n      pop\n        /* \"contracts/test.sol\":1058:1065  numbers */\n      dup2\n        /* \"contracts/test.sol\":1066:1067  1 */\n      0x01\n        /* \"contracts/test.sol\":1058:1068  numbers[1] */\n      dup2\n      mload\n      dup2\n      lt\n      tag_107\n      jumpi\n      tag_108\n      tag_106\n      jump\t// in\n    tag_108:\n    tag_107:\n      0x20\n      mul\n      0x20\n      add\n      add\n        /* \"contracts/test.sol\":1058:1109  numbers[1] = TensorLib.Number(4486280083656311, 16) */\n      dup2\n      swap1\n      mstore\n      pop\n        /* \"contracts/test.sol\":1166:1218  TensorLib.numberTensor1D(INPUT_TENSOR_NAME, numbers) */\n      tag_109\n        /* \"contracts/test.sol\":1191:1208  INPUT_TENSOR_NAME */\n      mload(0x40)\n      dup1\n      0x40\n      add\n      0x40\n      mstore\n      dup1\n      0x05\n      dup2\n      mstore\n      0x20\n      add\n      0x696e707574000000000000000000000000000000000000000000000000000000\n      dup2\n      mstore\n      pop\n        /* \"contracts/test.sol\":1210:1217  numbers */\n      dup3\n        /* \"contracts/test.sol\":1166:1190  TensorLib.numberTensor1D */\n      tag_110\n        /* \"contracts/test.sol\":1166:1218  TensorLib.numberTensor1D(INPUT_TENSOR_NAME, numbers) */\n      jump\t// in\n    tag_109:\n        /* \"contracts/test.sol\":1142:1152  modelInput */\n      dup3\n        /* \"contracts/test.sol\":1142:1160  modelInput.numbers */\n      0x00\n      add\n      mload\n        /* \"contracts/test.sol\":1161:1162  0 */\n      0x00\n        /* \"contracts/test.sol\":1142:1163  modelInput.numbers[0] */\n      dup2\n      mload\n      dup2\n      lt\n      tag_111\n      jumpi\n      tag_112\n      tag_106\n      jump\t// in\n    tag_112:\n    tag_111:\n      0x20\n      mul\n      0x20\n      add\n      add\n        /* \"contracts/test.sol\":1142:1218  modelInput.numbers[0] = TensorLib.numberTensor1D(INPUT_TENSOR_NAME, numbers) */\n      dup2\n      swap1\n      mstore\n      pop\n        /* \"contracts/test.sol\":1246:1256  modelInput */\n      dup2\n        /* \"contracts/test.sol\":1239:1256  return modelInput */\n      swap3\n      pop\n      pop\n      pop\n        /* \"contracts/test.sol\":640:1264  function createModelInput() private pure returns (ModelInput memory) {... */\n      swap1\n      jump\t// out\n        /* \"contracts/test.sol\":1324:1503  function processModelOutput(ModelOutput memory output) private {... */\n    tag_49:\n        /* \"contracts/test.sol\":1413:1419  output */\n      dup1\n        /* \"contracts/test.sol\":1413:1440  output.is_simulation_result */\n      0x40\n      add\n      mload\n        /* \"contracts/test.sol\":1413:1495  output.is_simulation_result ? TensorLib.Number(0, 0) : output.numbers[0].values[0] */\n      tag_114\n      jumpi\n        /* \"contracts/test.sol\":1468:1474  output */\n      dup1\n        /* \"contracts/test.sol\":1468:1482  output.numbers */\n      0x00\n      add\n      mload\n        /* \"contracts/test.sol\":1483:1484  0 */\n      0x00\n        /* \"contracts/test.sol\":1468:1485  output.numbers[0] */\n      dup2\n      mload\n      dup2\n      lt\n      tag_115\n      jumpi\n      tag_116\n      tag_106\n      jump\t// in\n    tag_116:\n    tag_115:\n      0x20\n      mul\n      0x20\n      add\n      add\n      mload\n        /* \"contracts/test.sol\":1468:1492  output.numbers[0].values */\n      0x20\n      add\n      mload\n        /* \"contracts/test.sol\":1493:1494  0 */\n      0x00\n        /* \"contracts/test.sol\":1468:1495  output.numbers[0].values[0] */\n      dup2\n      mload\n      dup2\n      lt\n      tag_117\n      jumpi\n      tag_118\n      tag_106\n      jump\t// in\n    tag_118:\n    tag_117:\n      0x20\n      mul\n      0x20\n      add\n      add\n      mload\n        /* \"contracts/test.sol\":1413:1495  output.is_simulation_result ? TensorLib.Number(0, 0) : output.numbers[0].values[0] */\n      jump(tag_119)\n    tag_114:\n        /* \"contracts/test.sol\":1443:1465  TensorLib.Number(0, 0) */\n      mload(0x40)\n      dup1\n      0x40\n      add\n      0x40\n      mstore\n      dup1\n        /* \"contracts/test.sol\":1460:1461  0 */\n      0x00\n        /* \"contracts/test.sol\":1443:1465  TensorLib.Number(0, 0) */\n      0x0f\n      signextend\n      dup2\n      mstore\n      0x20\n      add\n        /* \"contracts/test.sol\":1463:1464  0 */\n      0x00\n        /* \"contracts/test.sol\":1443:1465  TensorLib.Number(0, 0) */\n      0x0f\n      signextend\n      dup2\n      mstore\n      pop\n        /* \"contracts/test.sol\":1413:1495  output.is_simulation_result ? TensorLib.Number(0, 0) : output.numbers[0].values[0] */\n    tag_119:\n        /* \"contracts/test.sol\":1398:1410  resultNumber */\n      0x01\n        /* \"contracts/test.sol\":1398:1495  resultNumber = output.is_simulation_result ? TensorLib.Number(0, 0) : output.numbers[0].values[0] */\n      0x00\n      dup3\n      add\n      mload\n      dup2\n      0x00\n      add\n      exp(0x0100, 0x00)\n      dup2\n      sload\n      dup2\n      0xffffffffffffffffffffffffffffffff\n      mul\n      not\n      and\n      swap1\n      dup4\n      0x0f\n      signextend\n      0xffffffffffffffffffffffffffffffff\n      and\n      mul\n      or\n      swap1\n      sstore\n      pop\n      0x20\n      dup3\n      add\n      mload\n      dup2\n      0x00\n      add\n      exp(0x0100, 0x10)\n      dup2\n      sload\n      dup2\n      0xffffffffffffffffffffffffffffffff\n      mul\n      not\n      and\n      swap1\n      dup4\n      0x0f\n      signextend\n      0xffffffffffffffffffffffffffffffff\n      and\n      mul\n      or\n      swap1\n      sstore\n      pop\n      swap1\n      pop\n      pop\n        /* \"contracts/test.sol\":1324:1503  function processModelOutput(ModelOutput memory output) private {... */\n      pop\n      jump\t// out\n        /* \"contracts/test.sol\":2165:2371  function createStopSequence() private pure returns (string[] memory) {... */\n    tag_55:\n        /* \"contracts/test.sol\":2217:2232  string[] memory */\n      0x60\n        /* \"contracts/test.sol\":2245:2273  string[] memory stopSequence */\n      0x00\n        /* \"contracts/test.sol\":2289:2290  1 */\n      0x01\n        /* \"contracts/test.sol\":2276:2291  new string[](1) */\n      0xffffffffffffffff\n      dup2\n      gt\n      iszero\n      tag_121\n      jumpi\n      tag_122\n      tag_87\n      jump\t// in\n    tag_122:\n    tag_121:\n      mload(0x40)\n      swap1\n      dup1\n      dup3\n      mstore\n      dup1\n      0x20\n      mul\n      0x20\n      add\n      dup3\n      add\n      0x40\n      mstore\n      dup1\n      iszero\n      tag_123\n      jumpi\n      dup2\n      0x20\n      add\n    tag_124:\n      0x60\n      dup2\n      mstore\n      0x20\n      add\n      swap1\n      0x01\n      swap1\n      sub\n      swap1\n      dup2\n      tag_124\n      jumpi\n      swap1\n      pop\n    tag_123:\n      pop\n        /* \"contracts/test.sol\":2245:2291  string[] memory stopSequence = new string[](1) */\n      swap1\n      pop\n        /* \"contracts/test.sol\":2320:2333  STOP_SEQUENCE */\n      mload(0x40)\n      dup1\n      0x40\n      add\n      0x40\n      mstore\n      dup1\n      0x05\n      dup2\n      mstore\n      0x20\n      add\n      0x3c656e643e000000000000000000000000000000000000000000000000000000\n      dup2\n      mstore\n      pop\n        /* \"contracts/test.sol\":2302:2314  stopSequence */\n      dup2\n        /* \"contracts/test.sol\":2315:2316  0 */\n      0x00\n        /* \"contracts/test.sol\":2302:2317  stopSequence[0] */\n      dup2\n      mload\n      dup2\n      lt\n      tag_125\n      jumpi\n      tag_126\n      tag_106\n      jump\t// in\n    tag_126:\n    tag_125:\n      0x20\n      mul\n      0x20\n      add\n      add\n        /* \"contracts/test.sol\":2302:2333  stopSequence[0] = STOP_SEQUENCE */\n      dup2\n      swap1\n      mstore\n      pop\n        /* \"contracts/test.sol\":2351:2363  stopSequence */\n      dup1\n        /* \"contracts/test.sol\":2344:2363  return stopSequence */\n      swap2\n      pop\n      pop\n        /* \"contracts/test.sol\":2165:2371  function createStopSequence() private pure returns (string[] memory) {... */\n      swap1\n      jump\t// out\n        /* \"opengradient-neuroml/src/OGInference.sol\":2338:2631  function numberTensor1D(string memory name, Number[] memory values) internal pure returns (MultiDimensionalNumberTensor memory) {... */\n    tag_110:\n        /* \"opengradient-neuroml/src/OGInference.sol\":2429:2464  MultiDimensionalNumberTensor memory */\n      tag_127\n      tag_91\n      jump\t// in\n    tag_127:\n        /* \"opengradient-neuroml/src/OGInference.sol\":2476:2497  uint32[] memory shape */\n      0x00\n        /* \"opengradient-neuroml/src/OGInference.sol\":2513:2514  1 */\n      0x01\n        /* \"opengradient-neuroml/src/OGInference.sol\":2500:2515  new uint32[](1) */\n      0xffffffffffffffff\n      dup2\n      gt\n      iszero\n      tag_129\n      jumpi\n      tag_130\n      tag_87\n      jump\t// in\n    tag_130:\n    tag_129:\n      mload(0x40)\n      swap1\n      dup1\n      dup3\n      mstore\n      dup1\n      0x20\n      mul\n      0x20\n      add\n      dup3\n      add\n      0x40\n      mstore\n      dup1\n      iszero\n      tag_131\n      jumpi\n      dup2\n      0x20\n      add\n      0x20\n      dup3\n      mul\n      dup1\n      calldatasize\n      dup4\n      calldatacopy\n      dup1\n      dup3\n      add\n      swap2\n      pop\n      pop\n      swap1\n      pop\n    tag_131:\n      pop\n        /* \"opengradient-neuroml/src/OGInference.sol\":2476:2515  uint32[] memory shape = new uint32[](1) */\n      swap1\n      pop\n        /* \"opengradient-neuroml/src/OGInference.sol\":2543:2549  values */\n      dup3\n        /* \"opengradient-neuroml/src/OGInference.sol\":2543:2556  values.length */\n      mload\n        /* \"opengradient-neuroml/src/OGInference.sol\":2525:2530  shape */\n      dup2\n        /* \"opengradient-neuroml/src/OGInference.sol\":2531:2532  0 */\n      0x00\n        /* \"opengradient-neuroml/src/OGInference.sol\":2525:2533  shape[0] */\n      dup2\n      mload\n      dup2\n      lt\n      tag_132\n      jumpi\n      tag_133\n      tag_106\n      jump\t// in\n    tag_133:\n    tag_132:\n      0x20\n      mul\n      0x20\n      add\n      add\n        /* \"opengradient-neuroml/src/OGInference.sol\":2525:2557  shape[0] = uint32(values.length) */\n      swap1\n      0xffffffff\n      and\n      swap1\n      dup2\n      0xffffffff\n      and\n      dup2\n      mstore\n      pop\n      pop\n        /* \"opengradient-neuroml/src/OGInference.sol\":2575:2624  MultiDimensionalNumberTensor(name, values, shape) */\n      mload(0x40)\n      dup1\n      0x60\n      add\n      0x40\n      mstore\n      dup1\n        /* \"opengradient-neuroml/src/OGInference.sol\":2604:2608  name */\n      dup6\n        /* \"opengradient-neuroml/src/OGInference.sol\":2575:2624  MultiDimensionalNumberTensor(name, values, shape) */\n      dup2\n      mstore\n      0x20\n      add\n        /* \"opengradient-neuroml/src/OGInference.sol\":2610:2616  values */\n      dup5\n        /* \"opengradient-neuroml/src/OGInference.sol\":2575:2624  MultiDimensionalNumberTensor(name, values, shape) */\n      dup2\n      mstore\n      0x20\n      add\n        /* \"opengradient-neuroml/src/OGInference.sol\":2618:2623  shape */\n      dup3\n        /* \"opengradient-neuroml/src/OGInference.sol\":2575:2624  MultiDimensionalNumberTensor(name, values, shape) */\n      dup2\n      mstore\n      pop\n        /* \"opengradient-neuroml/src/OGInference.sol\":2568:2624  return MultiDimensionalNumberTensor(name, values, shape) */\n      swap2\n      pop\n      pop\n        /* \"opengradient-neuroml/src/OGInference.sol\":2338:2631  function numberTensor1D(string memory name, Number[] memory values) internal pure returns (MultiDimensionalNumberTensor memory) {... */\n      swap3\n      swap2\n      pop\n      pop\n      jump\t// out\n    tag_83:\n      mload(0x40)\n      dup1\n      0x40\n      add\n      0x40\n      mstore\n      dup1\n      0x60\n      dup2\n      mstore\n      0x20\n      add\n      0x60\n      dup2\n      mstore\n      pop\n      swap1\n      jump\t// out\n    tag_91:\n      mload(0x40)\n      dup1\n      0x60\n      add\n      0x40\n      mstore\n      dup1\n      0x60\n      dup2\n      mstore\n      0x20\n      add\n      0x60\n      dup2\n      mstore\n      0x20\n      add\n      0x60\n      dup2\n      mstore\n      pop\n      swap1\n      jump\t// out\n    tag_97:\n      mload(0x40)\n      dup1\n      0x40\n      add\n      0x40\n      mstore\n      dup1\n      0x60\n      dup2\n      mstore\n      0x20\n      add\n      0x60\n      dup2\n      mstore\n      pop\n      swap1\n      jump\t// out\n    tag_103:\n      mload(0x40)\n      dup1\n      0x40\n      add\n      0x40\n      mstore\n      dup1\n      signextend(0x0f, 0x00)\n      dup2\n      mstore\n      0x20\n      add\n      signextend(0x0f, 0x00)\n      dup2\n      mstore\n      pop\n      swap1\n      jump\t// out\n        /* \"#utility.yul\":7:106   */\n    tag_134:\n        /* \"#utility.yul\":59:65   */\n      0x00\n        /* \"#utility.yul\":93:98   */\n      dup2\n        /* \"#utility.yul\":87:99   */\n      mload\n        /* \"#utility.yul\":77:99   */\n      swap1\n      pop\n        /* \"#utility.yul\":7:106   */\n      swap2\n      swap1\n      pop\n      jump\t// out\n        /* \"#utility.yul\":112:281   */\n    tag_135:\n        /* \"#utility.yul\":196:207   */\n      0x00\n        /* \"#utility.yul\":230:236   */\n      dup3\n        /* \"#utility.yul\":225:228   */\n      dup3\n        /* \"#utility.yul\":218:237   */\n      mstore\n        /* \"#utility.yul\":270:274   */\n      0x20\n        /* \"#utility.yul\":265:268   */\n      dup3\n        /* \"#utility.yul\":261:275   */\n      add\n        /* \"#utility.yul\":246:275   */\n      swap1\n      pop\n        /* \"#utility.yul\":112:281   */\n      swap3\n      swap2\n      pop\n      pop\n      jump\t// out\n        /* \"#utility.yul\":287:426   */\n    tag_136:\n        /* \"#utility.yul\":376:382   */\n      dup3\n        /* \"#utility.yul\":371:374   */\n      dup2\n        /* \"#utility.yul\":366:369   */\n      dup4\n        /* \"#utility.yul\":360:383   */\n      mcopy\n        /* \"#utility.yul\":417:418   */\n      0x00\n        /* \"#utility.yul\":408:414   */\n      dup4\n        /* \"#utility.yul\":403:406   */\n      dup4\n        /* \"#utility.yul\":399:415   */\n      add\n        /* \"#utility.yul\":392:419   */\n      mstore\n        /* \"#utility.yul\":287:426   */\n      pop\n      pop\n      pop\n      jump\t// out\n        /* \"#utility.yul\":432:534   */\n    tag_137:\n        /* \"#utility.yul\":473:479   */\n      0x00\n        /* \"#utility.yul\":524:526   */\n      0x1f\n        /* \"#utility.yul\":520:527   */\n      not\n        /* \"#utility.yul\":515:517   */\n      0x1f\n        /* \"#utility.yul\":508:513   */\n      dup4\n        /* \"#utility.yul\":504:518   */\n      add\n        /* \"#utility.yul\":500:528   */\n      and\n        /* \"#utility.yul\":490:528   */\n      swap1\n      pop\n        /* \"#utility.yul\":432:534   */\n      swap2\n      swap1\n      pop\n      jump\t// out\n        /* \"#utility.yul\":540:917   */\n    tag_138:\n        /* \"#utility.yul\":628:631   */\n      0x00\n        /* \"#utility.yul\":656:695   */\n      tag_253\n        /* \"#utility.yul\":689:694   */\n      dup3\n        /* \"#utility.yul\":656:695   */\n      tag_134\n      jump\t// in\n    tag_253:\n        /* \"#utility.yul\":711:782   */\n      tag_254\n        /* \"#utility.yul\":775:781   */\n      dup2\n        /* \"#utility.yul\":770:773   */\n      dup6\n        /* \"#utility.yul\":711:782   */\n      tag_135\n      jump\t// in\n    tag_254:\n        /* \"#utility.yul\":704:782   */\n      swap4\n      pop\n        /* \"#utility.yul\":791:856   */\n      tag_255\n        /* \"#utility.yul\":849:855   */\n      dup2\n        /* \"#utility.yul\":844:847   */\n      dup6\n        /* \"#utility.yul\":837:841   */\n      0x20\n        /* \"#utility.yul\":830:835   */\n      dup7\n        /* \"#utility.yul\":826:842   */\n      add\n        /* \"#utility.yul\":791:856   */\n      tag_136\n      jump\t// in\n    tag_255:\n        /* \"#utility.yul\":881:910   */\n      tag_256\n        /* \"#utility.yul\":903:909   */\n      dup2\n        /* \"#utility.yul\":881:910   */\n      tag_137\n      jump\t// in\n    tag_256:\n        /* \"#utility.yul\":876:879   */\n      dup5\n        /* \"#utility.yul\":872:911   */\n      add\n        /* \"#utility.yul\":865:911   */\n      swap2\n      pop\n        /* \"#utility.yul\":632:917   */\n      pop\n        /* \"#utility.yul\":540:917   */\n      swap3\n      swap2\n      pop\n      pop\n      jump\t// out\n        /* \"#utility.yul\":923:1236   */\n    tag_14:\n        /* \"#utility.yul\":1036:1040   */\n      0x00\n        /* \"#utility.yul\":1074:1076   */\n      0x20\n        /* \"#utility.yul\":1063:1072   */\n      dup3\n        /* \"#utility.yul\":1059:1077   */\n      add\n        /* \"#utility.yul\":1051:1077   */\n      swap1\n      pop\n        /* \"#utility.yul\":1123:1132   */\n      dup2\n        /* \"#utility.yul\":1117:1121   */\n      dup2\n        /* \"#utility.yul\":1113:1133   */\n      sub\n        /* \"#utility.yul\":1109:1110   */\n      0x00\n        /* \"#utility.yul\":1098:1107   */\n      dup4\n        /* \"#utility.yul\":1094:1111   */\n      add\n        /* \"#utility.yul\":1087:1134   */\n      mstore\n        /* \"#utility.yul\":1151:1229   */\n      tag_258\n        /* \"#utility.yul\":1224:1228   */\n      dup2\n        /* \"#utility.yul\":1215:1221   */\n      dup5\n        /* \"#utility.yul\":1151:1229   */\n      tag_138\n      jump\t// in\n    tag_258:\n        /* \"#utility.yul\":1143:1229   */\n      swap1\n      pop\n        /* \"#utility.yul\":923:1236   */\n      swap3\n      swap2\n      pop\n      pop\n      jump\t// out\n        /* \"#utility.yul\":1242:1334   */\n    tag_139:\n        /* \"#utility.yul\":1278:1285   */\n      0x00\n        /* \"#utility.yul\":1322:1327   */\n      dup2\n        /* \"#utility.yul\":1318:1320   */\n      0x0f\n        /* \"#utility.yul\":1307:1328   */\n      signextend\n        /* \"#utility.yul\":1296:1328   */\n      swap1\n      pop\n        /* \"#utility.yul\":1242:1334   */\n      swap2\n      swap1\n      pop\n      jump\t// out\n        /* \"#utility.yul\":1340:1455   */\n    tag_140:\n        /* \"#utility.yul\":1425:1448   */\n      tag_261\n        /* \"#utility.yul\":1442:1447   */\n      dup2\n        /* \"#utility.yul\":1425:1448   */\n      tag_139\n      jump\t// in\n    tag_261:\n        /* \"#utility.yul\":1420:1423   */\n      dup3\n        /* \"#utility.yul\":1413:1449   */\n      mstore\n        /* \"#utility.yul\":1340:1455   */\n      pop\n      pop\n      jump\t// out\n        /* \"#utility.yul\":1461:1785   */\n    tag_20:\n        /* \"#utility.yul\":1578:1582   */\n      0x00\n        /* \"#utility.yul\":1616:1618   */\n      0x40\n        /* \"#utility.yul\":1605:1614   */\n      dup3\n        /* \"#utility.yul\":1601:1619   */\n      add\n        /* \"#utility.yul\":1593:1619   */\n      swap1\n      pop\n        /* \"#utility.yul\":1629:1698   */\n      tag_263\n        /* \"#utility.yul\":1695:1696   */\n      0x00\n        /* \"#utility.yul\":1684:1693   */\n      dup4\n        /* \"#utility.yul\":1680:1697   */\n      add\n        /* \"#utility.yul\":1671:1677   */\n      dup6\n        /* \"#utility.yul\":1629:1698   */\n      tag_140\n      jump\t// in\n    tag_263:\n        /* \"#utility.yul\":1708:1778   */\n      tag_264\n        /* \"#utility.yul\":1774:1776   */\n      0x20\n        /* \"#utility.yul\":1763:1772   */\n      dup4\n        /* \"#utility.yul\":1759:1777   */\n      add\n        /* \"#utility.yul\":1750:1756   */\n      dup5\n        /* \"#utility.yul\":1708:1778   */\n      tag_140\n      jump\t// in\n    tag_264:\n        /* \"#utility.yul\":1461:1785   */\n      swap4\n      swap3\n      pop\n      pop\n      pop\n      jump\t// out\n        /* \"#utility.yul\":1791:1971   */\n    tag_141:\n        /* \"#utility.yul\":1839:1916   */\n      0x4e487b7100000000000000000000000000000000000000000000000000000000\n        /* \"#utility.yul\":1836:1837   */\n      0x00\n        /* \"#utility.yul\":1829:1917   */\n      mstore\n        /* \"#utility.yul\":1936:1940   */\n      0x22\n        /* \"#utility.yul\":1933:1934   */\n      0x04\n        /* \"#utility.yul\":1926:1941   */\n      mstore\n        /* \"#utility.yul\":1960:1964   */\n      0x24\n        /* \"#utility.yul\":1957:1958   */\n      0x00\n        /* \"#utility.yul\":1950:1965   */\n      revert\n        /* \"#utility.yul\":1977:2297   */\n    tag_31:\n        /* \"#utility.yul\":2021:2027   */\n      0x00\n        /* \"#utility.yul\":2058:2059   */\n      0x02\n        /* \"#utility.yul\":2052:2056   */\n      dup3\n        /* \"#utility.yul\":2048:2060   */\n      div\n        /* \"#utility.yul\":2038:2060   */\n      swap1\n      pop\n        /* \"#utility.yul\":2105:2106   */\n      0x01\n        /* \"#utility.yul\":2099:2103   */\n      dup3\n        /* \"#utility.yul\":2095:2107   */\n      and\n        /* \"#utility.yul\":2126:2144   */\n      dup1\n        /* \"#utility.yul\":2116:2197   */\n      tag_267\n      jumpi\n        /* \"#utility.yul\":2182:2186   */\n      0x7f\n        /* \"#utility.yul\":2174:2180   */\n      dup3\n        /* \"#utility.yul\":2170:2187   */\n      and\n        /* \"#utility.yul\":2160:2187   */\n      swap2\n      pop\n        /* \"#utility.yul\":2116:2197   */\n    tag_267:\n        /* \"#utility.yul\":2244:2246   */\n      0x20\n        /* \"#utility.yul\":2236:2242   */\n      dup3\n        /* \"#utility.yul\":2233:2247   */\n      lt\n        /* \"#utility.yul\":2213:2231   */\n      dup2\n        /* \"#utility.yul\":2210:2248   */\n      sub\n        /* \"#utility.yul\":2207:2291   */\n      tag_268\n      jumpi\n        /* \"#utility.yul\":2263:2281   */\n      tag_269\n      tag_141\n      jump\t// in\n    tag_269:\n        /* \"#utility.yul\":2207:2291   */\n    tag_268:\n        /* \"#utility.yul\":2028:2297   */\n      pop\n        /* \"#utility.yul\":1977:2297   */\n      swap2\n      swap1\n      pop\n      jump\t// out\n        /* \"#utility.yul\":2303:2483   */\n    tag_39:\n        /* \"#utility.yul\":2351:2428   */\n      0x4e487b7100000000000000000000000000000000000000000000000000000000\n        /* \"#utility.yul\":2348:2349   */\n      0x00\n        /* \"#utility.yul\":2341:2429   */\n      mstore\n        /* \"#utility.yul\":2448:2452   */\n      0x21\n        /* \"#utility.yul\":2445:2446   */\n      0x04\n        /* \"#utility.yul\":2438:2453   */\n      mstore\n        /* \"#utility.yul\":2472:2476   */\n      0x24\n        /* \"#utility.yul\":2469:2470   */\n      0x00\n        /* \"#utility.yul\":2462:2477   */\n      revert\n        /* \"#utility.yul\":2489:2616   */\n    tag_142:\n        /* \"#utility.yul\":2584:2585   */\n      0x03\n        /* \"#utility.yul\":2577:2582   */\n      dup2\n        /* \"#utility.yul\":2574:2586   */\n      lt\n        /* \"#utility.yul\":2564:2610   */\n      tag_272\n      jumpi\n        /* \"#utility.yul\":2590:2608   */\n      tag_273\n      tag_39\n      jump\t// in\n    tag_273:\n        /* \"#utility.yul\":2564:2610   */\n    tag_272:\n        /* \"#utility.yul\":2489:2616   */\n      pop\n      jump\t// out\n        /* \"#utility.yul\":2622:2777   */\n    tag_143:\n        /* \"#utility.yul\":2681:2688   */\n      0x00\n        /* \"#utility.yul\":2710:2715   */\n      dup2\n        /* \"#utility.yul\":2699:2715   */\n      swap1\n      pop\n        /* \"#utility.yul\":2716:2771   */\n      tag_275\n        /* \"#utility.yul\":2765:2770   */\n      dup3\n        /* \"#utility.yul\":2716:2771   */\n      tag_142\n      jump\t// in\n    tag_275:\n        /* \"#utility.yul\":2622:2777   */\n      swap2\n      swap1\n      pop\n      jump\t// out\n        /* \"#utility.yul\":2783:2938   */\n    tag_144:\n        /* \"#utility.yul\":2853:2862   */\n      0x00\n        /* \"#utility.yul\":2886:2932   */\n      tag_277\n        /* \"#utility.yul\":2926:2931   */\n      dup3\n        /* \"#utility.yul\":2886:2932   */\n      tag_143\n      jump\t// in\n    tag_277:\n        /* \"#utility.yul\":2873:2932   */\n      swap1\n      pop\n        /* \"#utility.yul\":2783:2938   */\n      swap2\n      swap1\n      pop\n      jump\t// out\n        /* \"#utility.yul\":2944:3105   */\n    tag_145:\n        /* \"#utility.yul\":3041:3098   */\n      tag_279\n        /* \"#utility.yul\":3092:3097   */\n      dup2\n        /* \"#utility.yul\":3041:3098   */\n      tag_144\n      jump\t// in\n    tag_279:\n        /* \"#utility.yul\":3036:3039   */\n      dup3\n        /* \"#utility.yul\":3029:3099   */\n      mstore\n        /* \"#utility.yul\":2944:3105   */\n      pop\n      pop\n      jump\t// out\n        /* \"#utility.yul\":3111:3270   */\n    tag_146:\n        /* \"#utility.yul\":3185:3196   */\n      0x00\n        /* \"#utility.yul\":3219:3225   */\n      dup3\n        /* \"#utility.yul\":3214:3217   */\n      dup3\n        /* \"#utility.yul\":3207:3226   */\n      mstore\n        /* \"#utility.yul\":3259:3263   */\n      0x20\n        /* \"#utility.yul\":3254:3257   */\n      dup3\n        /* \"#utility.yul\":3250:3264   */\n      add\n        /* \"#utility.yul\":3235:3264   */\n      swap1\n      pop\n        /* \"#utility.yul\":3111:3270   */\n      swap3\n      swap2\n      pop\n      pop\n      jump\t// out\n        /* \"#utility.yul\":3276:3633   */\n    tag_147:\n        /* \"#utility.yul\":3354:3357   */\n      0x00\n        /* \"#utility.yul\":3382:3421   */\n      tag_282\n        /* \"#utility.yul\":3415:3420   */\n      dup3\n        /* \"#utility.yul\":3382:3421   */\n      tag_134\n      jump\t// in\n    tag_282:\n        /* \"#utility.yul\":3437:3498   */\n      tag_283\n        /* \"#utility.yul\":3491:3497   */\n      dup2\n        /* \"#utility.yul\":3486:3489   */\n      dup6\n        /* \"#utility.yul\":3437:3498   */\n      tag_146\n      jump\t// in\n    tag_283:\n        /* \"#utility.yul\":3430:3498   */\n      swap4\n      pop\n        /* \"#utility.yul\":3507:3572   */\n      tag_284\n        /* \"#utility.yul\":3565:3571   */\n      dup2\n        /* \"#utility.yul\":3560:3563   */\n      dup6\n        /* \"#utility.yul\":3553:3557   */\n      0x20\n        /* \"#utility.yul\":3546:3551   */\n      dup7\n        /* \"#utility.yul\":3542:3558   */\n      add\n        /* \"#utility.yul\":3507:3572   */\n      tag_136\n      jump\t// in\n    tag_284:\n        /* \"#utility.yul\":3597:3626   */\n      tag_285\n        /* \"#utility.yul\":3619:3625   */\n      dup2\n        /* \"#utility.yul\":3597:3626   */\n      tag_137\n      jump\t// in\n    tag_285:\n        /* \"#utility.yul\":3592:3595   */\n      dup5\n        /* \"#utility.yul\":3588:3627   */\n      add\n        /* \"#utility.yul\":3581:3627   */\n      swap2\n      pop\n        /* \"#utility.yul\":3358:3633   */\n      pop\n        /* \"#utility.yul\":3276:3633   */\n      swap3\n      swap2\n      pop\n      pop\n      jump\t// out\n        /* \"#utility.yul\":3639:3798   */\n    tag_148:\n        /* \"#utility.yul\":3751:3757   */\n      0x00\n        /* \"#utility.yul\":3785:3790   */\n      dup2\n        /* \"#utility.yul\":3779:3791   */\n      mload\n        /* \"#utility.yul\":3769:3791   */\n      swap1\n      pop\n        /* \"#utility.yul\":3639:3798   */\n      swap2\n      swap1\n      pop\n      jump\t// out\n        /* \"#utility.yul\":3804:4023   */\n    tag_149:\n        /* \"#utility.yul\":3938:3949   */\n      0x00\n        /* \"#utility.yul\":3972:3978   */\n      dup3\n        /* \"#utility.yul\":3967:3970   */\n      dup3\n        /* \"#utility.yul\":3960:3979   */\n      mstore\n        /* \"#utility.yul\":4012:4016   */\n      0x20\n        /* \"#utility.yul\":4007:4010   */\n      dup3\n        /* \"#utility.yul\":4003:4017   */\n      add\n        /* \"#utility.yul\":3988:4017   */\n      swap1\n      pop\n        /* \"#utility.yul\":3804:4023   */\n      swap3\n      swap2\n      pop\n      pop\n      jump\t// out\n        /* \"#utility.yul\":4029:4206   */\n    tag_150:\n        /* \"#utility.yul\":4141:4145   */\n      0x00\n        /* \"#utility.yul\":4164:4167   */\n      dup2\n        /* \"#utility.yul\":4156:4167   */\n      swap1\n      pop\n        /* \"#utility.yul\":4194:4198   */\n      0x20\n        /* \"#utility.yul\":4189:4192   */\n      dup3\n        /* \"#utility.yul\":4185:4199   */\n      add\n        /* \"#utility.yul\":4177:4199   */\n      swap1\n      pop\n        /* \"#utility.yul\":4029:4206   */\n      swap2\n      swap1\n      pop\n      jump\t// out\n        /* \"#utility.yul\":4212:4349   */\n    tag_151:\n        /* \"#utility.yul\":4302:4308   */\n      0x00\n        /* \"#utility.yul\":4336:4341   */\n      dup2\n        /* \"#utility.yul\":4330:4342   */\n      mload\n        /* \"#utility.yul\":4320:4342   */\n      swap1\n      pop\n        /* \"#utility.yul\":4212:4349   */\n      swap2\n      swap1\n      pop\n      jump\t// out\n        /* \"#utility.yul\":4355:4552   */\n    tag_152:\n        /* \"#utility.yul\":4467:4478   */\n      0x00\n        /* \"#utility.yul\":4501:4507   */\n      dup3\n        /* \"#utility.yul\":4496:4499   */\n      dup3\n        /* \"#utility.yul\":4489:4508   */\n      mstore\n        /* \"#utility.yul\":4541:4545   */\n      0x20\n        /* \"#utility.yul\":4536:4539   */\n      dup3\n        /* \"#utility.yul\":4532:4546   */\n      add\n        /* \"#utility.yul\":4517:4546   */\n      swap1\n      pop\n        /* \"#utility.yul\":4355:4552   */\n      swap3\n      swap2\n      pop\n      pop\n      jump\t// out\n        /* \"#utility.yul\":4558:4713   */\n    tag_153:\n        /* \"#utility.yul\":4648:4652   */\n      0x00\n        /* \"#utility.yul\":4671:4674   */\n      dup2\n        /* \"#utility.yul\":4663:4674   */\n      swap1\n      pop\n        /* \"#utility.yul\":4701:4705   */\n      0x20\n        /* \"#utility.yul\":4696:4699   */\n      dup3\n        /* \"#utility.yul\":4692:4706   */\n      add\n        /* \"#utility.yul\":4684:4706   */\n      swap1\n      pop\n        /* \"#utility.yul\":4558:4713   */\n      swap2\n      swap1\n      pop\n      jump\t// out\n        /* \"#utility.yul\":4719:4824   */\n    tag_154:\n        /* \"#utility.yul\":4794:4817   */\n      tag_293\n        /* \"#utility.yul\":4811:4816   */\n      dup2\n        /* \"#utility.yul\":4794:4817   */\n      tag_139\n      jump\t// in\n    tag_293:\n        /* \"#utility.yul\":4789:4792   */\n      dup3\n        /* \"#utility.yul\":4782:4818   */\n      mstore\n        /* \"#utility.yul\":4719:4824   */\n      pop\n      pop\n      jump\t// out\n        /* \"#utility.yul\":4888:5382   */\n    tag_155:\n        /* \"#utility.yul\":5021:5025   */\n      0x40\n        /* \"#utility.yul\":5016:5019   */\n      dup3\n        /* \"#utility.yul\":5012:5026   */\n      add\n        /* \"#utility.yul\":5109:5113   */\n      0x00\n        /* \"#utility.yul\":5102:5107   */\n      dup3\n        /* \"#utility.yul\":5098:5114   */\n      add\n        /* \"#utility.yul\":5092:5115   */\n      mload\n        /* \"#utility.yul\":5128:5189   */\n      tag_295\n        /* \"#utility.yul\":5183:5187   */\n      0x00\n        /* \"#utility.yul\":5178:5181   */\n      dup6\n        /* \"#utility.yul\":5174:5188   */\n      add\n        /* \"#utility.yul\":5160:5172   */\n      dup3\n        /* \"#utility.yul\":5128:5189   */\n      tag_154\n      jump\t// in\n    tag_295:\n        /* \"#utility.yul\":5036:5199   */\n      pop\n        /* \"#utility.yul\":5285:5289   */\n      0x20\n        /* \"#utility.yul\":5278:5283   */\n      dup3\n        /* \"#utility.yul\":5274:5290   */\n      add\n        /* \"#utility.yul\":5268:5291   */\n      mload\n        /* \"#utility.yul\":5304:5365   */\n      tag_296\n        /* \"#utility.yul\":5359:5363   */\n      0x20\n        /* \"#utility.yul\":5354:5357   */\n      dup6\n        /* \"#utility.yul\":5350:5364   */\n      add\n        /* \"#utility.yul\":5336:5348   */\n      dup3\n        /* \"#utility.yul\":5304:5365   */\n      tag_154\n      jump\t// in\n    tag_296:\n        /* \"#utility.yul\":5209:5375   */\n      pop\n        /* \"#utility.yul\":4990:5382   */\n      pop\n        /* \"#utility.yul\":4888:5382   */\n      pop\n      pop\n      jump\t// out\n        /* \"#utility.yul\":5388:5659   */\n    tag_156:\n        /* \"#utility.yul\":5503:5513   */\n      0x00\n        /* \"#utility.yul\":5524:5616   */\n      tag_298\n        /* \"#utility.yul\":5612:5615   */\n      dup4\n        /* \"#utility.yul\":5604:5610   */\n      dup4\n        /* \"#utility.yul\":5524:5616   */\n      tag_155\n      jump\t// in\n    tag_298:\n        /* \"#utility.yul\":5648:5652   */\n      0x40\n        /* \"#utility.yul\":5643:5646   */\n      dup4\n        /* \"#utility.yul\":5639:5653   */\n      add\n        /* \"#utility.yul\":5625:5653   */\n      swap1\n      pop\n        /* \"#utility.yul\":5388:5659   */\n      swap3\n      swap2\n      pop\n      pop\n      jump\t// out\n        /* \"#utility.yul\":5665:5801   */\n    tag_157:\n        /* \"#utility.yul\":5758:5762   */\n      0x00\n        /* \"#utility.yul\":5790:5794   */\n      0x20\n        /* \"#utility.yul\":5785:5788   */\n      dup3\n        /* \"#utility.yul\":5781:5795   */\n      add\n        /* \"#utility.yul\":5773:5795   */\n      swap1\n      pop\n        /* \"#utility.yul\":5665:5801   */\n      swap2\n      swap1\n      pop\n      jump\t// out\n        /* \"#utility.yul\":5869:6765   */\n    tag_158:\n        /* \"#utility.yul\":6024:6027   */\n      0x00\n        /* \"#utility.yul\":6053:6130   */\n      tag_301\n        /* \"#utility.yul\":6124:6129   */\n      dup3\n        /* \"#utility.yul\":6053:6130   */\n      tag_151\n      jump\t// in\n    tag_301:\n        /* \"#utility.yul\":6146:6245   */\n      tag_302\n        /* \"#utility.yul\":6238:6244   */\n      dup2\n        /* \"#utility.yul\":6233:6236   */\n      dup6\n        /* \"#utility.yul\":6146:6245   */\n      tag_152\n      jump\t// in\n    tag_302:\n        /* \"#utility.yul\":6139:6245   */\n      swap4\n      pop\n        /* \"#utility.yul\":6269:6348   */\n      tag_303\n        /* \"#utility.yul\":6342:6347   */\n      dup4\n        /* \"#utility.yul\":6269:6348   */\n      tag_153\n      jump\t// in\n    tag_303:\n        /* \"#utility.yul\":6371:6378   */\n      dup1\n        /* \"#utility.yul\":6402:6403   */\n      0x00\n        /* \"#utility.yul\":6387:6740   */\n    tag_304:\n        /* \"#utility.yul\":6412:6418   */\n      dup4\n        /* \"#utility.yul\":6409:6410   */\n      dup2\n        /* \"#utility.yul\":6406:6419   */\n      lt\n        /* \"#utility.yul\":6387:6740   */\n      iszero\n      tag_306\n      jumpi\n        /* \"#utility.yul\":6488:6494   */\n      dup2\n        /* \"#utility.yul\":6482:6495   */\n      mload\n        /* \"#utility.yul\":6515:6624   */\n      tag_307\n        /* \"#utility.yul\":6620:6623   */\n      dup9\n        /* \"#utility.yul\":6605:6618   */\n      dup3\n        /* \"#utility.yul\":6515:6624   */\n      tag_156\n      jump\t// in\n    tag_307:\n        /* \"#utility.yul\":6508:6624   */\n      swap8\n      pop\n        /* \"#utility.yul\":6647:6730   */\n      tag_308\n        /* \"#utility.yul\":6723:6729   */\n      dup4\n        /* \"#utility.yul\":6647:6730   */\n      tag_157\n      jump\t// in\n    tag_308:\n        /* \"#utility.yul\":6637:6730   */\n      swap3\n      pop\n        /* \"#utility.yul\":6447:6740   */\n      pop\n        /* \"#utility.yul\":6434:6435   */\n      0x01\n        /* \"#utility.yul\":6431:6432   */\n      dup2\n        /* \"#utility.yul\":6427:6436   */\n      add\n        /* \"#utility.yul\":6422:6436   */\n      swap1\n      pop\n        /* \"#utility.yul\":6387:6740   */\n      jump(tag_304)\n    tag_306:\n        /* \"#utility.yul\":6391:6405   */\n      pop\n        /* \"#utility.yul\":6756:6759   */\n      dup6\n        /* \"#utility.yul\":6749:6759   */\n      swap4\n      pop\n        /* \"#utility.yul\":6029:6765   */\n      pop\n      pop\n      pop\n        /* \"#utility.yul\":5869:6765   */\n      swap3\n      swap2\n      pop\n      pop\n      jump\t// out\n        /* \"#utility.yul\":6771:6884   */\n    tag_159:\n        /* \"#utility.yul\":6837:6843   */\n      0x00\n        /* \"#utility.yul\":6871:6876   */\n      dup2\n        /* \"#utility.yul\":6865:6877   */\n      mload\n        /* \"#utility.yul\":6855:6877   */\n      swap1\n      pop\n        /* \"#utility.yul\":6771:6884   */\n      swap2\n      swap1\n      pop\n      jump\t// out\n        /* \"#utility.yul\":6890:7063   */\n    tag_160:\n        /* \"#utility.yul\":6978:6989   */\n      0x00\n        /* \"#utility.yul\":7012:7018   */\n      dup3\n        /* \"#utility.yul\":7007:7010   */\n      dup3\n        /* \"#utility.yul\":7000:7019   */\n      mstore\n        /* \"#utility.yul\":7052:7056   */\n      0x20\n        /* \"#utility.yul\":7047:7050   */\n      dup3\n        /* \"#utility.yul\":7043:7057   */\n      add\n        /* \"#utility.yul\":7028:7057   */\n      swap1\n      pop\n        /* \"#utility.yul\":6890:7063   */\n      swap3\n      swap2\n      pop\n      pop\n      jump\t// out\n        /* \"#utility.yul\":7069:7200   */\n    tag_161:\n        /* \"#utility.yul\":7135:7139   */\n      0x00\n        /* \"#utility.yul\":7158:7161   */\n      dup2\n        /* \"#utility.yul\":7150:7161   */\n      swap1\n      pop\n        /* \"#utility.yul\":7188:7192   */\n      0x20\n        /* \"#utility.yul\":7183:7186   */\n      dup3\n        /* \"#utility.yul\":7179:7193   */\n      add\n        /* \"#utility.yul\":7171:7193   */\n      swap1\n      pop\n        /* \"#utility.yul\":7069:7200   */\n      swap2\n      swap1\n      pop\n      jump\t// out\n        /* \"#utility.yul\":7206:7299   */\n    tag_162:\n        /* \"#utility.yul\":7242:7249   */\n      0x00\n        /* \"#utility.yul\":7282:7292   */\n      0xffffffff\n        /* \"#utility.yul\":7275:7280   */\n      dup3\n        /* \"#utility.yul\":7271:7293   */\n      and\n        /* \"#utility.yul\":7260:7293   */\n      swap1\n      pop\n        /* \"#utility.yul\":7206:7299   */\n      swap2\n      swap1\n      pop\n      jump\t// out\n        /* \"#utility.yul\":7305:7410   */\n    tag_163:\n        /* \"#utility.yul\":7380:7403   */\n      tag_314\n        /* \"#utility.yul\":7397:7402   */\n      dup2\n        /* \"#utility.yul\":7380:7403   */\n      tag_162\n      jump\t// in\n    tag_314:\n        /* \"#utility.yul\":7375:7378   */\n      dup3\n        /* \"#utility.yul\":7368:7404   */\n      mstore\n        /* \"#utility.yul\":7305:7410   */\n      pop\n      pop\n      jump\t// out\n        /* \"#utility.yul\":7416:7591   */\n    tag_164:\n        /* \"#utility.yul\":7483:7493   */\n      0x00\n        /* \"#utility.yul\":7504:7548   */\n      tag_316\n        /* \"#utility.yul\":7544:7547   */\n      dup4\n        /* \"#utility.yul\":7536:7542   */\n      dup4\n        /* \"#utility.yul\":7504:7548   */\n      tag_163\n      jump\t// in\n    tag_316:\n        /* \"#utility.yul\":7580:7584   */\n      0x20\n        /* \"#utility.yul\":7575:7578   */\n      dup4\n        /* \"#utility.yul\":7571:7585   */\n      add\n        /* \"#utility.yul\":7557:7585   */\n      swap1\n      pop\n        /* \"#utility.yul\":7416:7591   */\n      swap3\n      swap2\n      pop\n      pop\n      jump\t// out\n        /* \"#utility.yul\":7597:7709   */\n    tag_165:\n        /* \"#utility.yul\":7666:7670   */\n      0x00\n        /* \"#utility.yul\":7698:7702   */\n      0x20\n        /* \"#utility.yul\":7693:7696   */\n      dup3\n        /* \"#utility.yul\":7689:7703   */\n      add\n        /* \"#utility.yul\":7681:7703   */\n      swap1\n      pop\n        /* \"#utility.yul\":7597:7709   */\n      swap2\n      swap1\n      pop\n      jump\t// out\n        /* \"#utility.yul\":7743:8447   */\n    tag_166:\n        /* \"#utility.yul\":7850:7853   */\n      0x00\n        /* \"#utility.yul\":7879:7932   */\n      tag_319\n        /* \"#utility.yul\":7926:7931   */\n      dup3\n        /* \"#utility.yul\":7879:7932   */\n      tag_159\n      jump\t// in\n    tag_319:\n        /* \"#utility.yul\":7948:8023   */\n      tag_320\n        /* \"#utility.yul\":8016:8022   */\n      dup2\n        /* \"#utility.yul\":8011:8014   */\n      dup6\n        /* \"#utility.yul\":7948:8023   */\n      tag_160\n      jump\t// in\n    tag_320:\n        /* \"#utility.yul\":7941:8023   */\n      swap4\n      pop\n        /* \"#utility.yul\":8047:8102   */\n      tag_321\n        /* \"#utility.yul\":8096:8101   */\n      dup4\n        /* \"#utility.yul\":8047:8102   */\n      tag_161\n      jump\t// in\n    tag_321:\n        /* \"#utility.yul\":8125:8132   */\n      dup1\n        /* \"#utility.yul\":8156:8157   */\n      0x00\n        /* \"#utility.yul\":8141:8422   */\n    tag_322:\n        /* \"#utility.yul\":8166:8172   */\n      dup4\n        /* \"#utility.yul\":8163:8164   */\n      dup2\n        /* \"#utility.yul\":8160:8173   */\n      lt\n        /* \"#utility.yul\":8141:8422   */\n      iszero\n      tag_324\n      jumpi\n        /* \"#utility.yul\":8242:8248   */\n      dup2\n        /* \"#utility.yul\":8236:8249   */\n      mload\n        /* \"#utility.yul\":8269:8330   */\n      tag_325\n        /* \"#utility.yul\":8326:8329   */\n      dup9\n        /* \"#utility.yul\":8311:8324   */\n      dup3\n        /* \"#utility.yul\":8269:8330   */\n      tag_164\n      jump\t// in\n    tag_325:\n        /* \"#utility.yul\":8262:8330   */\n      swap8\n      pop\n        /* \"#utility.yul\":8353:8412   */\n      tag_326\n        /* \"#utility.yul\":8405:8411   */\n      dup4\n        /* \"#utility.yul\":8353:8412   */\n      tag_165\n      jump\t// in\n    tag_326:\n        /* \"#utility.yul\":8343:8412   */\n      swap3\n      pop\n        /* \"#utility.yul\":8201:8422   */\n      pop\n        /* \"#utility.yul\":8188:8189   */\n      0x01\n        /* \"#utility.yul\":8185:8186   */\n      dup2\n        /* \"#utility.yul\":8181:8190   */\n      add\n        /* \"#utility.yul\":8176:8190   */\n      swap1\n      pop\n        /* \"#utility.yul\":8141:8422   */\n      jump(tag_322)\n    tag_324:\n        /* \"#utility.yul\":8145:8159   */\n      pop\n        /* \"#utility.yul\":8438:8441   */\n      dup6\n        /* \"#utility.yul\":8431:8441   */\n      swap4\n      pop\n        /* \"#utility.yul\":7855:8447   */\n      pop\n      pop\n      pop\n        /* \"#utility.yul\":7743:8447   */\n      swap3\n      swap2\n      pop\n      pop\n      jump\t// out\n        /* \"#utility.yul\":8555:9614   */\n    tag_167:\n        /* \"#utility.yul\":8704:8707   */\n      0x00\n        /* \"#utility.yul\":8740:8744   */\n      0x60\n        /* \"#utility.yul\":8735:8738   */\n      dup4\n        /* \"#utility.yul\":8731:8745   */\n      add\n        /* \"#utility.yul\":8827:8831   */\n      0x00\n        /* \"#utility.yul\":8820:8825   */\n      dup4\n        /* \"#utility.yul\":8816:8832   */\n      add\n        /* \"#utility.yul\":8810:8833   */\n      mload\n        /* \"#utility.yul\":8880:8883   */\n      dup5\n        /* \"#utility.yul\":8874:8878   */\n      dup3\n        /* \"#utility.yul\":8870:8884   */\n      sub\n        /* \"#utility.yul\":8863:8867   */\n      0x00\n        /* \"#utility.yul\":8858:8861   */\n      dup7\n        /* \"#utility.yul\":8854:8868   */\n      add\n        /* \"#utility.yul\":8847:8885   */\n      mstore\n        /* \"#utility.yul\":8906:8979   */\n      tag_328\n        /* \"#utility.yul\":8974:8978   */\n      dup3\n        /* \"#utility.yul\":8960:8972   */\n      dup3\n        /* \"#utility.yul\":8906:8979   */\n      tag_147\n      jump\t// in\n    tag_328:\n        /* \"#utility.yul\":8898:8979   */\n      swap2\n      pop\n        /* \"#utility.yul\":8755:8990   */\n      pop\n        /* \"#utility.yul\":9074:9078   */\n      0x20\n        /* \"#utility.yul\":9067:9072   */\n      dup4\n        /* \"#utility.yul\":9063:9079   */\n      add\n        /* \"#utility.yul\":9057:9080   */\n      mload\n        /* \"#utility.yul\":9127:9130   */\n      dup5\n        /* \"#utility.yul\":9121:9125   */\n      dup3\n        /* \"#utility.yul\":9117:9131   */\n      sub\n        /* \"#utility.yul\":9110:9114   */\n      0x20\n        /* \"#utility.yul\":9105:9108   */\n      dup7\n        /* \"#utility.yul\":9101:9115   */\n      add\n        /* \"#utility.yul\":9094:9132   */\n      mstore\n        /* \"#utility.yul\":9153:9302   */\n      tag_329\n        /* \"#utility.yul\":9297:9301   */\n      dup3\n        /* \"#utility.yul\":9283:9295   */\n      dup3\n        /* \"#utility.yul\":9153:9302   */\n      tag_158\n      jump\t// in\n    tag_329:\n        /* \"#utility.yul\":9145:9302   */\n      swap2\n      pop\n        /* \"#utility.yul\":9000:9313   */\n      pop\n        /* \"#utility.yul\":9396:9400   */\n      0x40\n        /* \"#utility.yul\":9389:9394   */\n      dup4\n        /* \"#utility.yul\":9385:9401   */\n      add\n        /* \"#utility.yul\":9379:9402   */\n      mload\n        /* \"#utility.yul\":9449:9452   */\n      dup5\n        /* \"#utility.yul\":9443:9447   */\n      dup3\n        /* \"#utility.yul\":9439:9453   */\n      sub\n        /* \"#utility.yul\":9432:9436   */\n      0x40\n        /* \"#utility.yul\":9427:9430   */\n      dup7\n        /* \"#utility.yul\":9423:9437   */\n      add\n        /* \"#utility.yul\":9416:9454   */\n      mstore\n        /* \"#utility.yul\":9475:9576   */\n      tag_330\n        /* \"#utility.yul\":9571:9575   */\n      dup3\n        /* \"#utility.yul\":9557:9569   */\n      dup3\n        /* \"#utility.yul\":9475:9576   */\n      tag_166\n      jump\t// in\n    tag_330:\n        /* \"#utility.yul\":9467:9576   */\n      swap2\n      pop\n        /* \"#utility.yul\":9323:9587   */\n      pop\n        /* \"#utility.yul\":9604:9608   */\n      dup1\n        /* \"#utility.yul\":9597:9608   */\n      swap2\n      pop\n        /* \"#utility.yul\":8709:9614   */\n      pop\n        /* \"#utility.yul\":8555:9614   */\n      swap3\n      swap2\n      pop\n      pop\n      jump\t// out\n        /* \"#utility.yul\":9620:9956   */\n    tag_168:\n        /* \"#utility.yul\":9779:9789   */\n      0x00\n        /* \"#utility.yul\":9814:9950   */\n      tag_332\n        /* \"#utility.yul\":9946:9949   */\n      dup4\n        /* \"#utility.yul\":9938:9944   */\n      dup4\n        /* \"#utility.yul\":9814:9950   */\n      tag_167\n      jump\t// in\n    tag_332:\n        /* \"#utility.yul\":9800:9950   */\n      swap1\n      pop\n        /* \"#utility.yul\":9620:9956   */\n      swap3\n      swap2\n      pop\n      pop\n      jump\t// out\n        /* \"#utility.yul\":9962:10120   */\n    tag_169:\n        /* \"#utility.yul\":10077:10081   */\n      0x00\n        /* \"#utility.yul\":10109:10113   */\n      0x20\n        /* \"#utility.yul\":10104:10107   */\n      dup3\n        /* \"#utility.yul\":10100:10114   */\n      add\n        /* \"#utility.yul\":10092:10114   */\n      swap1\n      pop\n        /* \"#utility.yul\":9962:10120   */\n      swap2\n      swap1\n      pop\n      jump\t// out\n        /* \"#utility.yul\":10232:11483   */\n    tag_170:\n        /* \"#utility.yul\":10431:10434   */\n      0x00\n        /* \"#utility.yul\":10460:10559   */\n      tag_335\n        /* \"#utility.yul\":10553:10558   */\n      dup3\n        /* \"#utility.yul\":10460:10559   */\n      tag_148\n      jump\t// in\n    tag_335:\n        /* \"#utility.yul\":10575:10696   */\n      tag_336\n        /* \"#utility.yul\":10689:10695   */\n      dup2\n        /* \"#utility.yul\":10684:10687   */\n      dup6\n        /* \"#utility.yul\":10575:10696   */\n      tag_149\n      jump\t// in\n    tag_336:\n        /* \"#utility.yul\":10568:10696   */\n      swap4\n      pop\n        /* \"#utility.yul\":10722:10725   */\n      dup4\n        /* \"#utility.yul\":10767:10771   */\n      0x20\n        /* \"#utility.yul\":10759:10765   */\n      dup3\n        /* \"#utility.yul\":10755:10772   */\n      mul\n        /* \"#utility.yul\":10750:10753   */\n      dup6\n        /* \"#utility.yul\":10746:10773   */\n      add\n        /* \"#utility.yul\":10797:10898   */\n      tag_337\n        /* \"#utility.yul\":10892:10897   */\n      dup6\n        /* \"#utility.yul\":10797:10898   */\n      tag_150\n      jump\t// in\n    tag_337:\n        /* \"#utility.yul\":10921:10928   */\n      dup1\n        /* \"#utility.yul\":10952:10953   */\n      0x00\n        /* \"#utility.yul\":10937:11438   */\n    tag_338:\n        /* \"#utility.yul\":10962:10968   */\n      dup6\n        /* \"#utility.yul\":10959:10960   */\n      dup2\n        /* \"#utility.yul\":10956:10969   */\n      lt\n        /* \"#utility.yul\":10937:11438   */\n      iszero\n      tag_340\n      jumpi\n        /* \"#utility.yul\":11033:11042   */\n      dup5\n        /* \"#utility.yul\":11027:11031   */\n      dup5\n        /* \"#utility.yul\":11023:11043   */\n      sub\n        /* \"#utility.yul\":11018:11021   */\n      dup10\n        /* \"#utility.yul\":11011:11044   */\n      mstore\n        /* \"#utility.yul\":11084:11090   */\n      dup2\n        /* \"#utility.yul\":11078:11091   */\n      mload\n        /* \"#utility.yul\":11112:11266   */\n      tag_341\n        /* \"#utility.yul\":11261:11265   */\n      dup6\n        /* \"#utility.yul\":11246:11259   */\n      dup3\n        /* \"#utility.yul\":11112:11266   */\n      tag_168\n      jump\t// in\n    tag_341:\n        /* \"#utility.yul\":11104:11266   */\n      swap5\n      pop\n        /* \"#utility.yul\":11289:11394   */\n      tag_342\n        /* \"#utility.yul\":11387:11393   */\n      dup4\n        /* \"#utility.yul\":11289:11394   */\n      tag_169\n      jump\t// in\n    tag_342:\n        /* \"#utility.yul\":11279:11394   */\n      swap3\n      pop\n        /* \"#utility.yul\":11423:11427   */\n      0x20\n        /* \"#utility.yul\":11418:11421   */\n      dup11\n        /* \"#utility.yul\":11414:11428   */\n      add\n        /* \"#utility.yul\":11407:11428   */\n      swap10\n      pop\n        /* \"#utility.yul\":10997:11438   */\n      pop\n        /* \"#utility.yul\":10984:10985   */\n      0x01\n        /* \"#utility.yul\":10981:10982   */\n      dup2\n        /* \"#utility.yul\":10977:10986   */\n      add\n        /* \"#utility.yul\":10972:10986   */\n      swap1\n      pop\n        /* \"#utility.yul\":10937:11438   */\n      jump(tag_338)\n    tag_340:\n        /* \"#utility.yul\":10941:10955   */\n      pop\n        /* \"#utility.yul\":11454:11458   */\n      dup3\n        /* \"#utility.yul\":11447:11458   */\n      swap8\n      pop\n        /* \"#utility.yul\":11474:11477   */\n      dup8\n        /* \"#utility.yul\":11467:11477   */\n      swap6\n      pop\n        /* \"#utility.yul\":10436:11483   */\n      pop\n      pop\n      pop\n      pop\n      pop\n        /* \"#utility.yul\":10232:11483   */\n      swap3\n      swap2\n      pop\n      pop\n      jump\t// out\n        /* \"#utility.yul\":11489:11632   */\n    tag_171:\n        /* \"#utility.yul\":11585:11591   */\n      0x00\n        /* \"#utility.yul\":11619:11624   */\n      dup2\n        /* \"#utility.yul\":11613:11625   */\n      mload\n        /* \"#utility.yul\":11603:11625   */\n      swap1\n      pop\n        /* \"#utility.yul\":11489:11632   */\n      swap2\n      swap1\n      pop\n      jump\t// out\n        /* \"#utility.yul\":11638:11841   */\n    tag_172:\n        /* \"#utility.yul\":11756:11767   */\n      0x00\n        /* \"#utility.yul\":11790:11796   */\n      dup3\n        /* \"#utility.yul\":11785:11788   */\n      dup3\n        /* \"#utility.yul\":11778:11797   */\n      mstore\n        /* \"#utility.yul\":11830:11834   */\n      0x20\n        /* \"#utility.yul\":11825:11828   */\n      dup3\n        /* \"#utility.yul\":11821:11835   */\n      add\n        /* \"#utility.yul\":11806:11835   */\n      swap1\n      pop\n        /* \"#utility.yul\":11638:11841   */\n      swap3\n      swap2\n      pop\n      pop\n      jump\t// out\n        /* \"#utility.yul\":11847:12008   */\n    tag_173:\n        /* \"#utility.yul\":11943:11947   */\n      0x00\n        /* \"#utility.yul\":11966:11969   */\n      dup2\n        /* \"#utility.yul\":11958:11969   */\n      swap1\n      pop\n        /* \"#utility.yul\":11996:12000   */\n      0x20\n        /* \"#utility.yul\":11991:11994   */\n      dup3\n        /* \"#utility.yul\":11987:12001   */\n      add\n        /* \"#utility.yul\":11979:12001   */\n      swap1\n      pop\n        /* \"#utility.yul\":11847:12008   */\n      swap2\n      swap1\n      pop\n      jump\t// out\n        /* \"#utility.yul\":12014:12138   */\n    tag_174:\n        /* \"#utility.yul\":12091:12097   */\n      0x00\n        /* \"#utility.yul\":12125:12130   */\n      dup2\n        /* \"#utility.yul\":12119:12131   */\n      mload\n        /* \"#utility.yul\":12109:12131   */\n      swap1\n      pop\n        /* \"#utility.yul\":12014:12138   */\n      swap2\n      swap1\n      pop\n      jump\t// out\n        /* \"#utility.yul\":12144:12328   */\n    tag_175:\n        /* \"#utility.yul\":12243:12254   */\n      0x00\n        /* \"#utility.yul\":12277:12283   */\n      dup3\n        /* \"#utility.yul\":12272:12275   */\n      dup3\n        /* \"#utility.yul\":12265:12284   */\n      mstore\n        /* \"#utility.yul\":12317:12321   */\n      0x20\n        /* \"#utility.yul\":12312:12315   */\n      dup3\n        /* \"#utility.yul\":12308:12322   */\n      add\n        /* \"#utility.yul\":12293:12322   */\n      swap1\n      pop\n        /* \"#utility.yul\":12144:12328   */\n      swap3\n      swap2\n      pop\n      pop\n      jump\t// out\n        /* \"#utility.yul\":12334:12476   */\n    tag_176:\n        /* \"#utility.yul\":12411:12415   */\n      0x00\n        /* \"#utility.yul\":12434:12437   */\n      dup2\n        /* \"#utility.yul\":12426:12437   */\n      swap1\n      pop\n        /* \"#utility.yul\":12464:12468   */\n      0x20\n        /* \"#utility.yul\":12459:12462   */\n      dup3\n        /* \"#utility.yul\":12455:12469   */\n      add\n        /* \"#utility.yul\":12447:12469   */\n      swap1\n      pop\n        /* \"#utility.yul\":12334:12476   */\n      swap2\n      swap1\n      pop\n      jump\t// out\n        /* \"#utility.yul\":12482:12678   */\n    tag_177:\n        /* \"#utility.yul\":12571:12581   */\n      0x00\n        /* \"#utility.yul\":12606:12672   */\n      tag_350\n        /* \"#utility.yul\":12668:12671   */\n      dup4\n        /* \"#utility.yul\":12660:12666   */\n      dup4\n        /* \"#utility.yul\":12606:12672   */\n      tag_147\n      jump\t// in\n    tag_350:\n        /* \"#utility.yul\":12592:12672   */\n      swap1\n      pop\n        /* \"#utility.yul\":12482:12678   */\n      swap3\n      swap2\n      pop\n      pop\n      jump\t// out\n        /* \"#utility.yul\":12684:12807   */\n    tag_178:\n        /* \"#utility.yul\":12764:12768   */\n      0x00\n        /* \"#utility.yul\":12796:12800   */\n      0x20\n        /* \"#utility.yul\":12791:12794   */\n      dup3\n        /* \"#utility.yul\":12787:12801   */\n      add\n        /* \"#utility.yul\":12779:12801   */\n      swap1\n      pop\n        /* \"#utility.yul\":12684:12807   */\n      swap2\n      swap1\n      pop\n      jump\t// out\n        /* \"#utility.yul\":12841:13812   */\n    tag_179:\n        /* \"#utility.yul\":12970:12973   */\n      0x00\n        /* \"#utility.yul\":12999:13063   */\n      tag_353\n        /* \"#utility.yul\":13057:13062   */\n      dup3\n        /* \"#utility.yul\":12999:13063   */\n      tag_174\n      jump\t// in\n    tag_353:\n        /* \"#utility.yul\":13079:13165   */\n      tag_354\n        /* \"#utility.yul\":13158:13164   */\n      dup2\n        /* \"#utility.yul\":13153:13156   */\n      dup6\n        /* \"#utility.yul\":13079:13165   */\n      tag_175\n      jump\t// in\n    tag_354:\n        /* \"#utility.yul\":13072:13165   */\n      swap4\n      pop\n        /* \"#utility.yul\":13191:13194   */\n      dup4\n        /* \"#utility.yul\":13236:13240   */\n      0x20\n        /* \"#utility.yul\":13228:13234   */\n      dup3\n        /* \"#utility.yul\":13224:13241   */\n      mul\n        /* \"#utility.yul\":13219:13222   */\n      dup6\n        /* \"#utility.yul\":13215:13242   */\n      add\n        /* \"#utility.yul\":13266:13332   */\n      tag_355\n        /* \"#utility.yul\":13326:13331   */\n      dup6\n        /* \"#utility.yul\":13266:13332   */\n      tag_176\n      jump\t// in\n    tag_355:\n        /* \"#utility.yul\":13355:13362   */\n      dup1\n        /* \"#utility.yul\":13386:13387   */\n      0x00\n        /* \"#utility.yul\":13371:13767   */\n    tag_356:\n        /* \"#utility.yul\":13396:13402   */\n      dup6\n        /* \"#utility.yul\":13393:13394   */\n      dup2\n        /* \"#utility.yul\":13390:13403   */\n      lt\n        /* \"#utility.yul\":13371:13767   */\n      iszero\n      tag_358\n      jumpi\n        /* \"#utility.yul\":13467:13476   */\n      dup5\n        /* \"#utility.yul\":13461:13465   */\n      dup5\n        /* \"#utility.yul\":13457:13477   */\n      sub\n        /* \"#utility.yul\":13452:13455   */\n      dup10\n        /* \"#utility.yul\":13445:13478   */\n      mstore\n        /* \"#utility.yul\":13518:13524   */\n      dup2\n        /* \"#utility.yul\":13512:13525   */\n      mload\n        /* \"#utility.yul\":13546:13630   */\n      tag_359\n        /* \"#utility.yul\":13625:13629   */\n      dup6\n        /* \"#utility.yul\":13610:13623   */\n      dup3\n        /* \"#utility.yul\":13546:13630   */\n      tag_177\n      jump\t// in\n    tag_359:\n        /* \"#utility.yul\":13538:13630   */\n      swap5\n      pop\n        /* \"#utility.yul\":13653:13723   */\n      tag_360\n        /* \"#utility.yul\":13716:13722   */\n      dup4\n        /* \"#utility.yul\":13653:13723   */\n      tag_178\n      jump\t// in\n    tag_360:\n        /* \"#utility.yul\":13643:13723   */\n      swap3\n      pop\n        /* \"#utility.yul\":13752:13756   */\n      0x20\n        /* \"#utility.yul\":13747:13750   */\n      dup11\n        /* \"#utility.yul\":13743:13757   */\n      add\n        /* \"#utility.yul\":13736:13757   */\n      swap10\n      pop\n        /* \"#utility.yul\":13431:13767   */\n      pop\n        /* \"#utility.yul\":13418:13419   */\n      0x01\n        /* \"#utility.yul\":13415:13416   */\n      dup2\n        /* \"#utility.yul\":13411:13420   */\n      add\n        /* \"#utility.yul\":13406:13420   */\n      swap1\n      pop\n        /* \"#utility.yul\":13371:13767   */\n      jump(tag_356)\n    tag_358:\n        /* \"#utility.yul\":13375:13389   */\n      pop\n        /* \"#utility.yul\":13783:13787   */\n      dup3\n        /* \"#utility.yul\":13776:13787   */\n      swap8\n      pop\n        /* \"#utility.yul\":13803:13806   */\n      dup8\n        /* \"#utility.yul\":13796:13806   */\n      swap6\n      pop\n        /* \"#utility.yul\":12975:13812   */\n      pop\n      pop\n      pop\n      pop\n      pop\n        /* \"#utility.yul\":12841:13812   */\n      swap3\n      swap2\n      pop\n      pop\n      jump\t// out\n        /* \"#utility.yul\":13888:14615   */\n    tag_180:\n        /* \"#utility.yul\":14005:14008   */\n      0x00\n        /* \"#utility.yul\":14041:14045   */\n      0x40\n        /* \"#utility.yul\":14036:14039   */\n      dup4\n        /* \"#utility.yul\":14032:14046   */\n      add\n        /* \"#utility.yul\":14128:14132   */\n      0x00\n        /* \"#utility.yul\":14121:14126   */\n      dup4\n        /* \"#utility.yul\":14117:14133   */\n      add\n        /* \"#utility.yul\":14111:14134   */\n      mload\n        /* \"#utility.yul\":14181:14184   */\n      dup5\n        /* \"#utility.yul\":14175:14179   */\n      dup3\n        /* \"#utility.yul\":14171:14185   */\n      sub\n        /* \"#utility.yul\":14164:14168   */\n      0x00\n        /* \"#utility.yul\":14159:14162   */\n      dup7\n        /* \"#utility.yul\":14155:14169   */\n      add\n        /* \"#utility.yul\":14148:14186   */\n      mstore\n        /* \"#utility.yul\":14207:14280   */\n      tag_362\n        /* \"#utility.yul\":14275:14279   */\n      dup3\n        /* \"#utility.yul\":14261:14273   */\n      dup3\n        /* \"#utility.yul\":14207:14280   */\n      tag_147\n      jump\t// in\n    tag_362:\n        /* \"#utility.yul\":14199:14280   */\n      swap2\n      pop\n        /* \"#utility.yul\":14056:14291   */\n      pop\n        /* \"#utility.yul\":14375:14379   */\n      0x20\n        /* \"#utility.yul\":14368:14373   */\n      dup4\n        /* \"#utility.yul\":14364:14380   */\n      add\n        /* \"#utility.yul\":14358:14381   */\n      mload\n        /* \"#utility.yul\":14428:14431   */\n      dup5\n        /* \"#utility.yul\":14422:14426   */\n      dup3\n        /* \"#utility.yul\":14418:14432   */\n      sub\n        /* \"#utility.yul\":14411:14415   */\n      0x20\n        /* \"#utility.yul\":14406:14409   */\n      dup7\n        /* \"#utility.yul\":14402:14416   */\n      add\n        /* \"#utility.yul\":14395:14433   */\n      mstore\n        /* \"#utility.yul\":14454:14577   */\n      tag_363\n        /* \"#utility.yul\":14572:14576   */\n      dup3\n        /* \"#utility.yul\":14558:14570   */\n      dup3\n        /* \"#utility.yul\":14454:14577   */\n      tag_179\n      jump\t// in\n    tag_363:\n        /* \"#utility.yul\":14446:14577   */\n      swap2\n      pop\n        /* \"#utility.yul\":14301:14588   */\n      pop\n        /* \"#utility.yul\":14605:14609   */\n      dup1\n        /* \"#utility.yul\":14598:14609   */\n      swap2\n      pop\n        /* \"#utility.yul\":14010:14615   */\n      pop\n        /* \"#utility.yul\":13888:14615   */\n      swap3\n      swap2\n      pop\n      pop\n      jump\t// out\n        /* \"#utility.yul\":14621:14893   */\n    tag_181:\n        /* \"#utility.yul\":14748:14758   */\n      0x00\n        /* \"#utility.yul\":14783:14887   */\n      tag_365\n        /* \"#utility.yul\":14883:14886   */\n      dup4\n        /* \"#utility.yul\":14875:14881   */\n      dup4\n        /* \"#utility.yul\":14783:14887   */\n      tag_180\n      jump\t// in\n    tag_365:\n        /* \"#utility.yul\":14769:14887   */\n      swap1\n      pop\n        /* \"#utility.yul\":14621:14893   */\n      swap3\n      swap2\n      pop\n      pop\n      jump\t// out\n        /* \"#utility.yul\":14899:15041   */\n    tag_182:\n        /* \"#utility.yul\":14998:15002   */\n      0x00\n        /* \"#utility.yul\":15030:15034   */\n      0x20\n        /* \"#utility.yul\":15025:15028   */\n      dup3\n        /* \"#utility.yul\":15021:15035   */\n      add\n        /* \"#utility.yul\":15013:15035   */\n      swap1\n      pop\n        /* \"#utility.yul\":14899:15041   */\n      swap2\n      swap1\n      pop\n      jump\t// out\n        /* \"#utility.yul\":15121:16244   */\n    tag_183:\n        /* \"#utility.yul\":15288:15291   */\n      0x00\n        /* \"#utility.yul\":15317:15400   */\n      tag_368\n        /* \"#utility.yul\":15394:15399   */\n      dup3\n        /* \"#utility.yul\":15317:15400   */\n      tag_171\n      jump\t// in\n    tag_368:\n        /* \"#utility.yul\":15416:15521   */\n      tag_369\n        /* \"#utility.yul\":15514:15520   */\n      dup2\n        /* \"#utility.yul\":15509:15512   */\n      dup6\n        /* \"#utility.yul\":15416:15521   */\n      tag_172\n      jump\t// in\n    tag_369:\n        /* \"#utility.yul\":15409:15521   */\n      swap4\n      pop\n        /* \"#utility.yul\":15547:15550   */\n      dup4\n        /* \"#utility.yul\":15592:15596   */\n      0x20\n        /* \"#utility.yul\":15584:15590   */\n      dup3\n        /* \"#utility.yul\":15580:15597   */\n      mul\n        /* \"#utility.yul\":15575:15578   */\n      dup6\n        /* \"#utility.yul\":15571:15598   */\n      add\n        /* \"#utility.yul\":15622:15707   */\n      tag_370\n        /* \"#utility.yul\":15701:15706   */\n      dup6\n        /* \"#utility.yul\":15622:15707   */\n      tag_173\n      jump\t// in\n    tag_370:\n        /* \"#utility.yul\":15730:15737   */\n      dup1\n        /* \"#utility.yul\":15761:15762   */\n      0x00\n        /* \"#utility.yul\":15746:16199   */\n    tag_371:\n        /* \"#utility.yul\":15771:15777   */\n      dup6\n        /* \"#utility.yul\":15768:15769   */\n      dup2\n        /* \"#utility.yul\":15765:15778   */\n      lt\n        /* \"#utility.yul\":15746:16199   */\n      iszero\n      tag_373\n      jumpi\n        /* \"#utility.yul\":15842:15851   */\n      dup5\n        /* \"#utility.yul\":15836:15840   */\n      dup5\n        /* \"#utility.yul\":15832:15852   */\n      sub\n        /* \"#utility.yul\":15827:15830   */\n      dup10\n        /* \"#utility.yul\":15820:15853   */\n      mstore\n        /* \"#utility.yul\":15893:15899   */\n      dup2\n        /* \"#utility.yul\":15887:15900   */\n      mload\n        /* \"#utility.yul\":15921:16043   */\n      tag_374\n        /* \"#utility.yul\":16038:16042   */\n      dup6\n        /* \"#utility.yul\":16023:16036   */\n      dup3\n        /* \"#utility.yul\":15921:16043   */\n      tag_181\n      jump\t// in\n    tag_374:\n        /* \"#utility.yul\":15913:16043   */\n      swap5\n      pop\n        /* \"#utility.yul\":16066:16155   */\n      tag_375\n        /* \"#utility.yul\":16148:16154   */\n      dup4\n        /* \"#utility.yul\":16066:16155   */\n      tag_182\n      jump\t// in\n    tag_375:\n        /* \"#utility.yul\":16056:16155   */\n      swap3\n      pop\n        /* \"#utility.yul\":16184:16188   */\n      0x20\n        /* \"#utility.yul\":16179:16182   */\n      dup11\n        /* \"#utility.yul\":16175:16189   */\n      add\n        /* \"#utility.yul\":16168:16189   */\n      swap10\n      pop\n        /* \"#utility.yul\":15806:16199   */\n      pop\n        /* \"#utility.yul\":15793:15794   */\n      0x01\n        /* \"#utility.yul\":15790:15791   */\n      dup2\n        /* \"#utility.yul\":15786:15795   */\n      add\n        /* \"#utility.yul\":15781:15795   */\n      swap1\n      pop\n        /* \"#utility.yul\":15746:16199   */\n      jump(tag_371)\n    tag_373:\n        /* \"#utility.yul\":15750:15764   */\n      pop\n        /* \"#utility.yul\":16215:16219   */\n      dup3\n        /* \"#utility.yul\":16208:16219   */\n      swap8\n      pop\n        /* \"#utility.yul\":16235:16238   */\n      dup8\n        /* \"#utility.yul\":16228:16238   */\n      swap6\n      pop\n        /* \"#utility.yul\":15293:16244   */\n      pop\n      pop\n      pop\n      pop\n      pop\n        /* \"#utility.yul\":15121:16244   */\n      swap3\n      swap2\n      pop\n      pop\n      jump\t// out\n        /* \"#utility.yul\":16296:17181   */\n    tag_184:\n        /* \"#utility.yul\":16409:16412   */\n      0x00\n        /* \"#utility.yul\":16445:16449   */\n      0x40\n        /* \"#utility.yul\":16440:16443   */\n      dup4\n        /* \"#utility.yul\":16436:16450   */\n      add\n        /* \"#utility.yul\":16535:16539   */\n      0x00\n        /* \"#utility.yul\":16528:16533   */\n      dup4\n        /* \"#utility.yul\":16524:16540   */\n      add\n        /* \"#utility.yul\":16518:16541   */\n      mload\n        /* \"#utility.yul\":16588:16591   */\n      dup5\n        /* \"#utility.yul\":16582:16586   */\n      dup3\n        /* \"#utility.yul\":16578:16592   */\n      sub\n        /* \"#utility.yul\":16571:16575   */\n      0x00\n        /* \"#utility.yul\":16566:16569   */\n      dup7\n        /* \"#utility.yul\":16562:16576   */\n      add\n        /* \"#utility.yul\":16555:16593   */\n      mstore\n        /* \"#utility.yul\":16614:16807   */\n      tag_377\n        /* \"#utility.yul\":16802:16806   */\n      dup3\n        /* \"#utility.yul\":16788:16800   */\n      dup3\n        /* \"#utility.yul\":16614:16807   */\n      tag_170\n      jump\t// in\n    tag_377:\n        /* \"#utility.yul\":16606:16807   */\n      swap2\n      pop\n        /* \"#utility.yul\":16460:16818   */\n      pop\n        /* \"#utility.yul\":16903:16907   */\n      0x20\n        /* \"#utility.yul\":16896:16901   */\n      dup4\n        /* \"#utility.yul\":16892:16908   */\n      add\n        /* \"#utility.yul\":16886:16909   */\n      mload\n        /* \"#utility.yul\":16956:16959   */\n      dup5\n        /* \"#utility.yul\":16950:16954   */\n      dup3\n        /* \"#utility.yul\":16946:16960   */\n      sub\n        /* \"#utility.yul\":16939:16943   */\n      0x20\n        /* \"#utility.yul\":16934:16937   */\n      dup7\n        /* \"#utility.yul\":16930:16944   */\n      add\n        /* \"#utility.yul\":16923:16961   */\n      mstore\n        /* \"#utility.yul\":16982:17143   */\n      tag_378\n        /* \"#utility.yul\":17138:17142   */\n      dup3\n        /* \"#utility.yul\":17124:17136   */\n      dup3\n        /* \"#utility.yul\":16982:17143   */\n      tag_183\n      jump\t// in\n    tag_378:\n        /* \"#utility.yul\":16974:17143   */\n      swap2\n      pop\n        /* \"#utility.yul\":16828:17154   */\n      pop\n        /* \"#utility.yul\":17171:17175   */\n      dup1\n        /* \"#utility.yul\":17164:17175   */\n      swap2\n      pop\n        /* \"#utility.yul\":16414:17181   */\n      pop\n        /* \"#utility.yul\":16296:17181   */\n      swap3\n      swap2\n      pop\n      pop\n      jump\t// out\n        /* \"#utility.yul\":17255:18191   */\n    tag_185:\n        /* \"#utility.yul\":17400:17403   */\n      0x00\n        /* \"#utility.yul\":17436:17440   */\n      0x60\n        /* \"#utility.yul\":17431:17434   */\n      dup4\n        /* \"#utility.yul\":17427:17441   */\n      add\n        /* \"#utility.yul\":17523:17527   */\n      0x00\n        /* \"#utility.yul\":17516:17521   */\n      dup4\n        /* \"#utility.yul\":17512:17528   */\n      add\n        /* \"#utility.yul\":17506:17529   */\n      mload\n        /* \"#utility.yul\":17542:17625   */\n      tag_380\n        /* \"#utility.yul\":17619:17623   */\n      0x00\n        /* \"#utility.yul\":17614:17617   */\n      dup7\n        /* \"#utility.yul\":17610:17624   */\n      add\n        /* \"#utility.yul\":17596:17608   */\n      dup3\n        /* \"#utility.yul\":17542:17625   */\n      tag_145\n      jump\t// in\n    tag_380:\n        /* \"#utility.yul\":17451:17635   */\n      pop\n        /* \"#utility.yul\":17721:17725   */\n      0x20\n        /* \"#utility.yul\":17714:17719   */\n      dup4\n        /* \"#utility.yul\":17710:17726   */\n      add\n        /* \"#utility.yul\":17704:17727   */\n      mload\n        /* \"#utility.yul\":17774:17777   */\n      dup5\n        /* \"#utility.yul\":17768:17772   */\n      dup3\n        /* \"#utility.yul\":17764:17778   */\n      sub\n        /* \"#utility.yul\":17757:17761   */\n      0x20\n        /* \"#utility.yul\":17752:17755   */\n      dup7\n        /* \"#utility.yul\":17748:17762   */\n      add\n        /* \"#utility.yul\":17741:17779   */\n      mstore\n        /* \"#utility.yul\":17800:17873   */\n      tag_381\n        /* \"#utility.yul\":17868:17872   */\n      dup3\n        /* \"#utility.yul\":17854:17866   */\n      dup3\n        /* \"#utility.yul\":17800:17873   */\n      tag_147\n      jump\t// in\n    tag_381:\n        /* \"#utility.yul\":17792:17873   */\n      swap2\n      pop\n        /* \"#utility.yul\":17645:17884   */\n      pop\n        /* \"#utility.yul\":17967:17971   */\n      0x40\n        /* \"#utility.yul\":17960:17965   */\n      dup4\n        /* \"#utility.yul\":17956:17972   */\n      add\n        /* \"#utility.yul\":17950:17973   */\n      mload\n        /* \"#utility.yul\":18020:18023   */\n      dup5\n        /* \"#utility.yul\":18014:18018   */\n      dup3\n        /* \"#utility.yul\":18010:18024   */\n      sub\n        /* \"#utility.yul\":18003:18007   */\n      0x40\n        /* \"#utility.yul\":17998:18001   */\n      dup7\n        /* \"#utility.yul\":17994:18008   */\n      add\n        /* \"#utility.yul\":17987:18025   */\n      mstore\n        /* \"#utility.yul\":18046:18153   */\n      tag_382\n        /* \"#utility.yul\":18148:18152   */\n      dup3\n        /* \"#utility.yul\":18134:18146   */\n      dup3\n        /* \"#utility.yul\":18046:18153   */\n      tag_184\n      jump\t// in\n    tag_382:\n        /* \"#utility.yul\":18038:18153   */\n      swap2\n      pop\n        /* \"#utility.yul\":17894:18164   */\n      pop\n        /* \"#utility.yul\":18181:18185   */\n      dup1\n        /* \"#utility.yul\":18174:18185   */\n      swap2\n      pop\n        /* \"#utility.yul\":17405:18191   */\n      pop\n        /* \"#utility.yul\":17255:18191   */\n      swap3\n      swap2\n      pop\n      pop\n      jump\t// out\n        /* \"#utility.yul\":18197:18622   */\n    tag_43:\n        /* \"#utility.yul\":18366:18370   */\n      0x00\n        /* \"#utility.yul\":18404:18406   */\n      0x20\n        /* \"#utility.yul\":18393:18402   */\n      dup3\n        /* \"#utility.yul\":18389:18407   */\n      add\n        /* \"#utility.yul\":18381:18407   */\n      swap1\n      pop\n        /* \"#utility.yul\":18453:18462   */\n      dup2\n        /* \"#utility.yul\":18447:18451   */\n      dup2\n        /* \"#utility.yul\":18443:18463   */\n      sub\n        /* \"#utility.yul\":18439:18440   */\n      0x00\n        /* \"#utility.yul\":18428:18437   */\n      dup4\n        /* \"#utility.yul\":18424:18441   */\n      add\n        /* \"#utility.yul\":18417:18464   */\n      mstore\n        /* \"#utility.yul\":18481:18615   */\n      tag_384\n        /* \"#utility.yul\":18610:18614   */\n      dup2\n        /* \"#utility.yul\":18601:18607   */\n      dup5\n        /* \"#utility.yul\":18481:18615   */\n      tag_185\n      jump\t// in\n    tag_384:\n        /* \"#utility.yul\":18473:18615   */\n      swap1\n      pop\n        /* \"#utility.yul\":18197:18622   */\n      swap3\n      swap2\n      pop\n      pop\n      jump\t// out\n        /* \"#utility.yul\":18628:18703   */\n    tag_186:\n        /* \"#utility.yul\":18661:18667   */\n      0x00\n        /* \"#utility.yul\":18694:18696   */\n      0x40\n        /* \"#utility.yul\":18688:18697   */\n      mload\n        /* \"#utility.yul\":18678:18697   */\n      swap1\n      pop\n        /* \"#utility.yul\":18628:18703   */\n      swap1\n      jump\t// out\n        /* \"#utility.yul\":18709:18826   */\n    tag_187:\n        /* \"#utility.yul\":18818:18819   */\n      0x00\n        /* \"#utility.yul\":18815:18816   */\n      dup1\n        /* \"#utility.yul\":18808:18820   */\n      revert\n        /* \"#utility.yul\":18832:18949   */\n    tag_188:\n        /* \"#utility.yul\":18941:18942   */\n      0x00\n        /* \"#utility.yul\":18938:18939   */\n      dup1\n        /* \"#utility.yul\":18931:18943   */\n      revert\n        /* \"#utility.yul\":18955:19072   */\n    tag_189:\n        /* \"#utility.yul\":19064:19065   */\n      0x00\n        /* \"#utility.yul\":19061:19062   */\n      dup1\n        /* \"#utility.yul\":19054:19066   */\n      revert\n        /* \"#utility.yul\":19078:19258   */\n    tag_87:\n        /* \"#utility.yul\":19126:19203   */\n      0x4e487b7100000000000000000000000000000000000000000000000000000000\n        /* \"#utility.yul\":19123:19124   */\n      0x00\n        /* \"#utility.yul\":19116:19204   */\n      mstore\n        /* \"#utility.yul\":19223:19227   */\n      0x41\n        /* \"#utility.yul\":19220:19221   */\n      0x04\n        /* \"#utility.yul\":19213:19228   */\n      mstore\n        /* \"#utility.yul\":19247:19251   */\n      0x24\n        /* \"#utility.yul\":19244:19245   */\n      0x00\n        /* \"#utility.yul\":19237:19252   */\n      revert\n        /* \"#utility.yul\":19264:19545   */\n    tag_190:\n        /* \"#utility.yul\":19347:19374   */\n      tag_391\n        /* \"#utility.yul\":19369:19373   */\n      dup3\n        /* \"#utility.yul\":19347:19374   */\n      tag_137\n      jump\t// in\n    tag_391:\n        /* \"#utility.yul\":19339:19345   */\n      dup2\n        /* \"#utility.yul\":19335:19375   */\n      add\n        /* \"#utility.yul\":19477:19483   */\n      dup2\n        /* \"#utility.yul\":19465:19475   */\n      dup2\n        /* \"#utility.yul\":19462:19484   */\n      lt\n        /* \"#utility.yul\":19441:19459   */\n      0xffffffffffffffff\n        /* \"#utility.yul\":19429:19439   */\n      dup3\n        /* \"#utility.yul\":19426:19460   */\n      gt\n        /* \"#utility.yul\":19423:19485   */\n      or\n        /* \"#utility.yul\":19420:19508   */\n      iszero\n      tag_392\n      jumpi\n        /* \"#utility.yul\":19488:19506   */\n      tag_393\n      tag_87\n      jump\t// in\n    tag_393:\n        /* \"#utility.yul\":19420:19508   */\n    tag_392:\n        /* \"#utility.yul\":19528:19538   */\n      dup1\n        /* \"#utility.yul\":19524:19526   */\n      0x40\n        /* \"#utility.yul\":19517:19539   */\n      mstore\n        /* \"#utility.yul\":19307:19545   */\n      pop\n        /* \"#utility.yul\":19264:19545   */\n      pop\n      pop\n      jump\t// out\n        /* \"#utility.yul\":19551:19680   */\n    tag_191:\n        /* \"#utility.yul\":19585:19591   */\n      0x00\n        /* \"#utility.yul\":19612:19632   */\n      tag_395\n      tag_186\n      jump\t// in\n    tag_395:\n        /* \"#utility.yul\":19602:19632   */\n      swap1\n      pop\n        /* \"#utility.yul\":19641:19674   */\n      tag_396\n        /* \"#utility.yul\":19669:19673   */\n      dup3\n        /* \"#utility.yul\":19661:19667   */\n      dup3\n        /* \"#utility.yul\":19641:19674   */\n      tag_190\n      jump\t// in\n    tag_396:\n        /* \"#utility.yul\":19551:19680   */\n      swap2\n      swap1\n      pop\n      jump\t// out\n        /* \"#utility.yul\":19686:19803   */\n    tag_192:\n        /* \"#utility.yul\":19795:19796   */\n      0x00\n        /* \"#utility.yul\":19792:19793   */\n      dup1\n        /* \"#utility.yul\":19785:19797   */\n      revert\n        /* \"#utility.yul\":19809:19926   */\n    tag_193:\n        /* \"#utility.yul\":19918:19919   */\n      0x00\n        /* \"#utility.yul\":19915:19916   */\n      dup1\n        /* \"#utility.yul\":19908:19920   */\n      revert\n        /* \"#utility.yul\":19932:20288   */\n    tag_194:\n        /* \"#utility.yul\":20054:20058   */\n      0x00\n        /* \"#utility.yul\":20144:20162   */\n      0xffffffffffffffff\n        /* \"#utility.yul\":20136:20142   */\n      dup3\n        /* \"#utility.yul\":20133:20163   */\n      gt\n        /* \"#utility.yul\":20130:20186   */\n      iszero\n      tag_400\n      jumpi\n        /* \"#utility.yul\":20166:20184   */\n      tag_401\n      tag_87\n      jump\t// in\n    tag_401:\n        /* \"#utility.yul\":20130:20186   */\n    tag_400:\n        /* \"#utility.yul\":20216:20220   */\n      0x20\n        /* \"#utility.yul\":20208:20214   */\n      dup3\n        /* \"#utility.yul\":20204:20221   */\n      mul\n        /* \"#utility.yul\":20196:20221   */\n      swap1\n      pop\n        /* \"#utility.yul\":20276:20280   */\n      0x20\n        /* \"#utility.yul\":20270:20274   */\n      dup2\n        /* \"#utility.yul\":20266:20281   */\n      add\n        /* \"#utility.yul\":20258:20281   */\n      swap1\n      pop\n        /* \"#utility.yul\":19932:20288   */\n      swap2\n      swap1\n      pop\n      jump\t// out\n        /* \"#utility.yul\":20294:20411   */\n    tag_195:\n        /* \"#utility.yul\":20403:20404   */\n      0x00\n        /* \"#utility.yul\":20400:20401   */\n      dup1\n        /* \"#utility.yul\":20393:20405   */\n      revert\n        /* \"#utility.yul\":20417:20534   */\n    tag_196:\n        /* \"#utility.yul\":20526:20527   */\n      0x00\n        /* \"#utility.yul\":20523:20524   */\n      dup1\n        /* \"#utility.yul\":20516:20528   */\n      revert\n        /* \"#utility.yul\":20540:20848   */\n    tag_197:\n        /* \"#utility.yul\":20602:20606   */\n      0x00\n        /* \"#utility.yul\":20692:20710   */\n      0xffffffffffffffff\n        /* \"#utility.yul\":20684:20690   */\n      dup3\n        /* \"#utility.yul\":20681:20711   */\n      gt\n        /* \"#utility.yul\":20678:20734   */\n      iszero\n      tag_405\n      jumpi\n        /* \"#utility.yul\":20714:20732   */\n      tag_406\n      tag_87\n      jump\t// in\n    tag_406:\n        /* \"#utility.yul\":20678:20734   */\n    tag_405:\n        /* \"#utility.yul\":20752:20781   */\n      tag_407\n        /* \"#utility.yul\":20774:20780   */\n      dup3\n        /* \"#utility.yul\":20752:20781   */\n      tag_137\n      jump\t// in\n    tag_407:\n        /* \"#utility.yul\":20744:20781   */\n      swap1\n      pop\n        /* \"#utility.yul\":20836:20840   */\n      0x20\n        /* \"#utility.yul\":20830:20834   */\n      dup2\n        /* \"#utility.yul\":20826:20841   */\n      add\n        /* \"#utility.yul\":20818:20841   */\n      swap1\n      pop\n        /* \"#utility.yul\":20540:20848   */\n      swap2\n      swap1\n      pop\n      jump\t// out\n        /* \"#utility.yul\":20854:21288   */\n    tag_198:\n        /* \"#utility.yul\":20943:20948   */\n      0x00\n        /* \"#utility.yul\":20968:21034   */\n      tag_409\n        /* \"#utility.yul\":20984:21033   */\n      tag_410\n        /* \"#utility.yul\":21026:21032   */\n      dup5\n        /* \"#utility.yul\":20984:21033   */\n      tag_197\n      jump\t// in\n    tag_410:\n        /* \"#utility.yul\":20968:21034   */\n      tag_191\n      jump\t// in\n    tag_409:\n        /* \"#utility.yul\":20959:21034   */\n      swap1\n      pop\n        /* \"#utility.yul\":21057:21063   */\n      dup3\n        /* \"#utility.yul\":21050:21055   */\n      dup2\n        /* \"#utility.yul\":21043:21064   */\n      mstore\n        /* \"#utility.yul\":21095:21099   */\n      0x20\n        /* \"#utility.yul\":21088:21093   */\n      dup2\n        /* \"#utility.yul\":21084:21100   */\n      add\n        /* \"#utility.yul\":21133:21136   */\n      dup5\n        /* \"#utility.yul\":21124:21130   */\n      dup5\n        /* \"#utility.yul\":21119:21122   */\n      dup5\n        /* \"#utility.yul\":21115:21131   */\n      add\n        /* \"#utility.yul\":21112:21137   */\n      gt\n        /* \"#utility.yul\":21109:21221   */\n      iszero\n      tag_411\n      jumpi\n        /* \"#utility.yul\":21140:21219   */\n      tag_412\n      tag_196\n      jump\t// in\n    tag_412:\n        /* \"#utility.yul\":21109:21221   */\n    tag_411:\n        /* \"#utility.yul\":21230:21282   */\n      tag_413\n        /* \"#utility.yul\":21275:21281   */\n      dup5\n        /* \"#utility.yul\":21270:21273   */\n      dup3\n        /* \"#utility.yul\":21265:21268   */\n      dup6\n        /* \"#utility.yul\":21230:21282   */\n      tag_136\n      jump\t// in\n    tag_413:\n        /* \"#utility.yul\":20949:21288   */\n      pop\n        /* \"#utility.yul\":20854:21288   */\n      swap4\n      swap3\n      pop\n      pop\n      pop\n      jump\t// out\n        /* \"#utility.yul\":21308:21663   */\n    tag_199:\n        /* \"#utility.yul\":21375:21380   */\n      0x00\n        /* \"#utility.yul\":21424:21427   */\n      dup3\n        /* \"#utility.yul\":21417:21421   */\n      0x1f\n        /* \"#utility.yul\":21409:21415   */\n      dup4\n        /* \"#utility.yul\":21405:21422   */\n      add\n        /* \"#utility.yul\":21401:21428   */\n      slt\n        /* \"#utility.yul\":21391:21513   */\n      tag_415\n      jumpi\n        /* \"#utility.yul\":21432:21511   */\n      tag_416\n      tag_193\n      jump\t// in\n    tag_416:\n        /* \"#utility.yul\":21391:21513   */\n    tag_415:\n        /* \"#utility.yul\":21542:21548   */\n      dup2\n        /* \"#utility.yul\":21536:21549   */\n      mload\n        /* \"#utility.yul\":21567:21657   */\n      tag_417\n        /* \"#utility.yul\":21653:21656   */\n      dup5\n        /* \"#utility.yul\":21645:21651   */\n      dup3\n        /* \"#utility.yul\":21638:21642   */\n      0x20\n        /* \"#utility.yul\":21630:21636   */\n      dup7\n        /* \"#utility.yul\":21626:21643   */\n      add\n        /* \"#utility.yul\":21567:21657   */\n      tag_198\n      jump\t// in\n    tag_417:\n        /* \"#utility.yul\":21558:21657   */\n      swap2\n      pop\n        /* \"#utility.yul\":21381:21663   */\n      pop\n        /* \"#utility.yul\":21308:21663   */\n      swap3\n      swap2\n      pop\n      pop\n      jump\t// out\n        /* \"#utility.yul\":21669:22003   */\n    tag_200:\n        /* \"#utility.yul\":21769:21773   */\n      0x00\n        /* \"#utility.yul\":21859:21877   */\n      0xffffffffffffffff\n        /* \"#utility.yul\":21851:21857   */\n      dup3\n        /* \"#utility.yul\":21848:21878   */\n      gt\n        /* \"#utility.yul\":21845:21901   */\n      iszero\n      tag_419\n      jumpi\n        /* \"#utility.yul\":21881:21899   */\n      tag_420\n      tag_87\n      jump\t// in\n    tag_420:\n        /* \"#utility.yul\":21845:21901   */\n    tag_419:\n        /* \"#utility.yul\":21931:21935   */\n      0x20\n        /* \"#utility.yul\":21923:21929   */\n      dup3\n        /* \"#utility.yul\":21919:21936   */\n      mul\n        /* \"#utility.yul\":21911:21936   */\n      swap1\n      pop\n        /* \"#utility.yul\":21991:21995   */\n      0x20\n        /* \"#utility.yul\":21985:21989   */\n      dup2\n        /* \"#utility.yul\":21981:21996   */\n      add\n        /* \"#utility.yul\":21973:21996   */\n      swap1\n      pop\n        /* \"#utility.yul\":21669:22003   */\n      swap2\n      swap1\n      pop\n      jump\t// out\n        /* \"#utility.yul\":22009:22129   */\n    tag_201:\n        /* \"#utility.yul\":22081:22104   */\n      tag_422\n        /* \"#utility.yul\":22098:22103   */\n      dup2\n        /* \"#utility.yul\":22081:22104   */\n      tag_139\n      jump\t// in\n    tag_422:\n        /* \"#utility.yul\":22074:22079   */\n      dup2\n        /* \"#utility.yul\":22071:22105   */\n      eq\n        /* \"#utility.yul\":22061:22123   */\n      tag_423\n      jumpi\n        /* \"#utility.yul\":22119:22120   */\n      0x00\n        /* \"#utility.yul\":22116:22117   */\n      dup1\n        /* \"#utility.yul\":22109:22121   */\n      revert\n        /* \"#utility.yul\":22061:22123   */\n    tag_423:\n        /* \"#utility.yul\":22009:22129   */\n      pop\n      jump\t// out\n        /* \"#utility.yul\":22135:22276   */\n    tag_202:\n        /* \"#utility.yul\":22191:22196   */\n      0x00\n        /* \"#utility.yul\":22222:22228   */\n      dup2\n        /* \"#utility.yul\":22216:22229   */\n      mload\n        /* \"#utility.yul\":22207:22229   */\n      swap1\n      pop\n        /* \"#utility.yul\":22238:22270   */\n      tag_425\n        /* \"#utility.yul\":22264:22269   */\n      dup2\n        /* \"#utility.yul\":22238:22270   */\n      tag_201\n      jump\t// in\n    tag_425:\n        /* \"#utility.yul\":22135:22276   */\n      swap3\n      swap2\n      pop\n      pop\n      jump\t// out\n        /* \"#utility.yul\":22313:22921   */\n    tag_203:\n        /* \"#utility.yul\":22396:22401   */\n      0x00\n        /* \"#utility.yul\":22440:22444   */\n      0x40\n        /* \"#utility.yul\":22428:22437   */\n      dup3\n        /* \"#utility.yul\":22423:22426   */\n      dup5\n        /* \"#utility.yul\":22419:22438   */\n      sub\n        /* \"#utility.yul\":22415:22445   */\n      slt\n        /* \"#utility.yul\":22412:22529   */\n      iszero\n      tag_427\n      jumpi\n        /* \"#utility.yul\":22448:22527   */\n      tag_428\n      tag_189\n      jump\t// in\n    tag_428:\n        /* \"#utility.yul\":22412:22529   */\n    tag_427:\n        /* \"#utility.yul\":22547:22568   */\n      tag_429\n        /* \"#utility.yul\":22563:22567   */\n      0x40\n        /* \"#utility.yul\":22547:22568   */\n      tag_191\n      jump\t// in\n    tag_429:\n        /* \"#utility.yul\":22538:22568   */\n      swap1\n      pop\n        /* \"#utility.yul\":22628:22629   */\n      0x00\n        /* \"#utility.yul\":22668:22727   */\n      tag_430\n        /* \"#utility.yul\":22723:22726   */\n      dup5\n        /* \"#utility.yul\":22714:22720   */\n      dup3\n        /* \"#utility.yul\":22703:22712   */\n      dup6\n        /* \"#utility.yul\":22699:22721   */\n      add\n        /* \"#utility.yul\":22668:22727   */\n      tag_202\n      jump\t// in\n    tag_430:\n        /* \"#utility.yul\":22661:22665   */\n      0x00\n        /* \"#utility.yul\":22654:22659   */\n      dup4\n        /* \"#utility.yul\":22650:22666   */\n      add\n        /* \"#utility.yul\":22643:22728   */\n      mstore\n        /* \"#utility.yul\":22578:22739   */\n      pop\n        /* \"#utility.yul\":22802:22804   */\n      0x20\n        /* \"#utility.yul\":22843:22902   */\n      tag_431\n        /* \"#utility.yul\":22898:22901   */\n      dup5\n        /* \"#utility.yul\":22889:22895   */\n      dup3\n        /* \"#utility.yul\":22878:22887   */\n      dup6\n        /* \"#utility.yul\":22874:22896   */\n      add\n        /* \"#utility.yul\":22843:22902   */\n      tag_202\n      jump\t// in\n    tag_431:\n        /* \"#utility.yul\":22836:22840   */\n      0x20\n        /* \"#utility.yul\":22829:22834   */\n      dup4\n        /* \"#utility.yul\":22825:22841   */\n      add\n        /* \"#utility.yul\":22818:22903   */\n      mstore\n        /* \"#utility.yul\":22749:22914   */\n      pop\n        /* \"#utility.yul\":22313:22921   */\n      swap3\n      swap2\n      pop\n      pop\n      jump\t// out\n        /* \"#utility.yul\":22960:23761   */\n    tag_204:\n        /* \"#utility.yul\":23090:23095   */\n      0x00\n        /* \"#utility.yul\":23115:23219   */\n      tag_433\n        /* \"#utility.yul\":23131:23218   */\n      tag_434\n        /* \"#utility.yul\":23211:23217   */\n      dup5\n        /* \"#utility.yul\":23131:23218   */\n      tag_200\n      jump\t// in\n    tag_434:\n        /* \"#utility.yul\":23115:23219   */\n      tag_191\n      jump\t// in\n    tag_433:\n        /* \"#utility.yul\":23106:23219   */\n      swap1\n      pop\n        /* \"#utility.yul\":23239:23244   */\n      dup1\n        /* \"#utility.yul\":23268:23274   */\n      dup4\n        /* \"#utility.yul\":23261:23266   */\n      dup3\n        /* \"#utility.yul\":23254:23275   */\n      mstore\n        /* \"#utility.yul\":23302:23306   */\n      0x20\n        /* \"#utility.yul\":23295:23300   */\n      dup3\n        /* \"#utility.yul\":23291:23307   */\n      add\n        /* \"#utility.yul\":23284:23307   */\n      swap1\n      pop\n        /* \"#utility.yul\":23355:23359   */\n      0x40\n        /* \"#utility.yul\":23347:23353   */\n      dup5\n        /* \"#utility.yul\":23343:23360   */\n      mul\n        /* \"#utility.yul\":23335:23341   */\n      dup4\n        /* \"#utility.yul\":23331:23361   */\n      add\n        /* \"#utility.yul\":23384:23387   */\n      dup6\n        /* \"#utility.yul\":23376:23382   */\n      dup2\n        /* \"#utility.yul\":23373:23388   */\n      gt\n        /* \"#utility.yul\":23370:23492   */\n      iszero\n      tag_435\n      jumpi\n        /* \"#utility.yul\":23403:23482   */\n      tag_436\n      tag_195\n      jump\t// in\n    tag_436:\n        /* \"#utility.yul\":23370:23492   */\n    tag_435:\n        /* \"#utility.yul\":23518:23524   */\n      dup4\n        /* \"#utility.yul\":23501:23755   */\n    tag_437:\n        /* \"#utility.yul\":23535:23541   */\n      dup2\n        /* \"#utility.yul\":23530:23533   */\n      dup2\n        /* \"#utility.yul\":23527:23542   */\n      lt\n        /* \"#utility.yul\":23501:23755   */\n      iszero\n      tag_439\n      jumpi\n        /* \"#utility.yul\":23610:23613   */\n      dup1\n        /* \"#utility.yul\":23639:23710   */\n      tag_440\n        /* \"#utility.yul\":23706:23709   */\n      dup9\n        /* \"#utility.yul\":23694:23704   */\n      dup3\n        /* \"#utility.yul\":23639:23710   */\n      tag_203\n      jump\t// in\n    tag_440:\n        /* \"#utility.yul\":23634:23637   */\n      dup5\n        /* \"#utility.yul\":23627:23711   */\n      mstore\n        /* \"#utility.yul\":23740:23744   */\n      0x20\n        /* \"#utility.yul\":23735:23738   */\n      dup5\n        /* \"#utility.yul\":23731:23745   */\n      add\n        /* \"#utility.yul\":23724:23745   */\n      swap4\n      pop\n        /* \"#utility.yul\":23577:23755   */\n      pop\n        /* \"#utility.yul\":23561:23565   */\n      0x40\n        /* \"#utility.yul\":23556:23559   */\n      dup2\n        /* \"#utility.yul\":23552:23566   */\n      add\n        /* \"#utility.yul\":23545:23566   */\n      swap1\n      pop\n        /* \"#utility.yul\":23501:23755   */\n      jump(tag_437)\n    tag_439:\n        /* \"#utility.yul\":23505:23526   */\n      pop\n        /* \"#utility.yul\":23096:23761   */\n      pop\n      pop\n        /* \"#utility.yul\":22960:23761   */\n      swap4\n      swap3\n      pop\n      pop\n      pop\n      jump\t// out\n        /* \"#utility.yul\":23800:24231   */\n    tag_205:\n        /* \"#utility.yul\":23905:23910   */\n      0x00\n        /* \"#utility.yul\":23954:23957   */\n      dup3\n        /* \"#utility.yul\":23947:23951   */\n      0x1f\n        /* \"#utility.yul\":23939:23945   */\n      dup4\n        /* \"#utility.yul\":23935:23952   */\n      add\n        /* \"#utility.yul\":23931:23958   */\n      slt\n        /* \"#utility.yul\":23921:24043   */\n      tag_442\n      jumpi\n        /* \"#utility.yul\":23962:24041   */\n      tag_443\n      tag_193\n      jump\t// in\n    tag_443:\n        /* \"#utility.yul\":23921:24043   */\n    tag_442:\n        /* \"#utility.yul\":24072:24078   */\n      dup2\n        /* \"#utility.yul\":24066:24079   */\n      mload\n        /* \"#utility.yul\":24097:24225   */\n      tag_444\n        /* \"#utility.yul\":24221:24224   */\n      dup5\n        /* \"#utility.yul\":24213:24219   */\n      dup3\n        /* \"#utility.yul\":24206:24210   */\n      0x20\n        /* \"#utility.yul\":24198:24204   */\n      dup7\n        /* \"#utility.yul\":24194:24211   */\n      add\n        /* \"#utility.yul\":24097:24225   */\n      tag_204\n      jump\t// in\n    tag_444:\n        /* \"#utility.yul\":24088:24225   */\n      swap2\n      pop\n        /* \"#utility.yul\":23911:24231   */\n      pop\n        /* \"#utility.yul\":23800:24231   */\n      swap3\n      swap2\n      pop\n      pop\n      jump\t// out\n        /* \"#utility.yul\":24237:24547   */\n    tag_206:\n        /* \"#utility.yul\":24313:24317   */\n      0x00\n        /* \"#utility.yul\":24403:24421   */\n      0xffffffffffffffff\n        /* \"#utility.yul\":24395:24401   */\n      dup3\n        /* \"#utility.yul\":24392:24422   */\n      gt\n        /* \"#utility.yul\":24389:24445   */\n      iszero\n      tag_446\n      jumpi\n        /* \"#utility.yul\":24425:24443   */\n      tag_447\n      tag_87\n      jump\t// in\n    tag_447:\n        /* \"#utility.yul\":24389:24445   */\n    tag_446:\n        /* \"#utility.yul\":24475:24479   */\n      0x20\n        /* \"#utility.yul\":24467:24473   */\n      dup3\n        /* \"#utility.yul\":24463:24480   */\n      mul\n        /* \"#utility.yul\":24455:24480   */\n      swap1\n      pop\n        /* \"#utility.yul\":24535:24539   */\n      0x20\n        /* \"#utility.yul\":24529:24533   */\n      dup2\n        /* \"#utility.yul\":24525:24540   */\n      add\n        /* \"#utility.yul\":24517:24540   */\n      swap1\n      pop\n        /* \"#utility.yul\":24237:24547   */\n      swap2\n      swap1\n      pop\n      jump\t// out\n        /* \"#utility.yul\":24553:24673   */\n    tag_207:\n        /* \"#utility.yul\":24625:24648   */\n      tag_449\n        /* \"#utility.yul\":24642:24647   */\n      dup2\n        /* \"#utility.yul\":24625:24648   */\n      tag_162\n      jump\t// in\n    tag_449:\n        /* \"#utility.yul\":24618:24623   */\n      dup2\n        /* \"#utility.yul\":24615:24649   */\n      eq\n        /* \"#utility.yul\":24605:24667   */\n      tag_450\n      jumpi\n        /* \"#utility.yul\":24663:24664   */\n      0x00\n        /* \"#utility.yul\":24660:24661   */\n      dup1\n        /* \"#utility.yul\":24653:24665   */\n      revert\n        /* \"#utility.yul\":24605:24667   */\n    tag_450:\n        /* \"#utility.yul\":24553:24673   */\n      pop\n      jump\t// out\n        /* \"#utility.yul\":24679:24820   */\n    tag_208:\n        /* \"#utility.yul\":24735:24740   */\n      0x00\n        /* \"#utility.yul\":24766:24772   */\n      dup2\n        /* \"#utility.yul\":24760:24773   */\n      mload\n        /* \"#utility.yul\":24751:24773   */\n      swap1\n      pop\n        /* \"#utility.yul\":24782:24814   */\n      tag_452\n        /* \"#utility.yul\":24808:24813   */\n      dup2\n        /* \"#utility.yul\":24782:24814   */\n      tag_207\n      jump\t// in\n    tag_452:\n        /* \"#utility.yul\":24679:24820   */\n      swap3\n      swap2\n      pop\n      pop\n      jump\t// out\n        /* \"#utility.yul\":24842:25571   */\n    tag_209:\n        /* \"#utility.yul\":24948:24953   */\n      0x00\n        /* \"#utility.yul\":24973:25053   */\n      tag_454\n        /* \"#utility.yul\":24989:25052   */\n      tag_455\n        /* \"#utility.yul\":25045:25051   */\n      dup5\n        /* \"#utility.yul\":24989:25052   */\n      tag_206\n      jump\t// in\n    tag_455:\n        /* \"#utility.yul\":24973:25053   */\n      tag_191\n      jump\t// in\n    tag_454:\n        /* \"#utility.yul\":24964:25053   */\n      swap1\n      pop\n        /* \"#utility.yul\":25073:25078   */\n      dup1\n        /* \"#utility.yul\":25102:25108   */\n      dup4\n        /* \"#utility.yul\":25095:25100   */\n      dup3\n        /* \"#utility.yul\":25088:25109   */\n      mstore\n        /* \"#utility.yul\":25136:25140   */\n      0x20\n        /* \"#utility.yul\":25129:25134   */\n      dup3\n        /* \"#utility.yul\":25125:25141   */\n      add\n        /* \"#utility.yul\":25118:25141   */\n      swap1\n      pop\n        /* \"#utility.yul\":25189:25193   */\n      0x20\n        /* \"#utility.yul\":25181:25187   */\n      dup5\n        /* \"#utility.yul\":25177:25194   */\n      mul\n        /* \"#utility.yul\":25169:25175   */\n      dup4\n        /* \"#utility.yul\":25165:25195   */\n      add\n        /* \"#utility.yul\":25218:25221   */\n      dup6\n        /* \"#utility.yul\":25210:25216   */\n      dup2\n        /* \"#utility.yul\":25207:25222   */\n      gt\n        /* \"#utility.yul\":25204:25326   */\n      iszero\n      tag_456\n      jumpi\n        /* \"#utility.yul\":25237:25316   */\n      tag_457\n      tag_195\n      jump\t// in\n    tag_457:\n        /* \"#utility.yul\":25204:25326   */\n    tag_456:\n        /* \"#utility.yul\":25352:25358   */\n      dup4\n        /* \"#utility.yul\":25335:25565   */\n    tag_458:\n        /* \"#utility.yul\":25369:25375   */\n      dup2\n        /* \"#utility.yul\":25364:25367   */\n      dup2\n        /* \"#utility.yul\":25361:25376   */\n      lt\n        /* \"#utility.yul\":25335:25565   */\n      iszero\n      tag_460\n      jumpi\n        /* \"#utility.yul\":25444:25447   */\n      dup1\n        /* \"#utility.yul\":25473:25520   */\n      tag_461\n        /* \"#utility.yul\":25516:25519   */\n      dup9\n        /* \"#utility.yul\":25504:25514   */\n      dup3\n        /* \"#utility.yul\":25473:25520   */\n      tag_208\n      jump\t// in\n    tag_461:\n        /* \"#utility.yul\":25468:25471   */\n      dup5\n        /* \"#utility.yul\":25461:25521   */\n      mstore\n        /* \"#utility.yul\":25550:25554   */\n      0x20\n        /* \"#utility.yul\":25545:25548   */\n      dup5\n        /* \"#utility.yul\":25541:25555   */\n      add\n        /* \"#utility.yul\":25534:25555   */\n      swap4\n      pop\n        /* \"#utility.yul\":25411:25565   */\n      pop\n        /* \"#utility.yul\":25395:25399   */\n      0x20\n        /* \"#utility.yul\":25390:25393   */\n      dup2\n        /* \"#utility.yul\":25386:25400   */\n      add\n        /* \"#utility.yul\":25379:25400   */\n      swap1\n      pop\n        /* \"#utility.yul\":25335:25565   */\n      jump(tag_458)\n    tag_460:\n        /* \"#utility.yul\":25339:25360   */\n      pop\n        /* \"#utility.yul\":24954:25571   */\n      pop\n      pop\n        /* \"#utility.yul\":24842:25571   */\n      swap4\n      swap3\n      pop\n      pop\n      pop\n      jump\t// out\n        /* \"#utility.yul\":25593:25976   */\n    tag_210:\n        /* \"#utility.yul\":25674:25679   */\n      0x00\n        /* \"#utility.yul\":25723:25726   */\n      dup3\n        /* \"#utility.yul\":25716:25720   */\n      0x1f\n        /* \"#utility.yul\":25708:25714   */\n      dup4\n        /* \"#utility.yul\":25704:25721   */\n      add\n        /* \"#utility.yul\":25700:25727   */\n      slt\n        /* \"#utility.yul\":25690:25812   */\n      tag_463\n      jumpi\n        /* \"#utility.yul\":25731:25810   */\n      tag_464\n      tag_193\n      jump\t// in\n    tag_464:\n        /* \"#utility.yul\":25690:25812   */\n    tag_463:\n        /* \"#utility.yul\":25841:25847   */\n      dup2\n        /* \"#utility.yul\":25835:25848   */\n      mload\n        /* \"#utility.yul\":25866:25970   */\n      tag_465\n        /* \"#utility.yul\":25966:25969   */\n      dup5\n        /* \"#utility.yul\":25958:25964   */\n      dup3\n        /* \"#utility.yul\":25951:25955   */\n      0x20\n        /* \"#utility.yul\":25943:25949   */\n      dup7\n        /* \"#utility.yul\":25939:25956   */\n      add\n        /* \"#utility.yul\":25866:25970   */\n      tag_209\n      jump\t// in\n    tag_465:\n        /* \"#utility.yul\":25857:25970   */\n      swap2\n      pop\n        /* \"#utility.yul\":25680:25976   */\n      pop\n        /* \"#utility.yul\":25593:25976   */\n      swap3\n      swap2\n      pop\n      pop\n      jump\t// out\n        /* \"#utility.yul\":26035:27378   */\n    tag_211:\n        /* \"#utility.yul\":26140:26145   */\n      0x00\n        /* \"#utility.yul\":26184:26188   */\n      0x60\n        /* \"#utility.yul\":26172:26181   */\n      dup3\n        /* \"#utility.yul\":26167:26170   */\n      dup5\n        /* \"#utility.yul\":26163:26182   */\n      sub\n        /* \"#utility.yul\":26159:26189   */\n      slt\n        /* \"#utility.yul\":26156:26273   */\n      iszero\n      tag_467\n      jumpi\n        /* \"#utility.yul\":26192:26271   */\n      tag_468\n      tag_189\n      jump\t// in\n    tag_468:\n        /* \"#utility.yul\":26156:26273   */\n    tag_467:\n        /* \"#utility.yul\":26291:26312   */\n      tag_469\n        /* \"#utility.yul\":26307:26311   */\n      0x60\n        /* \"#utility.yul\":26291:26312   */\n      tag_191\n      jump\t// in\n    tag_469:\n        /* \"#utility.yul\":26282:26312   */\n      swap1\n      pop\n        /* \"#utility.yul\":26392:26393   */\n      0x00\n        /* \"#utility.yul\":26381:26390   */\n      dup3\n        /* \"#utility.yul\":26377:26394   */\n      add\n        /* \"#utility.yul\":26371:26395   */\n      mload\n        /* \"#utility.yul\":26422:26440   */\n      0xffffffffffffffff\n        /* \"#utility.yul\":26414:26420   */\n      dup2\n        /* \"#utility.yul\":26411:26441   */\n      gt\n        /* \"#utility.yul\":26408:26525   */\n      iszero\n      tag_470\n      jumpi\n        /* \"#utility.yul\":26444:26523   */\n      tag_471\n      tag_192\n      jump\t// in\n    tag_471:\n        /* \"#utility.yul\":26408:26525   */\n    tag_470:\n        /* \"#utility.yul\":26564:26634   */\n      tag_472\n        /* \"#utility.yul\":26630:26633   */\n      dup5\n        /* \"#utility.yul\":26621:26627   */\n      dup3\n        /* \"#utility.yul\":26610:26619   */\n      dup6\n        /* \"#utility.yul\":26606:26628   */\n      add\n        /* \"#utility.yul\":26564:26634   */\n      tag_199\n      jump\t// in\n    tag_472:\n        /* \"#utility.yul\":26557:26561   */\n      0x00\n        /* \"#utility.yul\":26550:26555   */\n      dup4\n        /* \"#utility.yul\":26546:26562   */\n      add\n        /* \"#utility.yul\":26539:26635   */\n      mstore\n        /* \"#utility.yul\":26322:26646   */\n      pop\n        /* \"#utility.yul\":26728:26730   */\n      0x20\n        /* \"#utility.yul\":26717:26726   */\n      dup3\n        /* \"#utility.yul\":26713:26731   */\n      add\n        /* \"#utility.yul\":26707:26732   */\n      mload\n        /* \"#utility.yul\":26759:26777   */\n      0xffffffffffffffff\n        /* \"#utility.yul\":26751:26757   */\n      dup2\n        /* \"#utility.yul\":26748:26778   */\n      gt\n        /* \"#utility.yul\":26745:26862   */\n      iszero\n      tag_473\n      jumpi\n        /* \"#utility.yul\":26781:26860   */\n      tag_474\n      tag_192\n      jump\t// in\n    tag_474:\n        /* \"#utility.yul\":26745:26862   */\n    tag_473:\n        /* \"#utility.yul\":26901:27009   */\n      tag_475\n        /* \"#utility.yul\":27005:27008   */\n      dup5\n        /* \"#utility.yul\":26996:27002   */\n      dup3\n        /* \"#utility.yul\":26985:26994   */\n      dup6\n        /* \"#utility.yul\":26981:27003   */\n      add\n        /* \"#utility.yul\":26901:27009   */\n      tag_205\n      jump\t// in\n    tag_475:\n        /* \"#utility.yul\":26894:26898   */\n      0x20\n        /* \"#utility.yul\":26887:26892   */\n      dup4\n        /* \"#utility.yul\":26883:26899   */\n      add\n        /* \"#utility.yul\":26876:27010   */\n      mstore\n        /* \"#utility.yul\":26656:27021   */\n      pop\n        /* \"#utility.yul\":27102:27104   */\n      0x40\n        /* \"#utility.yul\":27091:27100   */\n      dup3\n        /* \"#utility.yul\":27087:27105   */\n      add\n        /* \"#utility.yul\":27081:27106   */\n      mload\n        /* \"#utility.yul\":27133:27151   */\n      0xffffffffffffffff\n        /* \"#utility.yul\":27125:27131   */\n      dup2\n        /* \"#utility.yul\":27122:27152   */\n      gt\n        /* \"#utility.yul\":27119:27236   */\n      iszero\n      tag_476\n      jumpi\n        /* \"#utility.yul\":27155:27234   */\n      tag_477\n      tag_192\n      jump\t// in\n    tag_477:\n        /* \"#utility.yul\":27119:27236   */\n    tag_476:\n        /* \"#utility.yul\":27275:27359   */\n      tag_478\n        /* \"#utility.yul\":27355:27358   */\n      dup5\n        /* \"#utility.yul\":27346:27352   */\n      dup3\n        /* \"#utility.yul\":27335:27344   */\n      dup6\n        /* \"#utility.yul\":27331:27353   */\n      add\n        /* \"#utility.yul\":27275:27359   */\n      tag_210\n      jump\t// in\n    tag_478:\n        /* \"#utility.yul\":27268:27272   */\n      0x40\n        /* \"#utility.yul\":27261:27266   */\n      dup4\n        /* \"#utility.yul\":27257:27273   */\n      add\n        /* \"#utility.yul\":27250:27360   */\n      mstore\n        /* \"#utility.yul\":27031:27371   */\n      pop\n        /* \"#utility.yul\":26035:27378   */\n      swap3\n      swap2\n      pop\n      pop\n      jump\t// out\n        /* \"#utility.yul\":27439:28504   */\n    tag_212:\n        /* \"#utility.yul\":27591:27596   */\n      0x00\n        /* \"#utility.yul\":27616:27742   */\n      tag_480\n        /* \"#utility.yul\":27632:27741   */\n      tag_481\n        /* \"#utility.yul\":27734:27740   */\n      dup5\n        /* \"#utility.yul\":27632:27741   */\n      tag_194\n      jump\t// in\n    tag_481:\n        /* \"#utility.yul\":27616:27742   */\n      tag_191\n      jump\t// in\n    tag_480:\n        /* \"#utility.yul\":27607:27742   */\n      swap1\n      pop\n        /* \"#utility.yul\":27762:27767   */\n      dup1\n        /* \"#utility.yul\":27791:27797   */\n      dup4\n        /* \"#utility.yul\":27784:27789   */\n      dup3\n        /* \"#utility.yul\":27777:27798   */\n      mstore\n        /* \"#utility.yul\":27825:27829   */\n      0x20\n        /* \"#utility.yul\":27818:27823   */\n      dup3\n        /* \"#utility.yul\":27814:27830   */\n      add\n        /* \"#utility.yul\":27807:27830   */\n      swap1\n      pop\n        /* \"#utility.yul\":27878:27882   */\n      0x20\n        /* \"#utility.yul\":27870:27876   */\n      dup5\n        /* \"#utility.yul\":27866:27883   */\n      mul\n        /* \"#utility.yul\":27858:27864   */\n      dup4\n        /* \"#utility.yul\":27854:27884   */\n      add\n        /* \"#utility.yul\":27907:27910   */\n      dup6\n        /* \"#utility.yul\":27899:27905   */\n      dup2\n        /* \"#utility.yul\":27896:27911   */\n      gt\n        /* \"#utility.yul\":27893:28015   */\n      iszero\n      tag_482\n      jumpi\n        /* \"#utility.yul\":27926:28005   */\n      tag_483\n      tag_195\n      jump\t// in\n    tag_483:\n        /* \"#utility.yul\":27893:28015   */\n    tag_482:\n        /* \"#utility.yul\":28041:28047   */\n      dup4\n        /* \"#utility.yul\":28024:28498   */\n    tag_484:\n        /* \"#utility.yul\":28058:28064   */\n      dup2\n        /* \"#utility.yul\":28053:28056   */\n      dup2\n        /* \"#utility.yul\":28050:28065   */\n      lt\n        /* \"#utility.yul\":28024:28498   */\n      iszero\n      tag_486\n      jumpi\n        /* \"#utility.yul\":28140:28143   */\n      dup1\n        /* \"#utility.yul\":28134:28144   */\n      mload\n        /* \"#utility.yul\":28176:28194   */\n      0xffffffffffffffff\n        /* \"#utility.yul\":28163:28174   */\n      dup2\n        /* \"#utility.yul\":28160:28195   */\n      gt\n        /* \"#utility.yul\":28157:28279   */\n      iszero\n      tag_487\n      jumpi\n        /* \"#utility.yul\":28198:28277   */\n      tag_488\n      tag_193\n      jump\t// in\n    tag_488:\n        /* \"#utility.yul\":28157:28279   */\n    tag_487:\n        /* \"#utility.yul\":28322:28333   */\n      dup1\n        /* \"#utility.yul\":28314:28320   */\n      dup7\n        /* \"#utility.yul\":28310:28334   */\n      add\n        /* \"#utility.yul\":28360:28453   */\n      tag_489\n        /* \"#utility.yul\":28449:28452   */\n      dup10\n        /* \"#utility.yul\":28437:28447   */\n      dup3\n        /* \"#utility.yul\":28360:28453   */\n      tag_211\n      jump\t// in\n    tag_489:\n        /* \"#utility.yul\":28355:28358   */\n      dup6\n        /* \"#utility.yul\":28348:28454   */\n      mstore\n        /* \"#utility.yul\":28483:28487   */\n      0x20\n        /* \"#utility.yul\":28478:28481   */\n      dup6\n        /* \"#utility.yul\":28474:28488   */\n      add\n        /* \"#utility.yul\":28467:28488   */\n      swap5\n      pop\n        /* \"#utility.yul\":28100:28498   */\n      pop\n      pop\n        /* \"#utility.yul\":28084:28088   */\n      0x20\n        /* \"#utility.yul\":28079:28082   */\n      dup2\n        /* \"#utility.yul\":28075:28089   */\n      add\n        /* \"#utility.yul\":28068:28089   */\n      swap1\n      pop\n        /* \"#utility.yul\":28024:28498   */\n      jump(tag_484)\n    tag_486:\n        /* \"#utility.yul\":28028:28049   */\n      pop\n        /* \"#utility.yul\":27597:28504   */\n      pop\n      pop\n        /* \"#utility.yul\":27439:28504   */\n      swap4\n      swap3\n      pop\n      pop\n      pop\n      jump\t// out\n        /* \"#utility.yul\":28565:29040   */\n    tag_213:\n        /* \"#utility.yul\":28692:28697   */\n      0x00\n        /* \"#utility.yul\":28741:28744   */\n      dup3\n        /* \"#utility.yul\":28734:28738   */\n      0x1f\n        /* \"#utility.yul\":28726:28732   */\n      dup4\n        /* \"#utility.yul\":28722:28739   */\n      add\n        /* \"#utility.yul\":28718:28745   */\n      slt\n        /* \"#utility.yul\":28708:28830   */\n      tag_491\n      jumpi\n        /* \"#utility.yul\":28749:28828   */\n      tag_492\n      tag_193\n      jump\t// in\n    tag_492:\n        /* \"#utility.yul\":28708:28830   */\n    tag_491:\n        /* \"#utility.yul\":28859:28865   */\n      dup2\n        /* \"#utility.yul\":28853:28866   */\n      mload\n        /* \"#utility.yul\":28884:29034   */\n      tag_493\n        /* \"#utility.yul\":29030:29033   */\n      dup5\n        /* \"#utility.yul\":29022:29028   */\n      dup3\n        /* \"#utility.yul\":29015:29019   */\n      0x20\n        /* \"#utility.yul\":29007:29013   */\n      dup7\n        /* \"#utility.yul\":29003:29020   */\n      add\n        /* \"#utility.yul\":28884:29034   */\n      tag_212\n      jump\t// in\n    tag_493:\n        /* \"#utility.yul\":28875:29034   */\n      swap2\n      pop\n        /* \"#utility.yul\":28698:29040   */\n      pop\n        /* \"#utility.yul\":28565:29040   */\n      swap3\n      swap2\n      pop\n      pop\n      jump\t// out\n        /* \"#utility.yul\":29046:29386   */\n    tag_214:\n        /* \"#utility.yul\":29152:29156   */\n      0x00\n        /* \"#utility.yul\":29242:29260   */\n      0xffffffffffffffff\n        /* \"#utility.yul\":29234:29240   */\n      dup3\n        /* \"#utility.yul\":29231:29261   */\n      gt\n        /* \"#utility.yul\":29228:29284   */\n      iszero\n      tag_495\n      jumpi\n        /* \"#utility.yul\":29264:29282   */\n      tag_496\n      tag_87\n      jump\t// in\n    tag_496:\n        /* \"#utility.yul\":29228:29284   */\n    tag_495:\n        /* \"#utility.yul\":29314:29318   */\n      0x20\n        /* \"#utility.yul\":29306:29312   */\n      dup3\n        /* \"#utility.yul\":29302:29319   */\n      mul\n        /* \"#utility.yul\":29294:29319   */\n      swap1\n      pop\n        /* \"#utility.yul\":29374:29378   */\n      0x20\n        /* \"#utility.yul\":29368:29372   */\n      dup2\n        /* \"#utility.yul\":29364:29379   */\n      add\n        /* \"#utility.yul\":29356:29379   */\n      swap1\n      pop\n        /* \"#utility.yul\":29046:29386   */\n      swap2\n      swap1\n      pop\n      jump\t// out\n        /* \"#utility.yul\":29392:29713   */\n    tag_215:\n        /* \"#utility.yul\":29479:29483   */\n      0x00\n        /* \"#utility.yul\":29569:29587   */\n      0xffffffffffffffff\n        /* \"#utility.yul\":29561:29567   */\n      dup3\n        /* \"#utility.yul\":29558:29588   */\n      gt\n        /* \"#utility.yul\":29555:29611   */\n      iszero\n      tag_498\n      jumpi\n        /* \"#utility.yul\":29591:29609   */\n      tag_499\n      tag_87\n      jump\t// in\n    tag_499:\n        /* \"#utility.yul\":29555:29611   */\n    tag_498:\n        /* \"#utility.yul\":29641:29645   */\n      0x20\n        /* \"#utility.yul\":29633:29639   */\n      dup3\n        /* \"#utility.yul\":29629:29646   */\n      mul\n        /* \"#utility.yul\":29621:29646   */\n      swap1\n      pop\n        /* \"#utility.yul\":29701:29705   */\n      0x20\n        /* \"#utility.yul\":29695:29699   */\n      dup2\n        /* \"#utility.yul\":29691:29706   */\n      add\n        /* \"#utility.yul\":29683:29706   */\n      swap1\n      pop\n        /* \"#utility.yul\":29392:29713   */\n      swap2\n      swap1\n      pop\n      jump\t// out\n        /* \"#utility.yul\":29735:30695   */\n    tag_216:\n        /* \"#utility.yul\":29852:29857   */\n      0x00\n        /* \"#utility.yul\":29877:29968   */\n      tag_501\n        /* \"#utility.yul\":29893:29967   */\n      tag_502\n        /* \"#utility.yul\":29960:29966   */\n      dup5\n        /* \"#utility.yul\":29893:29967   */\n      tag_215\n      jump\t// in\n    tag_502:\n        /* \"#utility.yul\":29877:29968   */\n      tag_191\n      jump\t// in\n    tag_501:\n        /* \"#utility.yul\":29868:29968   */\n      swap1\n      pop\n        /* \"#utility.yul\":29988:29993   */\n      dup1\n        /* \"#utility.yul\":30017:30023   */\n      dup4\n        /* \"#utility.yul\":30010:30015   */\n      dup3\n        /* \"#utility.yul\":30003:30024   */\n      mstore\n        /* \"#utility.yul\":30051:30055   */\n      0x20\n        /* \"#utility.yul\":30044:30049   */\n      dup3\n        /* \"#utility.yul\":30040:30056   */\n      add\n        /* \"#utility.yul\":30033:30056   */\n      swap1\n      pop\n        /* \"#utility.yul\":30104:30108   */\n      0x20\n        /* \"#utility.yul\":30096:30102   */\n      dup5\n        /* \"#utility.yul\":30092:30109   */\n      mul\n        /* \"#utility.yul\":30084:30090   */\n      dup4\n        /* \"#utility.yul\":30080:30110   */\n      add\n        /* \"#utility.yul\":30133:30136   */\n      dup6\n        /* \"#utility.yul\":30125:30131   */\n      dup2\n        /* \"#utility.yul\":30122:30137   */\n      gt\n        /* \"#utility.yul\":30119:30241   */\n      iszero\n      tag_503\n      jumpi\n        /* \"#utility.yul\":30152:30231   */\n      tag_504\n      tag_195\n      jump\t// in\n    tag_504:\n        /* \"#utility.yul\":30119:30241   */\n    tag_503:\n        /* \"#utility.yul\":30267:30273   */\n      dup4\n        /* \"#utility.yul\":30250:30689   */\n    tag_505:\n        /* \"#utility.yul\":30284:30290   */\n      dup2\n        /* \"#utility.yul\":30279:30282   */\n      dup2\n        /* \"#utility.yul\":30276:30291   */\n      lt\n        /* \"#utility.yul\":30250:30689   */\n      iszero\n      tag_507\n      jumpi\n        /* \"#utility.yul\":30366:30369   */\n      dup1\n        /* \"#utility.yul\":30360:30370   */\n      mload\n        /* \"#utility.yul\":30402:30420   */\n      0xffffffffffffffff\n        /* \"#utility.yul\":30389:30400   */\n      dup2\n        /* \"#utility.yul\":30386:30421   */\n      gt\n        /* \"#utility.yul\":30383:30505   */\n      iszero\n      tag_508\n      jumpi\n        /* \"#utility.yul\":30424:30503   */\n      tag_509\n      tag_193\n      jump\t// in\n    tag_509:\n        /* \"#utility.yul\":30383:30505   */\n    tag_508:\n        /* \"#utility.yul\":30548:30559   */\n      dup1\n        /* \"#utility.yul\":30540:30546   */\n      dup7\n        /* \"#utility.yul\":30536:30560   */\n      add\n        /* \"#utility.yul\":30586:30644   */\n      tag_510\n        /* \"#utility.yul\":30640:30643   */\n      dup10\n        /* \"#utility.yul\":30628:30638   */\n      dup3\n        /* \"#utility.yul\":30586:30644   */\n      tag_199\n      jump\t// in\n    tag_510:\n        /* \"#utility.yul\":30581:30584   */\n      dup6\n        /* \"#utility.yul\":30574:30645   */\n      mstore\n        /* \"#utility.yul\":30674:30678   */\n      0x20\n        /* \"#utility.yul\":30669:30672   */\n      dup6\n        /* \"#utility.yul\":30665:30679   */\n      add\n        /* \"#utility.yul\":30658:30679   */\n      swap5\n      pop\n        /* \"#utility.yul\":30326:30689   */\n      pop\n      pop\n        /* \"#utility.yul\":30310:30314   */\n      0x20\n        /* \"#utility.yul\":30305:30308   */\n      dup2\n        /* \"#utility.yul\":30301:30315   */\n      add\n        /* \"#utility.yul\":30294:30315   */\n      swap1\n      pop\n        /* \"#utility.yul\":30250:30689   */\n      jump(tag_505)\n    tag_507:\n        /* \"#utility.yul\":30254:30275   */\n      pop\n        /* \"#utility.yul\":29858:30695   */\n      pop\n      pop\n        /* \"#utility.yul\":29735:30695   */\n      swap4\n      swap3\n      pop\n      pop\n      pop\n      jump\t// out\n        /* \"#utility.yul\":30717:31122   */\n    tag_217:\n        /* \"#utility.yul\":30809:30814   */\n      0x00\n        /* \"#utility.yul\":30858:30861   */\n      dup3\n        /* \"#utility.yul\":30851:30855   */\n      0x1f\n        /* \"#utility.yul\":30843:30849   */\n      dup4\n        /* \"#utility.yul\":30839:30856   */\n      add\n        /* \"#utility.yul\":30835:30862   */\n      slt\n        /* \"#utility.yul\":30825:30947   */\n      tag_512\n      jumpi\n        /* \"#utility.yul\":30866:30945   */\n      tag_513\n      tag_193\n      jump\t// in\n    tag_513:\n        /* \"#utility.yul\":30825:30947   */\n    tag_512:\n        /* \"#utility.yul\":30976:30982   */\n      dup2\n        /* \"#utility.yul\":30970:30983   */\n      mload\n        /* \"#utility.yul\":31001:31116   */\n      tag_514\n        /* \"#utility.yul\":31112:31115   */\n      dup5\n        /* \"#utility.yul\":31104:31110   */\n      dup3\n        /* \"#utility.yul\":31097:31101   */\n      0x20\n        /* \"#utility.yul\":31089:31095   */\n      dup7\n        /* \"#utility.yul\":31085:31102   */\n      add\n        /* \"#utility.yul\":31001:31116   */\n      tag_216\n      jump\t// in\n    tag_514:\n        /* \"#utility.yul\":30992:31116   */\n      swap2\n      pop\n        /* \"#utility.yul\":30815:31122   */\n      pop\n        /* \"#utility.yul\":30717:31122   */\n      swap3\n      swap2\n      pop\n      pop\n      jump\t// out\n        /* \"#utility.yul\":31165:32129   */\n    tag_218:\n        /* \"#utility.yul\":31254:31259   */\n      0x00\n        /* \"#utility.yul\":31298:31302   */\n      0x40\n        /* \"#utility.yul\":31286:31295   */\n      dup3\n        /* \"#utility.yul\":31281:31284   */\n      dup5\n        /* \"#utility.yul\":31277:31296   */\n      sub\n        /* \"#utility.yul\":31273:31303   */\n      slt\n        /* \"#utility.yul\":31270:31387   */\n      iszero\n      tag_516\n      jumpi\n        /* \"#utility.yul\":31306:31385   */\n      tag_517\n      tag_189\n      jump\t// in\n    tag_517:\n        /* \"#utility.yul\":31270:31387   */\n    tag_516:\n        /* \"#utility.yul\":31405:31426   */\n      tag_518\n        /* \"#utility.yul\":31421:31425   */\n      0x40\n        /* \"#utility.yul\":31405:31426   */\n      tag_191\n      jump\t// in\n    tag_518:\n        /* \"#utility.yul\":31396:31426   */\n      swap1\n      pop\n        /* \"#utility.yul\":31506:31507   */\n      0x00\n        /* \"#utility.yul\":31495:31504   */\n      dup3\n        /* \"#utility.yul\":31491:31508   */\n      add\n        /* \"#utility.yul\":31485:31509   */\n      mload\n        /* \"#utility.yul\":31536:31554   */\n      0xffffffffffffffff\n        /* \"#utility.yul\":31528:31534   */\n      dup2\n        /* \"#utility.yul\":31525:31555   */\n      gt\n        /* \"#utility.yul\":31522:31639   */\n      iszero\n      tag_519\n      jumpi\n        /* \"#utility.yul\":31558:31637   */\n      tag_520\n      tag_192\n      jump\t// in\n    tag_520:\n        /* \"#utility.yul\":31522:31639   */\n    tag_519:\n        /* \"#utility.yul\":31678:31748   */\n      tag_521\n        /* \"#utility.yul\":31744:31747   */\n      dup5\n        /* \"#utility.yul\":31735:31741   */\n      dup3\n        /* \"#utility.yul\":31724:31733   */\n      dup6\n        /* \"#utility.yul\":31720:31742   */\n      add\n        /* \"#utility.yul\":31678:31748   */\n      tag_199\n      jump\t// in\n    tag_521:\n        /* \"#utility.yul\":31671:31675   */\n      0x00\n        /* \"#utility.yul\":31664:31669   */\n      dup4\n        /* \"#utility.yul\":31660:31676   */\n      add\n        /* \"#utility.yul\":31653:31749   */\n      mstore\n        /* \"#utility.yul\":31436:31760   */\n      pop\n        /* \"#utility.yul\":31842:31844   */\n      0x20\n        /* \"#utility.yul\":31831:31840   */\n      dup3\n        /* \"#utility.yul\":31827:31845   */\n      add\n        /* \"#utility.yul\":31821:31846   */\n      mload\n        /* \"#utility.yul\":31873:31891   */\n      0xffffffffffffffff\n        /* \"#utility.yul\":31865:31871   */\n      dup2\n        /* \"#utility.yul\":31862:31892   */\n      gt\n        /* \"#utility.yul\":31859:31976   */\n      iszero\n      tag_522\n      jumpi\n        /* \"#utility.yul\":31895:31974   */\n      tag_523\n      tag_192\n      jump\t// in\n    tag_523:\n        /* \"#utility.yul\":31859:31976   */\n    tag_522:\n        /* \"#utility.yul\":32015:32110   */\n      tag_524\n        /* \"#utility.yul\":32106:32109   */\n      dup5\n        /* \"#utility.yul\":32097:32103   */\n      dup3\n        /* \"#utility.yul\":32086:32095   */\n      dup6\n        /* \"#utility.yul\":32082:32104   */\n      add\n        /* \"#utility.yul\":32015:32110   */\n      tag_217\n      jump\t// in\n    tag_524:\n        /* \"#utility.yul\":32008:32012   */\n      0x20\n        /* \"#utility.yul\":32001:32006   */\n      dup4\n        /* \"#utility.yul\":31997:32013   */\n      add\n        /* \"#utility.yul\":31990:32111   */\n      mstore\n        /* \"#utility.yul\":31770:32122   */\n      pop\n        /* \"#utility.yul\":31165:32129   */\n      swap3\n      swap2\n      pop\n      pop\n      jump\t// out\n        /* \"#utility.yul\":32174:33191   */\n    tag_219:\n        /* \"#utility.yul\":32310:32315   */\n      0x00\n        /* \"#utility.yul\":32335:32445   */\n      tag_526\n        /* \"#utility.yul\":32351:32444   */\n      tag_527\n        /* \"#utility.yul\":32437:32443   */\n      dup5\n        /* \"#utility.yul\":32351:32444   */\n      tag_214\n      jump\t// in\n    tag_527:\n        /* \"#utility.yul\":32335:32445   */\n      tag_191\n      jump\t// in\n    tag_526:\n        /* \"#utility.yul\":32326:32445   */\n      swap1\n      pop\n        /* \"#utility.yul\":32465:32470   */\n      dup1\n        /* \"#utility.yul\":32494:32500   */\n      dup4\n        /* \"#utility.yul\":32487:32492   */\n      dup3\n        /* \"#utility.yul\":32480:32501   */\n      mstore\n        /* \"#utility.yul\":32528:32532   */\n      0x20\n        /* \"#utility.yul\":32521:32526   */\n      dup3\n        /* \"#utility.yul\":32517:32533   */\n      add\n        /* \"#utility.yul\":32510:32533   */\n      swap1\n      pop\n        /* \"#utility.yul\":32581:32585   */\n      0x20\n        /* \"#utility.yul\":32573:32579   */\n      dup5\n        /* \"#utility.yul\":32569:32586   */\n      mul\n        /* \"#utility.yul\":32561:32567   */\n      dup4\n        /* \"#utility.yul\":32557:32587   */\n      add\n        /* \"#utility.yul\":32610:32613   */\n      dup6\n        /* \"#utility.yul\":32602:32608   */\n      dup2\n        /* \"#utility.yul\":32599:32614   */\n      gt\n        /* \"#utility.yul\":32596:32718   */\n      iszero\n      tag_528\n      jumpi\n        /* \"#utility.yul\":32629:32708   */\n      tag_529\n      tag_195\n      jump\t// in\n    tag_529:\n        /* \"#utility.yul\":32596:32718   */\n    tag_528:\n        /* \"#utility.yul\":32744:32750   */\n      dup4\n        /* \"#utility.yul\":32727:33185   */\n    tag_530:\n        /* \"#utility.yul\":32761:32767   */\n      dup2\n        /* \"#utility.yul\":32756:32759   */\n      dup2\n        /* \"#utility.yul\":32753:32768   */\n      lt\n        /* \"#utility.yul\":32727:33185   */\n      iszero\n      tag_532\n      jumpi\n        /* \"#utility.yul\":32843:32846   */\n      dup1\n        /* \"#utility.yul\":32837:32847   */\n      mload\n        /* \"#utility.yul\":32879:32897   */\n      0xffffffffffffffff\n        /* \"#utility.yul\":32866:32877   */\n      dup2\n        /* \"#utility.yul\":32863:32898   */\n      gt\n        /* \"#utility.yul\":32860:32982   */\n      iszero\n      tag_533\n      jumpi\n        /* \"#utility.yul\":32901:32980   */\n      tag_534\n      tag_193\n      jump\t// in\n    tag_534:\n        /* \"#utility.yul\":32860:32982   */\n    tag_533:\n        /* \"#utility.yul\":33025:33036   */\n      dup1\n        /* \"#utility.yul\":33017:33023   */\n      dup7\n        /* \"#utility.yul\":33013:33037   */\n      add\n        /* \"#utility.yul\":33063:33140   */\n      tag_535\n        /* \"#utility.yul\":33136:33139   */\n      dup10\n        /* \"#utility.yul\":33124:33134   */\n      dup3\n        /* \"#utility.yul\":33063:33140   */\n      tag_218\n      jump\t// in\n    tag_535:\n        /* \"#utility.yul\":33058:33061   */\n      dup6\n        /* \"#utility.yul\":33051:33141   */\n      mstore\n        /* \"#utility.yul\":33170:33174   */\n      0x20\n        /* \"#utility.yul\":33165:33168   */\n      dup6\n        /* \"#utility.yul\":33161:33175   */\n      add\n        /* \"#utility.yul\":33154:33175   */\n      swap5\n      pop\n        /* \"#utility.yul\":32803:33185   */\n      pop\n      pop\n        /* \"#utility.yul\":32787:32791   */\n      0x20\n        /* \"#utility.yul\":32782:32785   */\n      dup2\n        /* \"#utility.yul\":32778:32792   */\n      add\n        /* \"#utility.yul\":32771:32792   */\n      swap1\n      pop\n        /* \"#utility.yul\":32727:33185   */\n      jump(tag_530)\n    tag_532:\n        /* \"#utility.yul\":32731:32752   */\n      pop\n        /* \"#utility.yul\":32316:33191   */\n      pop\n      pop\n        /* \"#utility.yul\":32174:33191   */\n      swap4\n      swap3\n      pop\n      pop\n      pop\n      jump\t// out\n        /* \"#utility.yul\":33236:33679   */\n    tag_220:\n        /* \"#utility.yul\":33347:33352   */\n      0x00\n        /* \"#utility.yul\":33396:33399   */\n      dup3\n        /* \"#utility.yul\":33389:33393   */\n      0x1f\n        /* \"#utility.yul\":33381:33387   */\n      dup4\n        /* \"#utility.yul\":33377:33394   */\n      add\n        /* \"#utility.yul\":33373:33400   */\n      slt\n        /* \"#utility.yul\":33363:33485   */\n      tag_537\n      jumpi\n        /* \"#utility.yul\":33404:33483   */\n      tag_538\n      tag_193\n      jump\t// in\n    tag_538:\n        /* \"#utility.yul\":33363:33485   */\n    tag_537:\n        /* \"#utility.yul\":33514:33520   */\n      dup2\n        /* \"#utility.yul\":33508:33521   */\n      mload\n        /* \"#utility.yul\":33539:33673   */\n      tag_539\n        /* \"#utility.yul\":33669:33672   */\n      dup5\n        /* \"#utility.yul\":33661:33667   */\n      dup3\n        /* \"#utility.yul\":33654:33658   */\n      0x20\n        /* \"#utility.yul\":33646:33652   */\n      dup7\n        /* \"#utility.yul\":33642:33659   */\n      add\n        /* \"#utility.yul\":33539:33673   */\n      tag_219\n      jump\t// in\n    tag_539:\n        /* \"#utility.yul\":33530:33673   */\n      swap2\n      pop\n        /* \"#utility.yul\":33353:33679   */\n      pop\n        /* \"#utility.yul\":33236:33679   */\n      swap3\n      swap2\n      pop\n      pop\n      jump\t// out\n        /* \"#utility.yul\":33685:33775   */\n    tag_221:\n        /* \"#utility.yul\":33719:33726   */\n      0x00\n        /* \"#utility.yul\":33762:33767   */\n      dup2\n        /* \"#utility.yul\":33755:33768   */\n      iszero\n        /* \"#utility.yul\":33748:33769   */\n      iszero\n        /* \"#utility.yul\":33737:33769   */\n      swap1\n      pop\n        /* \"#utility.yul\":33685:33775   */\n      swap2\n      swap1\n      pop\n      jump\t// out\n        /* \"#utility.yul\":33781:33897   */\n    tag_222:\n        /* \"#utility.yul\":33851:33872   */\n      tag_542\n        /* \"#utility.yul\":33866:33871   */\n      dup2\n        /* \"#utility.yul\":33851:33872   */\n      tag_221\n      jump\t// in\n    tag_542:\n        /* \"#utility.yul\":33844:33849   */\n      dup2\n        /* \"#utility.yul\":33841:33873   */\n      eq\n        /* \"#utility.yul\":33831:33891   */\n      tag_543\n      jumpi\n        /* \"#utility.yul\":33887:33888   */\n      0x00\n        /* \"#utility.yul\":33884:33885   */\n      dup1\n        /* \"#utility.yul\":33877:33889   */\n      revert\n        /* \"#utility.yul\":33831:33891   */\n    tag_543:\n        /* \"#utility.yul\":33781:33897   */\n      pop\n      jump\t// out\n        /* \"#utility.yul\":33903:34040   */\n    tag_223:\n        /* \"#utility.yul\":33957:33962   */\n      0x00\n        /* \"#utility.yul\":33988:33994   */\n      dup2\n        /* \"#utility.yul\":33982:33995   */\n      mload\n        /* \"#utility.yul\":33973:33995   */\n      swap1\n      pop\n        /* \"#utility.yul\":34004:34034   */\n      tag_545\n        /* \"#utility.yul\":34028:34033   */\n      dup2\n        /* \"#utility.yul\":34004:34034   */\n      tag_222\n      jump\t// in\n    tag_545:\n        /* \"#utility.yul\":33903:34040   */\n      swap3\n      swap2\n      pop\n      pop\n      jump\t// out\n        /* \"#utility.yul\":34072:35303   */\n    tag_224:\n        /* \"#utility.yul\":34160:34165   */\n      0x00\n        /* \"#utility.yul\":34204:34208   */\n      0x60\n        /* \"#utility.yul\":34192:34201   */\n      dup3\n        /* \"#utility.yul\":34187:34190   */\n      dup5\n        /* \"#utility.yul\":34183:34202   */\n      sub\n        /* \"#utility.yul\":34179:34209   */\n      slt\n        /* \"#utility.yul\":34176:34293   */\n      iszero\n      tag_547\n      jumpi\n        /* \"#utility.yul\":34212:34291   */\n      tag_548\n      tag_189\n      jump\t// in\n    tag_548:\n        /* \"#utility.yul\":34176:34293   */\n    tag_547:\n        /* \"#utility.yul\":34311:34332   */\n      tag_549\n        /* \"#utility.yul\":34327:34331   */\n      0x60\n        /* \"#utility.yul\":34311:34332   */\n      tag_191\n      jump\t// in\n    tag_549:\n        /* \"#utility.yul\":34302:34332   */\n      swap1\n      pop\n        /* \"#utility.yul\":34415:34416   */\n      0x00\n        /* \"#utility.yul\":34404:34413   */\n      dup3\n        /* \"#utility.yul\":34400:34417   */\n      add\n        /* \"#utility.yul\":34394:34418   */\n      mload\n        /* \"#utility.yul\":34445:34463   */\n      0xffffffffffffffff\n        /* \"#utility.yul\":34437:34443   */\n      dup2\n        /* \"#utility.yul\":34434:34464   */\n      gt\n        /* \"#utility.yul\":34431:34548   */\n      iszero\n      tag_550\n      jumpi\n        /* \"#utility.yul\":34467:34546   */\n      tag_551\n      tag_192\n      jump\t// in\n    tag_551:\n        /* \"#utility.yul\":34431:34548   */\n    tag_550:\n        /* \"#utility.yul\":34587:34717   */\n      tag_552\n        /* \"#utility.yul\":34713:34716   */\n      dup5\n        /* \"#utility.yul\":34704:34710   */\n      dup3\n        /* \"#utility.yul\":34693:34702   */\n      dup6\n        /* \"#utility.yul\":34689:34711   */\n      add\n        /* \"#utility.yul\":34587:34717   */\n      tag_213\n      jump\t// in\n    tag_552:\n        /* \"#utility.yul\":34580:34584   */\n      0x00\n        /* \"#utility.yul\":34573:34578   */\n      dup4\n        /* \"#utility.yul\":34569:34585   */\n      add\n        /* \"#utility.yul\":34562:34718   */\n      mstore\n        /* \"#utility.yul\":34342:34729   */\n      pop\n        /* \"#utility.yul\":34812:34814   */\n      0x20\n        /* \"#utility.yul\":34801:34810   */\n      dup3\n        /* \"#utility.yul\":34797:34815   */\n      add\n        /* \"#utility.yul\":34791:34816   */\n      mload\n        /* \"#utility.yul\":34843:34861   */\n      0xffffffffffffffff\n        /* \"#utility.yul\":34835:34841   */\n      dup2\n        /* \"#utility.yul\":34832:34862   */\n      gt\n        /* \"#utility.yul\":34829:34946   */\n      iszero\n      tag_553\n      jumpi\n        /* \"#utility.yul\":34865:34944   */\n      tag_554\n      tag_192\n      jump\t// in\n    tag_554:\n        /* \"#utility.yul\":34829:34946   */\n    tag_553:\n        /* \"#utility.yul\":34985:35099   */\n      tag_555\n        /* \"#utility.yul\":35095:35098   */\n      dup5\n        /* \"#utility.yul\":35086:35092   */\n      dup3\n        /* \"#utility.yul\":35075:35084   */\n      dup6\n        /* \"#utility.yul\":35071:35093   */\n      add\n        /* \"#utility.yul\":34985:35099   */\n      tag_220\n      jump\t// in\n    tag_555:\n        /* \"#utility.yul\":34978:34982   */\n      0x20\n        /* \"#utility.yul\":34971:34976   */\n      dup4\n        /* \"#utility.yul\":34967:34983   */\n      add\n        /* \"#utility.yul\":34960:35100   */\n      mstore\n        /* \"#utility.yul\":34739:35111   */\n      pop\n        /* \"#utility.yul\":35186:35188   */\n      0x40\n        /* \"#utility.yul\":35227:35284   */\n      tag_556\n        /* \"#utility.yul\":35280:35283   */\n      dup5\n        /* \"#utility.yul\":35271:35277   */\n      dup3\n        /* \"#utility.yul\":35260:35269   */\n      dup6\n        /* \"#utility.yul\":35256:35278   */\n      add\n        /* \"#utility.yul\":35227:35284   */\n      tag_223\n      jump\t// in\n    tag_556:\n        /* \"#utility.yul\":35220:35224   */\n      0x40\n        /* \"#utility.yul\":35213:35218   */\n      dup4\n        /* \"#utility.yul\":35209:35225   */\n      add\n        /* \"#utility.yul\":35202:35285   */\n      mstore\n        /* \"#utility.yul\":35121:35296   */\n      pop\n        /* \"#utility.yul\":34072:35303   */\n      swap3\n      swap2\n      pop\n      pop\n      jump\t// out\n        /* \"#utility.yul\":35309:35869   */\n    tag_47:\n        /* \"#utility.yul\":35407:35413   */\n      0x00\n        /* \"#utility.yul\":35456:35458   */\n      0x20\n        /* \"#utility.yul\":35444:35453   */\n      dup3\n        /* \"#utility.yul\":35435:35442   */\n      dup5\n        /* \"#utility.yul\":35431:35454   */\n      sub\n        /* \"#utility.yul\":35427:35459   */\n      slt\n        /* \"#utility.yul\":35424:35543   */\n      iszero\n      tag_558\n      jumpi\n        /* \"#utility.yul\":35462:35541   */\n      tag_559\n      tag_187\n      jump\t// in\n    tag_559:\n        /* \"#utility.yul\":35424:35543   */\n    tag_558:\n        /* \"#utility.yul\":35603:35604   */\n      0x00\n        /* \"#utility.yul\":35592:35601   */\n      dup3\n        /* \"#utility.yul\":35588:35605   */\n      add\n        /* \"#utility.yul\":35582:35606   */\n      mload\n        /* \"#utility.yul\":35633:35651   */\n      0xffffffffffffffff\n        /* \"#utility.yul\":35625:35631   */\n      dup2\n        /* \"#utility.yul\":35622:35652   */\n      gt\n        /* \"#utility.yul\":35619:35736   */\n      iszero\n      tag_560\n      jumpi\n        /* \"#utility.yul\":35655:35734   */\n      tag_561\n      tag_188\n      jump\t// in\n    tag_561:\n        /* \"#utility.yul\":35619:35736   */\n    tag_560:\n        /* \"#utility.yul\":35760:35852   */\n      tag_562\n        /* \"#utility.yul\":35844:35851   */\n      dup5\n        /* \"#utility.yul\":35835:35841   */\n      dup3\n        /* \"#utility.yul\":35824:35833   */\n      dup6\n        /* \"#utility.yul\":35820:35842   */\n      add\n        /* \"#utility.yul\":35760:35852   */\n      tag_224\n      jump\t// in\n    tag_562:\n        /* \"#utility.yul\":35750:35852   */\n      swap2\n      pop\n        /* \"#utility.yul\":35553:35862   */\n      pop\n        /* \"#utility.yul\":35309:35869   */\n      swap3\n      swap2\n      pop\n      pop\n      jump\t// out\n        /* \"#utility.yul\":35875:36000   */\n    tag_225:\n        /* \"#utility.yul\":35968:35969   */\n      0x02\n        /* \"#utility.yul\":35961:35966   */\n      dup2\n        /* \"#utility.yul\":35958:35970   */\n      lt\n        /* \"#utility.yul\":35948:35994   */\n      tag_564\n      jumpi\n        /* \"#utility.yul\":35974:35992   */\n      tag_565\n      tag_39\n      jump\t// in\n    tag_565:\n        /* \"#utility.yul\":35948:35994   */\n    tag_564:\n        /* \"#utility.yul\":35875:36000   */\n      pop\n      jump\t// out\n        /* \"#utility.yul\":36006:36157   */\n    tag_226:\n        /* \"#utility.yul\":36063:36070   */\n      0x00\n        /* \"#utility.yul\":36092:36097   */\n      dup2\n        /* \"#utility.yul\":36081:36097   */\n      swap1\n      pop\n        /* \"#utility.yul\":36098:36151   */\n      tag_567\n        /* \"#utility.yul\":36145:36150   */\n      dup3\n        /* \"#utility.yul\":36098:36151   */\n      tag_225\n      jump\t// in\n    tag_567:\n        /* \"#utility.yul\":36006:36157   */\n      swap2\n      swap1\n      pop\n      jump\t// out\n        /* \"#utility.yul\":36163:36314   */\n    tag_227:\n        /* \"#utility.yul\":36231:36240   */\n      0x00\n        /* \"#utility.yul\":36264:36308   */\n      tag_569\n        /* \"#utility.yul\":36302:36307   */\n      dup3\n        /* \"#utility.yul\":36264:36308   */\n      tag_226\n      jump\t// in\n    tag_569:\n        /* \"#utility.yul\":36251:36308   */\n      swap1\n      pop\n        /* \"#utility.yul\":36163:36314   */\n      swap2\n      swap1\n      pop\n      jump\t// out\n        /* \"#utility.yul\":36320:36477   */\n    tag_228:\n        /* \"#utility.yul\":36415:36470   */\n      tag_571\n        /* \"#utility.yul\":36464:36469   */\n      dup2\n        /* \"#utility.yul\":36415:36470   */\n      tag_227\n      jump\t// in\n    tag_571:\n        /* \"#utility.yul\":36410:36413   */\n      dup3\n        /* \"#utility.yul\":36403:36471   */\n      mstore\n        /* \"#utility.yul\":36320:36477   */\n      pop\n      pop\n      jump\t// out\n        /* \"#utility.yul\":36547:38105   */\n    tag_229:\n        /* \"#utility.yul\":36688:36691   */\n      0x00\n        /* \"#utility.yul\":36724:36728   */\n      0xc0\n        /* \"#utility.yul\":36719:36722   */\n      dup4\n        /* \"#utility.yul\":36715:36729   */\n      add\n        /* \"#utility.yul\":36811:36815   */\n      0x00\n        /* \"#utility.yul\":36804:36809   */\n      dup4\n        /* \"#utility.yul\":36800:36816   */\n      add\n        /* \"#utility.yul\":36794:36817   */\n      mload\n        /* \"#utility.yul\":36830:36911   */\n      tag_573\n        /* \"#utility.yul\":36905:36909   */\n      0x00\n        /* \"#utility.yul\":36900:36903   */\n      dup7\n        /* \"#utility.yul\":36896:36910   */\n      add\n        /* \"#utility.yul\":36882:36894   */\n      dup3\n        /* \"#utility.yul\":36830:36911   */\n      tag_228\n      jump\t// in\n    tag_573:\n        /* \"#utility.yul\":36739:36921   */\n      pop\n        /* \"#utility.yul\":37007:37011   */\n      0x20\n        /* \"#utility.yul\":37000:37005   */\n      dup4\n        /* \"#utility.yul\":36996:37012   */\n      add\n        /* \"#utility.yul\":36990:37013   */\n      mload\n        /* \"#utility.yul\":37060:37063   */\n      dup5\n        /* \"#utility.yul\":37054:37058   */\n      dup3\n        /* \"#utility.yul\":37050:37064   */\n      sub\n        /* \"#utility.yul\":37043:37047   */\n      0x20\n        /* \"#utility.yul\":37038:37041   */\n      dup7\n        /* \"#utility.yul\":37034:37048   */\n      add\n        /* \"#utility.yul\":37027:37065   */\n      mstore\n        /* \"#utility.yul\":37086:37159   */\n      tag_574\n        /* \"#utility.yul\":37154:37158   */\n      dup3\n        /* \"#utility.yul\":37140:37152   */\n      dup3\n        /* \"#utility.yul\":37086:37159   */\n      tag_147\n      jump\t// in\n    tag_574:\n        /* \"#utility.yul\":37078:37159   */\n      swap2\n      pop\n        /* \"#utility.yul\":36931:37170   */\n      pop\n        /* \"#utility.yul\":37254:37258   */\n      0x40\n        /* \"#utility.yul\":37247:37252   */\n      dup4\n        /* \"#utility.yul\":37243:37259   */\n      add\n        /* \"#utility.yul\":37237:37260   */\n      mload\n        /* \"#utility.yul\":37307:37310   */\n      dup5\n        /* \"#utility.yul\":37301:37305   */\n      dup3\n        /* \"#utility.yul\":37297:37311   */\n      sub\n        /* \"#utility.yul\":37290:37294   */\n      0x40\n        /* \"#utility.yul\":37285:37288   */\n      dup7\n        /* \"#utility.yul\":37281:37295   */\n      add\n        /* \"#utility.yul\":37274:37312   */\n      mstore\n        /* \"#utility.yul\":37333:37406   */\n      tag_575\n        /* \"#utility.yul\":37401:37405   */\n      dup3\n        /* \"#utility.yul\":37387:37399   */\n      dup3\n        /* \"#utility.yul\":37333:37406   */\n      tag_147\n      jump\t// in\n    tag_575:\n        /* \"#utility.yul\":37325:37406   */\n      swap2\n      pop\n        /* \"#utility.yul\":37180:37417   */\n      pop\n        /* \"#utility.yul\":37505:37509   */\n      0x60\n        /* \"#utility.yul\":37498:37503   */\n      dup4\n        /* \"#utility.yul\":37494:37510   */\n      add\n        /* \"#utility.yul\":37488:37511   */\n      mload\n        /* \"#utility.yul\":37524:37585   */\n      tag_576\n        /* \"#utility.yul\":37579:37583   */\n      0x60\n        /* \"#utility.yul\":37574:37577   */\n      dup7\n        /* \"#utility.yul\":37570:37584   */\n      add\n        /* \"#utility.yul\":37556:37568   */\n      dup3\n        /* \"#utility.yul\":37524:37585   */\n      tag_163\n      jump\t// in\n    tag_576:\n        /* \"#utility.yul\":37427:37595   */\n      pop\n        /* \"#utility.yul\":37686:37690   */\n      0x80\n        /* \"#utility.yul\":37679:37684   */\n      dup4\n        /* \"#utility.yul\":37675:37691   */\n      add\n        /* \"#utility.yul\":37669:37692   */\n      mload\n        /* \"#utility.yul\":37739:37742   */\n      dup5\n        /* \"#utility.yul\":37733:37737   */\n      dup3\n        /* \"#utility.yul\":37729:37743   */\n      sub\n        /* \"#utility.yul\":37722:37726   */\n      0x80\n        /* \"#utility.yul\":37717:37720   */\n      dup7\n        /* \"#utility.yul\":37713:37727   */\n      add\n        /* \"#utility.yul\":37706:37744   */\n      mstore\n        /* \"#utility.yul\":37765:37888   */\n      tag_577\n        /* \"#utility.yul\":37883:37887   */\n      dup3\n        /* \"#utility.yul\":37869:37881   */\n      dup3\n        /* \"#utility.yul\":37765:37888   */\n      tag_179\n      jump\t// in\n    tag_577:\n        /* \"#utility.yul\":37757:37888   */\n      swap2\n      pop\n        /* \"#utility.yul\":37605:37899   */\n      pop\n        /* \"#utility.yul\":37988:37992   */\n      0xa0\n        /* \"#utility.yul\":37981:37986   */\n      dup4\n        /* \"#utility.yul\":37977:37993   */\n      add\n        /* \"#utility.yul\":37971:37994   */\n      mload\n        /* \"#utility.yul\":38007:38068   */\n      tag_578\n        /* \"#utility.yul\":38062:38066   */\n      0xa0\n        /* \"#utility.yul\":38057:38060   */\n      dup7\n        /* \"#utility.yul\":38053:38067   */\n      add\n        /* \"#utility.yul\":38039:38051   */\n      dup3\n        /* \"#utility.yul\":38007:38068   */\n      tag_163\n      jump\t// in\n    tag_578:\n        /* \"#utility.yul\":37909:38078   */\n      pop\n        /* \"#utility.yul\":38095:38099   */\n      dup1\n        /* \"#utility.yul\":38088:38099   */\n      swap2\n      pop\n        /* \"#utility.yul\":36693:38105   */\n      pop\n        /* \"#utility.yul\":36547:38105   */\n      swap3\n      swap2\n      pop\n      pop\n      jump\t// out\n        /* \"#utility.yul\":38111:38528   */\n    tag_57:\n        /* \"#utility.yul\":38276:38280   */\n      0x00\n        /* \"#utility.yul\":38314:38316   */\n      0x20\n        /* \"#utility.yul\":38303:38312   */\n      dup3\n        /* \"#utility.yul\":38299:38317   */\n      add\n        /* \"#utility.yul\":38291:38317   */\n      swap1\n      pop\n        /* \"#utility.yul\":38363:38372   */\n      dup2\n        /* \"#utility.yul\":38357:38361   */\n      dup2\n        /* \"#utility.yul\":38353:38373   */\n      sub\n        /* \"#utility.yul\":38349:38350   */\n      0x00\n        /* \"#utility.yul\":38338:38347   */\n      dup4\n        /* \"#utility.yul\":38334:38351   */\n      add\n        /* \"#utility.yul\":38327:38374   */\n      mstore\n        /* \"#utility.yul\":38391:38521   */\n      tag_580\n        /* \"#utility.yul\":38516:38520   */\n      dup2\n        /* \"#utility.yul\":38507:38513   */\n      dup5\n        /* \"#utility.yul\":38391:38521   */\n      tag_229\n      jump\t// in\n    tag_580:\n        /* \"#utility.yul\":38383:38521   */\n      swap1\n      pop\n        /* \"#utility.yul\":38111:38528   */\n      swap3\n      swap2\n      pop\n      pop\n      jump\t// out\n        /* \"#utility.yul\":38560:39163   */\n    tag_230:\n        /* \"#utility.yul\":38648:38653   */\n      0x00\n        /* \"#utility.yul\":38692:38696   */\n      0x20\n        /* \"#utility.yul\":38680:38689   */\n      dup3\n        /* \"#utility.yul\":38675:38678   */\n      dup5\n        /* \"#utility.yul\":38671:38690   */\n      sub\n        /* \"#utility.yul\":38667:38697   */\n      slt\n        /* \"#utility.yul\":38664:38781   */\n      iszero\n      tag_582\n      jumpi\n        /* \"#utility.yul\":38700:38779   */\n      tag_583\n      tag_189\n      jump\t// in\n    tag_583:\n        /* \"#utility.yul\":38664:38781   */\n    tag_582:\n        /* \"#utility.yul\":38799:38820   */\n      tag_584\n        /* \"#utility.yul\":38815:38819   */\n      0x20\n        /* \"#utility.yul\":38799:38820   */\n      tag_191\n      jump\t// in\n    tag_584:\n        /* \"#utility.yul\":38790:38820   */\n      swap1\n      pop\n        /* \"#utility.yul\":38902:38903   */\n      0x00\n        /* \"#utility.yul\":38891:38900   */\n      dup3\n        /* \"#utility.yul\":38887:38904   */\n      add\n        /* \"#utility.yul\":38881:38905   */\n      mload\n        /* \"#utility.yul\":38932:38950   */\n      0xffffffffffffffff\n        /* \"#utility.yul\":38924:38930   */\n      dup2\n        /* \"#utility.yul\":38921:38951   */\n      gt\n        /* \"#utility.yul\":38918:39035   */\n      iszero\n      tag_585\n      jumpi\n        /* \"#utility.yul\":38954:39033   */\n      tag_586\n      tag_192\n      jump\t// in\n    tag_586:\n        /* \"#utility.yul\":38918:39035   */\n    tag_585:\n        /* \"#utility.yul\":39074:39144   */\n      tag_587\n        /* \"#utility.yul\":39140:39143   */\n      dup5\n        /* \"#utility.yul\":39131:39137   */\n      dup3\n        /* \"#utility.yul\":39120:39129   */\n      dup6\n        /* \"#utility.yul\":39116:39138   */\n      add\n        /* \"#utility.yul\":39074:39144   */\n      tag_199\n      jump\t// in\n    tag_587:\n        /* \"#utility.yul\":39067:39071   */\n      0x00\n        /* \"#utility.yul\":39060:39065   */\n      dup4\n        /* \"#utility.yul\":39056:39072   */\n      add\n        /* \"#utility.yul\":39049:39145   */\n      mstore\n        /* \"#utility.yul\":38830:39156   */\n      pop\n        /* \"#utility.yul\":38560:39163   */\n      swap3\n      swap2\n      pop\n      pop\n      jump\t// out\n        /* \"#utility.yul\":39169:39729   */\n    tag_61:\n        /* \"#utility.yul\":39267:39273   */\n      0x00\n        /* \"#utility.yul\":39316:39318   */\n      0x20\n        /* \"#utility.yul\":39304:39313   */\n      dup3\n        /* \"#utility.yul\":39295:39302   */\n      dup5\n        /* \"#utility.yul\":39291:39314   */\n      sub\n        /* \"#utility.yul\":39287:39319   */\n      slt\n        /* \"#utility.yul\":39284:39403   */\n      iszero\n      tag_589\n      jumpi\n        /* \"#utility.yul\":39322:39401   */\n      tag_590\n      tag_187\n      jump\t// in\n    tag_590:\n        /* \"#utility.yul\":39284:39403   */\n    tag_589:\n        /* \"#utility.yul\":39463:39464   */\n      0x00\n        /* \"#utility.yul\":39452:39461   */\n      dup3\n        /* \"#utility.yul\":39448:39465   */\n      add\n        /* \"#utility.yul\":39442:39466   */\n      mload\n        /* \"#utility.yul\":39493:39511   */\n      0xffffffffffffffff\n        /* \"#utility.yul\":39485:39491   */\n      dup2\n        /* \"#utility.yul\":39482:39512   */\n      gt\n        /* \"#utility.yul\":39479:39596   */\n      iszero\n      tag_591\n      jumpi\n        /* \"#utility.yul\":39515:39594   */\n      tag_592\n      tag_188\n      jump\t// in\n    tag_592:\n        /* \"#utility.yul\":39479:39596   */\n    tag_591:\n        /* \"#utility.yul\":39620:39712   */\n      tag_593\n        /* \"#utility.yul\":39704:39711   */\n      dup5\n        /* \"#utility.yul\":39695:39701   */\n      dup3\n        /* \"#utility.yul\":39684:39693   */\n      dup6\n        /* \"#utility.yul\":39680:39702   */\n      add\n        /* \"#utility.yul\":39620:39712   */\n      tag_230\n      jump\t// in\n    tag_593:\n        /* \"#utility.yul\":39610:39712   */\n      swap2\n      pop\n        /* \"#utility.yul\":39413:39722   */\n      pop\n        /* \"#utility.yul\":39169:39729   */\n      swap3\n      swap2\n      pop\n      pop\n      jump\t// out\n        /* \"#utility.yul\":39735:39876   */\n    tag_231:\n        /* \"#utility.yul\":39784:39788   */\n      0x00\n        /* \"#utility.yul\":39807:39810   */\n      dup2\n        /* \"#utility.yul\":39799:39810   */\n      swap1\n      pop\n        /* \"#utility.yul\":39830:39833   */\n      dup2\n        /* \"#utility.yul\":39827:39828   */\n      0x00\n        /* \"#utility.yul\":39820:39834   */\n      mstore\n        /* \"#utility.yul\":39864:39868   */\n      0x20\n        /* \"#utility.yul\":39861:39862   */\n      0x00\n        /* \"#utility.yul\":39851:39869   */\n      keccak256\n        /* \"#utility.yul\":39843:39869   */\n      swap1\n      pop\n        /* \"#utility.yul\":39735:39876   */\n      swap2\n      swap1\n      pop\n      jump\t// out\n        /* \"#utility.yul\":39882:39975   */\n    tag_232:\n        /* \"#utility.yul\":39919:39925   */\n      0x00\n        /* \"#utility.yul\":39966:39968   */\n      0x20\n        /* \"#utility.yul\":39961:39963   */\n      0x1f\n        /* \"#utility.yul\":39954:39959   */\n      dup4\n        /* \"#utility.yul\":39950:39964   */\n      add\n        /* \"#utility.yul\":39946:39969   */\n      div\n        /* \"#utility.yul\":39936:39969   */\n      swap1\n      pop\n        /* \"#utility.yul\":39882:39975   */\n      swap2\n      swap1\n      pop\n      jump\t// out\n        /* \"#utility.yul\":39981:40088   */\n    tag_233:\n        /* \"#utility.yul\":40025:40033   */\n      0x00\n        /* \"#utility.yul\":40075:40080   */\n      dup3\n        /* \"#utility.yul\":40069:40073   */\n      dup3\n        /* \"#utility.yul\":40065:40081   */\n      shl\n        /* \"#utility.yul\":40044:40081   */\n      swap1\n      pop\n        /* \"#utility.yul\":39981:40088   */\n      swap3\n      swap2\n      pop\n      pop\n      jump\t// out\n        /* \"#utility.yul\":40094:40487   */\n    tag_234:\n        /* \"#utility.yul\":40163:40169   */\n      0x00\n        /* \"#utility.yul\":40213:40214   */\n      0x08\n        /* \"#utility.yul\":40201:40211   */\n      dup4\n        /* \"#utility.yul\":40197:40215   */\n      mul\n        /* \"#utility.yul\":40236:40333   */\n      tag_598\n        /* \"#utility.yul\":40266:40332   */\n      0xffffffffffffffffffffffffffffffffffffffffffffffffffffffffffffffff\n        /* \"#utility.yul\":40255:40264   */\n      dup3\n        /* \"#utility.yul\":40236:40333   */\n      tag_233\n      jump\t// in\n    tag_598:\n        /* \"#utility.yul\":40354:40393   */\n      tag_599\n        /* \"#utility.yul\":40384:40392   */\n      dup7\n        /* \"#utility.yul\":40373:40382   */\n      dup4\n        /* \"#utility.yul\":40354:40393   */\n      tag_233\n      jump\t// in\n    tag_599:\n        /* \"#utility.yul\":40342:40393   */\n      swap6\n      pop\n        /* \"#utility.yul\":40426:40430   */\n      dup1\n        /* \"#utility.yul\":40422:40431   */\n      not\n        /* \"#utility.yul\":40415:40420   */\n      dup5\n        /* \"#utility.yul\":40411:40432   */\n      and\n        /* \"#utility.yul\":40402:40432   */\n      swap4\n      pop\n        /* \"#utility.yul\":40475:40479   */\n      dup1\n        /* \"#utility.yul\":40465:40473   */\n      dup7\n        /* \"#utility.yul\":40461:40480   */\n      and\n        /* \"#utility.yul\":40454:40459   */\n      dup5\n        /* \"#utility.yul\":40451:40481   */\n      or\n        /* \"#utility.yul\":40441:40481   */\n      swap3\n      pop\n        /* \"#utility.yul\":40170:40487   */\n      pop\n      pop\n        /* \"#utility.yul\":40094:40487   */\n      swap4\n      swap3\n      pop\n      pop\n      pop\n      jump\t// out\n        /* \"#utility.yul\":40493:40570   */\n    tag_235:\n        /* \"#utility.yul\":40530:40537   */\n      0x00\n        /* \"#utility.yul\":40559:40564   */\n      dup2\n        /* \"#utility.yul\":40548:40564   */\n      swap1\n      pop\n        /* \"#utility.yul\":40493:40570   */\n      swap2\n      swap1\n      pop\n      jump\t// out\n        /* \"#utility.yul\":40576:40636   */\n    tag_236:\n        /* \"#utility.yul\":40604:40607   */\n      0x00\n        /* \"#utility.yul\":40625:40630   */\n      dup2\n        /* \"#utility.yul\":40618:40630   */\n      swap1\n      pop\n        /* \"#utility.yul\":40576:40636   */\n      swap2\n      swap1\n      pop\n      jump\t// out\n        /* \"#utility.yul\":40642:40784   */\n    tag_237:\n        /* \"#utility.yul\":40692:40701   */\n      0x00\n        /* \"#utility.yul\":40725:40778   */\n      tag_603\n        /* \"#utility.yul\":40743:40777   */\n      tag_604\n        /* \"#utility.yul\":40752:40776   */\n      tag_605\n        /* \"#utility.yul\":40770:40775   */\n      dup5\n        /* \"#utility.yul\":40752:40776   */\n      tag_235\n      jump\t// in\n    tag_605:\n        /* \"#utility.yul\":40743:40777   */\n      tag_236\n      jump\t// in\n    tag_604:\n        /* \"#utility.yul\":40725:40778   */\n      tag_235\n      jump\t// in\n    tag_603:\n        /* \"#utility.yul\":40712:40778   */\n      swap1\n      pop\n        /* \"#utility.yul\":40642:40784   */\n      swap2\n      swap1\n      pop\n      jump\t// out\n        /* \"#utility.yul\":40790:40865   */\n    tag_238:\n        /* \"#utility.yul\":40833:40836   */\n      0x00\n        /* \"#utility.yul\":40854:40859   */\n      dup2\n        /* \"#utility.yul\":40847:40859   */\n      swap1\n      pop\n        /* \"#utility.yul\":40790:40865   */\n      swap2\n      swap1\n      pop\n      jump\t// out\n        /* \"#utility.yul\":40871:41140   */\n    tag_239:\n        /* \"#utility.yul\":40981:41020   */\n      tag_608\n        /* \"#utility.yul\":41012:41019   */\n      dup4\n        /* \"#utility.yul\":40981:41020   */\n      tag_237\n      jump\t// in\n    tag_608:\n        /* \"#utility.yul\":41042:41133   */\n      tag_609\n        /* \"#utility.yul\":41091:41132   */\n      tag_610\n        /* \"#utility.yul\":41115:41131   */\n      dup3\n        /* \"#utility.yul\":41091:41132   */\n      tag_238\n      jump\t// in\n    tag_610:\n        /* \"#utility.yul\":41083:41089   */\n      dup5\n        /* \"#utility.yul\":41076:41080   */\n      dup5\n        /* \"#utility.yul\":41070:41081   */\n      sload\n        /* \"#utility.yul\":41042:41133   */\n      tag_234\n      jump\t// in\n    tag_609:\n        /* \"#utility.yul\":41036:41040   */\n      dup3\n        /* \"#utility.yul\":41029:41134   */\n      sstore\n        /* \"#utility.yul\":40947:41140   */\n      pop\n        /* \"#utility.yul\":40871:41140   */\n      pop\n      pop\n      pop\n      jump\t// out\n        /* \"#utility.yul\":41146:41219   */\n    tag_240:\n        /* \"#utility.yul\":41191:41194   */\n      0x00\n        /* \"#utility.yul\":41146:41219   */\n      swap1\n      jump\t// out\n        /* \"#utility.yul\":41225:41414   */\n    tag_241:\n        /* \"#utility.yul\":41302:41334   */\n      tag_613\n      tag_240\n      jump\t// in\n    tag_613:\n        /* \"#utility.yul\":41343:41408   */\n      tag_614\n        /* \"#utility.yul\":41401:41407   */\n      dup2\n        /* \"#utility.yul\":41393:41399   */\n      dup5\n        /* \"#utility.yul\":41387:41391   */\n      dup5\n        /* \"#utility.yul\":41343:41408   */\n      tag_239\n      jump\t// in\n    tag_614:\n        /* \"#utility.yul\":41278:41414   */\n      pop\n        /* \"#utility.yul\":41225:41414   */\n      pop\n      pop\n      jump\t// out\n        /* \"#utility.yul\":41420:41606   */\n    tag_242:\n        /* \"#utility.yul\":41480:41600   */\n    tag_616:\n        /* \"#utility.yul\":41497:41500   */\n      dup2\n        /* \"#utility.yul\":41490:41495   */\n      dup2\n        /* \"#utility.yul\":41487:41501   */\n      lt\n        /* \"#utility.yul\":41480:41600   */\n      iszero\n      tag_618\n      jumpi\n        /* \"#utility.yul\":41551:41590   */\n      tag_619\n        /* \"#utility.yul\":41588:41589   */\n      0x00\n        /* \"#utility.yul\":41581:41586   */\n      dup3\n        /* \"#utility.yul\":41551:41590   */\n      tag_241\n      jump\t// in\n    tag_619:\n        /* \"#utility.yul\":41524:41525   */\n      0x01\n        /* \"#utility.yul\":41517:41522   */\n      dup2\n        /* \"#utility.yul\":41513:41526   */\n      add\n        /* \"#utility.yul\":41504:41526   */\n      swap1\n      pop\n        /* \"#utility.yul\":41480:41600   */\n      jump(tag_616)\n    tag_618:\n        /* \"#utility.yul\":41420:41606   */\n      pop\n      pop\n      jump\t// out\n        /* \"#utility.yul\":41612:42155   */\n    tag_243:\n        /* \"#utility.yul\":41713:41715   */\n      0x1f\n        /* \"#utility.yul\":41708:41711   */\n      dup3\n        /* \"#utility.yul\":41705:41716   */\n      gt\n        /* \"#utility.yul\":41702:42148   */\n      iszero\n      tag_621\n      jumpi\n        /* \"#utility.yul\":41747:41785   */\n      tag_622\n        /* \"#utility.yul\":41779:41784   */\n      dup2\n        /* \"#utility.yul\":41747:41785   */\n      tag_231\n      jump\t// in\n    tag_622:\n        /* \"#utility.yul\":41831:41860   */\n      tag_623\n        /* \"#utility.yul\":41849:41859   */\n      dup5\n        /* \"#utility.yul\":41831:41860   */\n      tag_232\n      jump\t// in\n    tag_623:\n        /* \"#utility.yul\":41821:41829   */\n      dup2\n        /* \"#utility.yul\":41817:41861   */\n      add\n        /* \"#utility.yul\":42014:42016   */\n      0x20\n        /* \"#utility.yul\":42002:42012   */\n      dup6\n        /* \"#utility.yul\":41999:42017   */\n      lt\n        /* \"#utility.yul\":41996:42045   */\n      iszero\n      tag_624\n      jumpi\n        /* \"#utility.yul\":42035:42043   */\n      dup2\n        /* \"#utility.yul\":42020:42043   */\n      swap1\n      pop\n        /* \"#utility.yul\":41996:42045   */\n    tag_624:\n        /* \"#utility.yul\":42058:42138   */\n      tag_625\n        /* \"#utility.yul\":42114:42136   */\n      tag_626\n        /* \"#utility.yul\":42132:42135   */\n      dup6\n        /* \"#utility.yul\":42114:42136   */\n      tag_232\n      jump\t// in\n    tag_626:\n        /* \"#utility.yul\":42104:42112   */\n      dup4\n        /* \"#utility.yul\":42100:42137   */\n      add\n        /* \"#utility.yul\":42087:42098   */\n      dup3\n        /* \"#utility.yul\":42058:42138   */\n      tag_242\n      jump\t// in\n    tag_625:\n        /* \"#utility.yul\":41717:42148   */\n      pop\n      pop\n        /* \"#utility.yul\":41702:42148   */\n    tag_621:\n        /* \"#utility.yul\":41612:42155   */\n      pop\n      pop\n      pop\n      jump\t// out\n        /* \"#utility.yul\":42161:42278   */\n    tag_244:\n        /* \"#utility.yul\":42215:42223   */\n      0x00\n        /* \"#utility.yul\":42265:42270   */\n      dup3\n        /* \"#utility.yul\":42259:42263   */\n      dup3\n        /* \"#utility.yul\":42255:42271   */\n      shr\n        /* \"#utility.yul\":42234:42271   */\n      swap1\n      pop\n        /* \"#utility.yul\":42161:42278   */\n      swap3\n      swap2\n      pop\n      pop\n      jump\t// out\n        /* \"#utility.yul\":42284:42453   */\n    tag_245:\n        /* \"#utility.yul\":42328:42334   */\n      0x00\n        /* \"#utility.yul\":42361:42412   */\n      tag_629\n        /* \"#utility.yul\":42409:42410   */\n      0x00\n        /* \"#utility.yul\":42405:42411   */\n      not\n        /* \"#utility.yul\":42397:42402   */\n      dup5\n        /* \"#utility.yul\":42394:42395   */\n      0x08\n        /* \"#utility.yul\":42390:42403   */\n      mul\n        /* \"#utility.yul\":42361:42412   */\n      tag_244\n      jump\t// in\n    tag_629:\n        /* \"#utility.yul\":42357:42413   */\n      not\n        /* \"#utility.yul\":42442:42446   */\n      dup1\n        /* \"#utility.yul\":42436:42440   */\n      dup4\n        /* \"#utility.yul\":42432:42447   */\n      and\n        /* \"#utility.yul\":42422:42447   */\n      swap2\n      pop\n        /* \"#utility.yul\":42335:42453   */\n      pop\n        /* \"#utility.yul\":42284:42453   */\n      swap3\n      swap2\n      pop\n      pop\n      jump\t// out\n        /* \"#utility.yul\":42458:42753   */\n    tag_246:\n        /* \"#utility.yul\":42534:42538   */\n      0x00\n        /* \"#utility.yul\":42680:42709   */\n      tag_631\n        /* \"#utility.yul\":42705:42708   */\n      dup4\n        /* \"#utility.yul\":42699:42703   */\n      dup4\n        /* \"#utility.yul\":42680:42709   */\n      tag_245\n      jump\t// in\n    tag_631:\n        /* \"#utility.yul\":42672:42709   */\n      swap2\n      pop\n        /* \"#utility.yul\":42742:42745   */\n      dup3\n        /* \"#utility.yul\":42739:42740   */\n      0x02\n        /* \"#utility.yul\":42735:42746   */\n      mul\n        /* \"#utility.yul\":42729:42733   */\n      dup3\n        /* \"#utility.yul\":42726:42747   */\n      or\n        /* \"#utility.yul\":42718:42747   */\n      swap1\n      pop\n        /* \"#utility.yul\":42458:42753   */\n      swap3\n      swap2\n      pop\n      pop\n      jump\t// out\n        /* \"#utility.yul\":42758:44153   */\n    tag_63:\n        /* \"#utility.yul\":42875:42912   */\n      tag_633\n        /* \"#utility.yul\":42908:42911   */\n      dup3\n        /* \"#utility.yul\":42875:42912   */\n      tag_134\n      jump\t// in\n    tag_633:\n        /* \"#utility.yul\":42977:42995   */\n      0xffffffffffffffff\n        /* \"#utility.yul\":42969:42975   */\n      dup2\n        /* \"#utility.yul\":42966:42996   */\n      gt\n        /* \"#utility.yul\":42963:43019   */\n      iszero\n      tag_634\n      jumpi\n        /* \"#utility.yul\":42999:43017   */\n      tag_635\n      tag_87\n      jump\t// in\n    tag_635:\n        /* \"#utility.yul\":42963:43019   */\n    tag_634:\n        /* \"#utility.yul\":43043:43081   */\n      tag_636\n        /* \"#utility.yul\":43075:43079   */\n      dup3\n        /* \"#utility.yul\":43069:43080   */\n      sload\n        /* \"#utility.yul\":43043:43081   */\n      tag_31\n      jump\t// in\n    tag_636:\n        /* \"#utility.yul\":43128:43195   */\n      tag_637\n        /* \"#utility.yul\":43188:43194   */\n      dup3\n        /* \"#utility.yul\":43180:43186   */\n      dup3\n        /* \"#utility.yul\":43174:43178   */\n      dup6\n        /* \"#utility.yul\":43128:43195   */\n      tag_243\n      jump\t// in\n    tag_637:\n        /* \"#utility.yul\":43222:43223   */\n      0x00\n        /* \"#utility.yul\":43246:43250   */\n      0x20\n        /* \"#utility.yul\":43233:43250   */\n      swap1\n      pop\n        /* \"#utility.yul\":43278:43280   */\n      0x1f\n        /* \"#utility.yul\":43270:43276   */\n      dup4\n        /* \"#utility.yul\":43267:43281   */\n      gt\n        /* \"#utility.yul\":43295:43296   */\n      0x01\n        /* \"#utility.yul\":43290:43908   */\n      dup2\n      eq\n      tag_639\n      jumpi\n        /* \"#utility.yul\":43952:43953   */\n      0x00\n        /* \"#utility.yul\":43969:43975   */\n      dup5\n        /* \"#utility.yul\":43966:44043   */\n      iszero\n      tag_640\n      jumpi\n        /* \"#utility.yul\":44018:44027   */\n      dup3\n        /* \"#utility.yul\":44013:44016   */\n      dup8\n        /* \"#utility.yul\":44009:44028   */\n      add\n        /* \"#utility.yul\":44003:44029   */\n      mload\n        /* \"#utility.yul\":43994:44029   */\n      swap1\n      pop\n        /* \"#utility.yul\":43966:44043   */\n    tag_640:\n        /* \"#utility.yul\":44069:44136   */\n      tag_641\n        /* \"#utility.yul\":44129:44135   */\n      dup6\n        /* \"#utility.yul\":44122:44127   */\n      dup3\n        /* \"#utility.yul\":44069:44136   */\n      tag_246\n      jump\t// in\n    tag_641:\n        /* \"#utility.yul\":44063:44067   */\n      dup7\n        /* \"#utility.yul\":44056:44137   */\n      sstore\n        /* \"#utility.yul\":43925:44147   */\n      pop\n        /* \"#utility.yul\":43260:44147   */\n      jump(tag_638)\n        /* \"#utility.yul\":43290:43908   */\n    tag_639:\n        /* \"#utility.yul\":43342:43346   */\n      0x1f\n        /* \"#utility.yul\":43338:43347   */\n      not\n        /* \"#utility.yul\":43330:43336   */\n      dup5\n        /* \"#utility.yul\":43326:43348   */\n      and\n        /* \"#utility.yul\":43376:43413   */\n      tag_642\n        /* \"#utility.yul\":43408:43412   */\n      dup7\n        /* \"#utility.yul\":43376:43413   */\n      tag_231\n      jump\t// in\n    tag_642:\n        /* \"#utility.yul\":43435:43436   */\n      0x00\n        /* \"#utility.yul\":43449:43657   */\n    tag_643:\n        /* \"#utility.yul\":43463:43470   */\n      dup3\n        /* \"#utility.yul\":43460:43461   */\n      dup2\n        /* \"#utility.yul\":43457:43471   */\n      lt\n        /* \"#utility.yul\":43449:43657   */\n      iszero\n      tag_645\n      jumpi\n        /* \"#utility.yul\":43542:43551   */\n      dup5\n        /* \"#utility.yul\":43537:43540   */\n      dup10\n        /* \"#utility.yul\":43533:43552   */\n      add\n        /* \"#utility.yul\":43527:43553   */\n      mload\n        /* \"#utility.yul\":43519:43525   */\n      dup3\n        /* \"#utility.yul\":43512:43554   */\n      sstore\n        /* \"#utility.yul\":43593:43594   */\n      0x01\n        /* \"#utility.yul\":43585:43591   */\n      dup3\n        /* \"#utility.yul\":43581:43595   */\n      add\n        /* \"#utility.yul\":43571:43595   */\n      swap2\n      pop\n        /* \"#utility.yul\":43640:43642   */\n      0x20\n        /* \"#utility.yul\":43629:43638   */\n      dup6\n        /* \"#utility.yul\":43625:43643   */\n      add\n        /* \"#utility.yul\":43612:43643   */\n      swap5\n      pop\n        /* \"#utility.yul\":43486:43490   */\n      0x20\n        /* \"#utility.yul\":43483:43484   */\n      dup2\n        /* \"#utility.yul\":43479:43491   */\n      add\n        /* \"#utility.yul\":43474:43491   */\n      swap1\n      pop\n        /* \"#utility.yul\":43449:43657   */\n      jump(tag_643)\n    tag_645:\n        /* \"#utility.yul\":43685:43691   */\n      dup7\n        /* \"#utility.yul\":43676:43683   */\n      dup4\n        /* \"#utility.yul\":43673:43692   */\n      lt\n        /* \"#utility.yul\":43670:43849   */\n      iszero\n      tag_646\n      jumpi\n        /* \"#utility.yul\":43743:43752   */\n      dup5\n        /* \"#utility.yul\":43738:43741   */\n      dup10\n        /* \"#utility.yul\":43734:43753   */\n      add\n        /* \"#utility.yul\":43728:43754   */\n      mload\n        /* \"#utility.yul\":43786:43834   */\n      tag_647\n        /* \"#utility.yul\":43828:43832   */\n      0x1f\n        /* \"#utility.yul\":43820:43826   */\n      dup10\n        /* \"#utility.yul\":43816:43833   */\n      and\n        /* \"#utility.yul\":43805:43814   */\n      dup3\n        /* \"#utility.yul\":43786:43834   */\n      tag_245\n      jump\t// in\n    tag_647:\n        /* \"#utility.yul\":43778:43784   */\n      dup4\n        /* \"#utility.yul\":43771:43835   */\n      sstore\n        /* \"#utility.yul\":43693:43849   */\n      pop\n        /* \"#utility.yul\":43670:43849   */\n    tag_646:\n        /* \"#utility.yul\":43895:43896   */\n      0x01\n        /* \"#utility.yul\":43891:43892   */\n      0x02\n        /* \"#utility.yul\":43883:43889   */\n      dup9\n        /* \"#utility.yul\":43879:43893   */\n      mul\n        /* \"#utility.yul\":43875:43897   */\n      add\n        /* \"#utility.yul\":43869:43873   */\n      dup9\n        /* \"#utility.yul\":43862:43898   */\n      sstore\n        /* \"#utility.yul\":43297:43908   */\n      pop\n      pop\n      pop\n        /* \"#utility.yul\":43260:44147   */\n    tag_638:\n      pop\n        /* \"#utility.yul\":42850:44153   */\n      pop\n      pop\n      pop\n        /* \"#utility.yul\":42758:44153   */\n      pop\n      pop\n      jump\t// out\n        /* \"#utility.yul\":44159:44339   */\n    tag_106:\n        /* \"#utility.yul\":44207:44284   */\n      0x4e487b7100000000000000000000000000000000000000000000000000000000\n        /* \"#utility.yul\":44204:44205   */\n      0x00\n        /* \"#utility.yul\":44197:44285   */\n      mstore\n        /* \"#utility.yul\":44304:44308   */\n      0x32\n        /* \"#utility.yul\":44301:44302   */\n      0x04\n        /* \"#utility.yul\":44294:44309   */\n      mstore\n        /* \"#utility.yul\":44328:44332   */\n      0x24\n        /* \"#utility.yul\":44325:44326   */\n      0x00\n        /* \"#utility.yul\":44318:44333   */\n      revert\n    stop\n    data_3f2f14e363c0fee08dc4f1fa6f0a9661e53cd7b46ec08752c03200dc71e09685 6d6574612d6c6c616d612f4d6574612d4c6c616d612d332d38422d496e737472756374\n    data_8f23d9e0330573bf46adfac85abd5be0e856a65ec30b3850de968b37c8398ca5 416e642049207468696e6b20746f206d7973656c662c2057686174206120776f6e64657266756c20776f726c640a3c73746172743e\n    data_f4da665ee6fc96cf56122fca1859b5d7132aa9b5fc976350c10115db56bc12ff 4920736565207472656573206f6620677265656e2c2072656420726f73657320746f6f2c204920736565207468656d20626c6f6f6d20666f72206d6520616e6420796f750a3c73746172743e\n\n    auxdata: 0xa2646970667358221220e577785311376ca8848f28b0c4a860b43582a38c435036de2844692a7ef27e7864736f6c63430008190033\n}\n",
				"bytecode": {
					"linkReferences": {},
					"object": "6080604052348015600e575f80fd5b50611ef28061001c5f395ff3fe608060405234801561000f575f80fd5b506004361061007b575f3560e01c80637a998900116100595780637a998900146100c65780637b89dc9f146100e5578063a7d97dc2146100ef578063c0406226146100f95761007b565b8063454e33e31461007f5780635a61dd9e1461009d57806365372147146100a7575b5f80fd5b610087610103565b6040516100949190610af5565b60405180910390f35b6100a561018e565b005b6100af610265565b6040516100bd929190610b30565b60405180910390f35b6100ce610292565b6040516100dc929190610b30565b60405180910390f35b6100ed6102bb565b005b6100f76103d3565b005b6101016104eb565b005b5f805461010f90610b84565b80601f016020809104026020016040519081016040528092919081815260200182805461013b90610b84565b80156101865780601f1061015d57610100808354040283529160200191610186565b820191905f5260205f20905b81548152906001019060200180831161016957829003601f168201915b505050505081565b5f60f473ffffffffffffffffffffffffffffffffffffffff16637289e9c260405180606001604052805f60028111156101ca576101c9610bb4565b5b8152602001604051806060016040528060238152602001611e196023913981526020016101f56105c3565b8152506040518263ffffffff1660e01b8152600401610214919061117b565b5f604051808303815f875af115801561022f573d5f803e3d5ffd5b505050506040513d5f823e3d601f19601f820116820180604052508101906102579190611999565b9050610262816107cd565b50565b5f8060015f015f9054906101000a9004600f0b60015f0160109054906101000a9004600f0b915091509091565b6001805f015f9054906101000a9004600f0b90805f0160109054906101000a9004600f0b905082565b5f60f473ffffffffffffffffffffffffffffffffffffffff1663ea3dd5166040518060c001604052805f60018111156102f7576102f6610bb4565b5b8152602001604051806060016040528060238152602001611e196023913981526020016040518060800160405280604c8152602001611e71604c913981526020016103e863ffffffff16815260200161034e6108bb565b81526020015f63ffffffff168152506040518263ffffffff1660e01b81526004016103799190611aba565b5f604051808303815f875af1158015610394573d5f803e3d5ffd5b505050506040513d5f823e3d601f19601f820116820180604052508101906103bc9190611b2f565b9050805f01515f90816103cf9190611d1c565b5050565b5f60f473ffffffffffffffffffffffffffffffffffffffff1663ea3dd5166040518060c0016040528060018081111561040f5761040e610bb4565b5b8152602001604051806060016040528060238152602001611e19602391398152602001604051806060016040528060358152602001611e3c6035913981526020016103e863ffffffff1681526020016104666108bb565b81526020015f63ffffffff168152506040518263ffffffff1660e01b81526004016104919190611aba565b5f604051808303815f875af11580156104ac573d5f803e3d5ffd5b505050506040513d5f823e3d601f19601f820116820180604052508101906104d49190611b2f565b9050805f01515f90816104e79190611d1c565b5050565b5f60f473ffffffffffffffffffffffffffffffffffffffff16637289e9c260405180606001604052806001600281111561052857610527610bb4565b5b8152602001604051806060016040528060238152602001611e196023913981526020016105536105c3565b8152506040518263ffffffff1660e01b8152600401610572919061117b565b5f604051808303815f875af115801561058d573d5f803e3d5ffd5b505050506040513d5f823e3d601f19601f820116820180604052508101906105b59190611999565b90506105c0816107cd565b50565b6105cb610a12565b5f6040518060400160405280600167ffffffffffffffff8111156105f2576105f16111b0565b5b60405190808252806020026020018201604052801561062b57816020015b610618610a2c565b8152602001906001900390816106105790505b5081526020015f67ffffffffffffffff81111561064b5761064a6111b0565b5b60405190808252806020026020018201604052801561068457816020015b610671610a4d565b8152602001906001900390816106695790505b5081525090505f600267ffffffffffffffff8111156106a6576106a56111b0565b5b6040519080825280602002602001820160405280156106df57816020015b6106cc610a67565b8152602001906001900390816106c45790505b50905060405180604001604052806619e33255c6ae4b600f0b81526020016011600f0b815250815f8151811061071857610717611deb565b5b60200260200101819052506040518060400160405280660ff03f7abfce77600f0b81526020016010600f0b8152508160018151811061075a57610759611deb565b5b60200260200101819052506107a46040518060400160405280600581526020017f696e7075740000000000000000000000000000000000000000000000000000008152508261096a565b825f01515f815181106107ba576107b9611deb565b5b6020026020010181905250819250505090565b806040015161081757805f01515f815181106107ec576107eb611deb565b5b6020026020010151602001515f8151811061080a57610809611deb565b5b6020026020010151610833565b60405180604001604052805f600f0b81526020015f600f0b8152505b60015f820151815f015f6101000a8154816fffffffffffffffffffffffffffffffff0219169083600f0b6fffffffffffffffffffffffffffffffff1602179055506020820151815f0160106101000a8154816fffffffffffffffffffffffffffffffff0219169083600f0b6fffffffffffffffffffffffffffffffff16021790555090505050565b60605f600167ffffffffffffffff8111156108d9576108d86111b0565b5b60405190808252806020026020018201604052801561090c57816020015b60608152602001906001900390816108f75790505b5090506040518060400160405280600581526020017f3c656e643e000000000000000000000000000000000000000000000000000000815250815f8151811061095857610957611deb565b5b60200260200101819052508091505090565b610972610a2c565b5f600167ffffffffffffffff81111561098e5761098d6111b0565b5b6040519080825280602002602001820160405280156109bc5781602001602082028036833780820191505090505b5090508251815f815181106109d4576109d3611deb565b5b602002602001019063ffffffff16908163ffffffff168152505060405180606001604052808581526020018481526020018281525091505092915050565b604051806040016040528060608152602001606081525090565b60405180606001604052806060815260200160608152602001606081525090565b604051806040016040528060608152602001606081525090565b60405180604001604052805f600f0b81526020015f600f0b81525090565b5f81519050919050565b5f82825260208201905092915050565b8281835e5f83830152505050565b5f601f19601f8301169050919050565b5f610ac782610a85565b610ad18185610a8f565b9350610ae1818560208601610a9f565b610aea81610aad565b840191505092915050565b5f6020820190508181035f830152610b0d8184610abd565b905092915050565b5f81600f0b9050919050565b610b2a81610b15565b82525050565b5f604082019050610b435f830185610b21565b610b506020830184610b21565b9392505050565b7f4e487b71000000000000000000000000000000000000000000000000000000005f52602260045260245ffd5b5f6002820490506001821680610b9b57607f821691505b602082108103610bae57610bad610b57565b5b50919050565b7f4e487b71000000000000000000000000000000000000000000000000000000005f52602160045260245ffd5b60038110610bf257610bf1610bb4565b5b50565b5f819050610c0282610be1565b919050565b5f610c1182610bf5565b9050919050565b610c2181610c07565b82525050565b5f82825260208201905092915050565b5f610c4182610a85565b610c4b8185610c27565b9350610c5b818560208601610a9f565b610c6481610aad565b840191505092915050565b5f81519050919050565b5f82825260208201905092915050565b5f819050602082019050919050565b5f81519050919050565b5f82825260208201905092915050565b5f819050602082019050919050565b610cca81610b15565b82525050565b604082015f820151610ce45f850182610cc1565b506020820151610cf76020850182610cc1565b50505050565b5f610d088383610cd0565b60408301905092915050565b5f602082019050919050565b5f610d2a82610c98565b610d348185610ca2565b9350610d3f83610cb2565b805f5b83811015610d6f578151610d568882610cfd565b9750610d6183610d14565b925050600181019050610d42565b5085935050505092915050565b5f81519050919050565b5f82825260208201905092915050565b5f819050602082019050919050565b5f63ffffffff82169050919050565b610dbd81610da5565b82525050565b5f610dce8383610db4565b60208301905092915050565b5f602082019050919050565b5f610df082610d7c565b610dfa8185610d86565b9350610e0583610d96565b805f5b83811015610e35578151610e1c8882610dc3565b9750610e2783610dda565b925050600181019050610e08565b5085935050505092915050565b5f606083015f8301518482035f860152610e5c8282610c37565b91505060208301518482036020860152610e768282610d20565b91505060408301518482036040860152610e908282610de6565b9150508091505092915050565b5f610ea88383610e42565b905092915050565b5f602082019050919050565b5f610ec682610c6f565b610ed08185610c79565b935083602082028501610ee285610c89565b805f5b85811015610f1d5784840389528151610efe8582610e9d565b9450610f0983610eb0565b925060208a01995050600181019050610ee5565b50829750879550505050505092915050565b5f81519050919050565b5f82825260208201905092915050565b5f819050602082019050919050565b5f81519050919050565b5f82825260208201905092915050565b5f819050602082019050919050565b5f610f8c8383610c37565b905092915050565b5f602082019050919050565b5f610faa82610f58565b610fb48185610f62565b935083602082028501610fc685610f72565b805f5b858110156110015784840389528151610fe28582610f81565b9450610fed83610f94565b925060208a01995050600181019050610fc9565b50829750879550505050505092915050565b5f604083015f8301518482035f86015261102d8282610c37565b915050602083015184820360208601526110478282610fa0565b9150508091505092915050565b5f61105f8383611013565b905092915050565b5f602082019050919050565b5f61107d82610f2f565b6110878185610f39565b93508360208202850161109985610f49565b805f5b858110156110d457848403895281516110b58582611054565b94506110c083611067565b925060208a0199505060018101905061109c565b50829750879550505050505092915050565b5f604083015f8301518482035f8601526111008282610ebc565b9150506020830151848203602086015261111a8282611073565b9150508091505092915050565b5f606083015f83015161113c5f860182610c18565b50602083015184820360208601526111548282610c37565b9150506040830151848203604086015261116e82826110e6565b9150508091505092915050565b5f6020820190508181035f8301526111938184611127565b905092915050565b5f604051905090565b5f80fd5b5f80fd5b5f80fd5b7f4e487b71000000000000000000000000000000000000000000000000000000005f52604160045260245ffd5b6111e682610aad565b810181811067ffffffffffffffff82111715611205576112046111b0565b5b80604052505050565b5f61121761119b565b905061122382826111dd565b919050565b5f80fd5b5f80fd5b5f67ffffffffffffffff82111561124a576112496111b0565b5b602082029050602081019050919050565b5f80fd5b5f80fd5b5f67ffffffffffffffff82111561127d5761127c6111b0565b5b61128682610aad565b9050602081019050919050565b5f6112a56112a084611263565b61120e565b9050828152602081018484840111156112c1576112c061125f565b5b6112cc848285610a9f565b509392505050565b5f82601f8301126112e8576112e761122c565b5b81516112f8848260208601611293565b91505092915050565b5f67ffffffffffffffff82111561131b5761131a6111b0565b5b602082029050602081019050919050565b61133581610b15565b811461133f575f80fd5b50565b5f815190506113508161132c565b92915050565b5f6040828403121561136b5761136a6111ac565b5b611375604061120e565b90505f61138484828501611342565b5f83015250602061139784828501611342565b60208301525092915050565b5f6113b56113b084611301565b61120e565b905080838252602082019050604084028301858111156113d8576113d761125b565b5b835b8181101561140157806113ed8882611356565b8452602084019350506040810190506113da565b5050509392505050565b5f82601f83011261141f5761141e61122c565b5b815161142f8482602086016113a3565b91505092915050565b5f67ffffffffffffffff821115611452576114516111b0565b5b602082029050602081019050919050565b61146c81610da5565b8114611476575f80fd5b50565b5f8151905061148781611463565b92915050565b5f61149f61149a84611438565b61120e565b905080838252602082019050602084028301858111156114c2576114c161125b565b5b835b818110156114eb57806114d78882611479565b8452602084019350506020810190506114c4565b5050509392505050565b5f82601f8301126115095761150861122c565b5b815161151984826020860161148d565b91505092915050565b5f60608284031215611537576115366111ac565b5b611541606061120e565b90505f82015167ffffffffffffffff8111156115605761155f611228565b5b61156c848285016112d4565b5f83015250602082015167ffffffffffffffff81111561158f5761158e611228565b5b61159b8482850161140b565b602083015250604082015167ffffffffffffffff8111156115bf576115be611228565b5b6115cb848285016114f5565b60408301525092915050565b5f6115e96115e484611230565b61120e565b9050808382526020820190506020840283018581111561160c5761160b61125b565b5b835b8181101561165357805167ffffffffffffffff8111156116315761163061122c565b5b80860161163e8982611522565b8552602085019450505060208101905061160e565b5050509392505050565b5f82601f8301126116715761167061122c565b5b81516116818482602086016115d7565b91505092915050565b5f67ffffffffffffffff8211156116a4576116a36111b0565b5b602082029050602081019050919050565b5f67ffffffffffffffff8211156116cf576116ce6111b0565b5b602082029050602081019050919050565b5f6116f26116ed846116b5565b61120e565b905080838252602082019050602084028301858111156117155761171461125b565b5b835b8181101561175c57805167ffffffffffffffff81111561173a5761173961122c565b5b80860161174789826112d4565b85526020850194505050602081019050611717565b5050509392505050565b5f82601f83011261177a5761177961122c565b5b815161178a8482602086016116e0565b91505092915050565b5f604082840312156117a8576117a76111ac565b5b6117b2604061120e565b90505f82015167ffffffffffffffff8111156117d1576117d0611228565b5b6117dd848285016112d4565b5f83015250602082015167ffffffffffffffff811115611800576117ff611228565b5b61180c84828501611766565b60208301525092915050565b5f61182a6118258461168a565b61120e565b9050808382526020820190506020840283018581111561184d5761184c61125b565b5b835b8181101561189457805167ffffffffffffffff8111156118725761187161122c565b5b80860161187f8982611793565b8552602085019450505060208101905061184f565b5050509392505050565b5f82601f8301126118b2576118b161122c565b5b81516118c2848260208601611818565b91505092915050565b5f8115159050919050565b6118df816118cb565b81146118e9575f80fd5b50565b5f815190506118fa816118d6565b92915050565b5f60608284031215611915576119146111ac565b5b61191f606061120e565b90505f82015167ffffffffffffffff81111561193e5761193d611228565b5b61194a8482850161165d565b5f83015250602082015167ffffffffffffffff81111561196d5761196c611228565b5b6119798482850161189e565b602083015250604061198d848285016118ec565b60408301525092915050565b5f602082840312156119ae576119ad6111a4565b5b5f82015167ffffffffffffffff8111156119cb576119ca6111a8565b5b6119d784828501611900565b91505092915050565b600281106119f1576119f0610bb4565b5b50565b5f819050611a01826119e0565b919050565b5f611a10826119f4565b9050919050565b611a2081611a06565b82525050565b5f60c083015f830151611a3b5f860182611a17565b5060208301518482036020860152611a538282610c37565b91505060408301518482036040860152611a6d8282610c37565b9150506060830151611a826060860182610db4565b5060808301518482036080860152611a9a8282610fa0565b91505060a0830151611aaf60a0860182610db4565b508091505092915050565b5f6020820190508181035f830152611ad28184611a26565b905092915050565b5f60208284031215611aef57611aee6111ac565b5b611af9602061120e565b90505f82015167ffffffffffffffff811115611b1857611b17611228565b5b611b24848285016112d4565b5f8301525092915050565b5f60208284031215611b4457611b436111a4565b5b5f82015167ffffffffffffffff811115611b6157611b606111a8565b5b611b6d84828501611ada565b91505092915050565b5f819050815f5260205f209050919050565b5f6020601f8301049050919050565b5f82821b905092915050565b5f60088302611bd27fffffffffffffffffffffffffffffffffffffffffffffffffffffffffffffffff82611b97565b611bdc8683611b97565b95508019841693508086168417925050509392505050565b5f819050919050565b5f819050919050565b5f611c20611c1b611c1684611bf4565b611bfd565b611bf4565b9050919050565b5f819050919050565b611c3983611c06565b611c4d611c4582611c27565b848454611ba3565b825550505050565b5f90565b611c61611c55565b611c6c818484611c30565b505050565b5b81811015611c8f57611c845f82611c59565b600181019050611c72565b5050565b601f821115611cd457611ca581611b76565b611cae84611b88565b81016020851015611cbd578190505b611cd1611cc985611b88565b830182611c71565b50505b505050565b5f82821c905092915050565b5f611cf45f1984600802611cd9565b1980831691505092915050565b5f611d0c8383611ce5565b9150826002028217905092915050565b611d2582610a85565b67ffffffffffffffff811115611d3e57611d3d6111b0565b5b611d488254610b84565b611d53828285611c93565b5f60209050601f831160018114611d84575f8415611d72578287015190505b611d7c8582611d01565b865550611de3565b601f198416611d9286611b76565b5f5b82811015611db957848901518255600182019150602085019450602081019050611d94565b86831015611dd65784890151611dd2601f891682611ce5565b8355505b6001600288020188555050505b505050505050565b7f4e487b71000000000000000000000000000000000000000000000000000000005f52603260045260245ffdfe6d6574612d6c6c616d612f4d6574612d4c6c616d612d332d38422d496e737472756374416e642049207468696e6b20746f206d7973656c662c2057686174206120776f6e64657266756c20776f726c640a3c73746172743e4920736565207472656573206f6620677265656e2c2072656420726f73657320746f6f2c204920736565207468656d20626c6f6f6d20666f72206d6520616e6420796f750a3c73746172743ea2646970667358221220e577785311376ca8848f28b0c4a860b43582a38c435036de2844692a7ef27e7864736f6c63430008190033",
					"opcodes": "PUSH1 0x80 PUSH1 0x40 MSTORE CALLVALUE DUP1 ISZERO PUSH1 0xE JUMPI PUSH0 DUP1 REVERT JUMPDEST POP PUSH2 0x1EF2 DUP1 PUSH2 0x1C PUSH0 CODECOPY PUSH0 RETURN INVALID PUSH1 0x80 PUSH1 0x40 MSTORE CALLVALUE DUP1 ISZERO PUSH2 0xF JUMPI PUSH0 DUP1 REVERT JUMPDEST POP PUSH1 0x4 CALLDATASIZE LT PUSH2 0x7B JUMPI PUSH0 CALLDATALOAD PUSH1 0xE0 SHR DUP1 PUSH4 0x7A998900 GT PUSH2 0x59 JUMPI DUP1 PUSH4 0x7A998900 EQ PUSH2 0xC6 JUMPI DUP1 PUSH4 0x7B89DC9F EQ PUSH2 0xE5 JUMPI DUP1 PUSH4 0xA7D97DC2 EQ PUSH2 0xEF JUMPI DUP1 PUSH4 0xC0406226 EQ PUSH2 0xF9 JUMPI PUSH2 0x7B JUMP JUMPDEST DUP1 PUSH4 0x454E33E3 EQ PUSH2 0x7F JUMPI DUP1 PUSH4 0x5A61DD9E EQ PUSH2 0x9D JUMPI DUP1 PUSH4 0x65372147 EQ PUSH2 0xA7 JUMPI JUMPDEST PUSH0 DUP1 REVERT JUMPDEST PUSH2 0x87 PUSH2 0x103 JUMP JUMPDEST PUSH1 0x40 MLOAD PUSH2 0x94 SWAP2 SWAP1 PUSH2 0xAF5 JUMP JUMPDEST PUSH1 0x40 MLOAD DUP1 SWAP2 SUB SWAP1 RETURN JUMPDEST PUSH2 0xA5 PUSH2 0x18E JUMP JUMPDEST STOP JUMPDEST PUSH2 0xAF PUSH2 0x265 JUMP JUMPDEST PUSH1 0x40 MLOAD PUSH2 0xBD SWAP3 SWAP2 SWAP1 PUSH2 0xB30 JUMP JUMPDEST PUSH1 0x40 MLOAD DUP1 SWAP2 SUB SWAP1 RETURN JUMPDEST PUSH2 0xCE PUSH2 0x292 JUMP JUMPDEST PUSH1 0x40 MLOAD PUSH2 0xDC SWAP3 SWAP2 SWAP1 PUSH2 0xB30 JUMP JUMPDEST PUSH1 0x40 MLOAD DUP1 SWAP2 SUB SWAP1 RETURN JUMPDEST PUSH2 0xED PUSH2 0x2BB JUMP JUMPDEST STOP JUMPDEST PUSH2 0xF7 PUSH2 0x3D3 JUMP JUMPDEST STOP JUMPDEST PUSH2 0x101 PUSH2 0x4EB JUMP JUMPDEST STOP JUMPDEST PUSH0 DUP1 SLOAD PUSH2 0x10F SWAP1 PUSH2 0xB84 JUMP JUMPDEST DUP1 PUSH1 0x1F ADD PUSH1 0x20 DUP1 SWAP2 DIV MUL PUSH1 0x20 ADD PUSH1 0x40 MLOAD SWAP1 DUP2 ADD PUSH1 0x40 MSTORE DUP1 SWAP3 SWAP2 SWAP1 DUP2 DUP2 MSTORE PUSH1 0x20 ADD DUP3 DUP1 SLOAD PUSH2 0x13B SWAP1 PUSH2 0xB84 JUMP JUMPDEST DUP1 ISZERO PUSH2 0x186 JUMPI DUP1 PUSH1 0x1F LT PUSH2 0x15D JUMPI PUSH2 0x100 DUP1 DUP4 SLOAD DIV MUL DUP4 MSTORE SWAP2 PUSH1 0x20 ADD SWAP2 PUSH2 0x186 JUMP JUMPDEST DUP3 ADD SWAP2 SWAP1 PUSH0 MSTORE PUSH1 0x20 PUSH0 KECCAK256 SWAP1 JUMPDEST DUP2 SLOAD DUP2 MSTORE SWAP1 PUSH1 0x1 ADD SWAP1 PUSH1 0x20 ADD DUP1 DUP4 GT PUSH2 0x169 JUMPI DUP3 SWAP1 SUB PUSH1 0x1F AND DUP3 ADD SWAP2 JUMPDEST POP POP POP POP POP DUP2 JUMP JUMPDEST PUSH0 PUSH1 0xF4 PUSH20 0xFFFFFFFFFFFFFFFFFFFFFFFFFFFFFFFFFFFFFFFF AND PUSH4 0x7289E9C2 PUSH1 0x40 MLOAD DUP1 PUSH1 0x60 ADD PUSH1 0x40 MSTORE DUP1 PUSH0 PUSH1 0x2 DUP2 GT ISZERO PUSH2 0x1CA JUMPI PUSH2 0x1C9 PUSH2 0xBB4 JUMP JUMPDEST JUMPDEST DUP2 MSTORE PUSH1 0x20 ADD PUSH1 0x40 MLOAD DUP1 PUSH1 0x60 ADD PUSH1 0x40 MSTORE DUP1 PUSH1 0x23 DUP2 MSTORE PUSH1 0x20 ADD PUSH2 0x1E19 PUSH1 0x23 SWAP2 CODECOPY DUP2 MSTORE PUSH1 0x20 ADD PUSH2 0x1F5 PUSH2 0x5C3 JUMP JUMPDEST DUP2 MSTORE POP PUSH1 0x40 MLOAD DUP3 PUSH4 0xFFFFFFFF AND PUSH1 0xE0 SHL DUP2 MSTORE PUSH1 0x4 ADD PUSH2 0x214 SWAP2 SWAP1 PUSH2 0x117B JUMP JUMPDEST PUSH0 PUSH1 0x40 MLOAD DUP1 DUP4 SUB DUP2 PUSH0 DUP8 GAS CALL ISZERO DUP1 ISZERO PUSH2 0x22F JUMPI RETURNDATASIZE PUSH0 DUP1 RETURNDATACOPY RETURNDATASIZE PUSH0 REVERT JUMPDEST POP POP POP POP PUSH1 0x40 MLOAD RETURNDATASIZE PUSH0 DUP3 RETURNDATACOPY RETURNDATASIZE PUSH1 0x1F NOT PUSH1 0x1F DUP3 ADD AND DUP3 ADD DUP1 PUSH1 0x40 MSTORE POP DUP2 ADD SWAP1 PUSH2 0x257 SWAP2 SWAP1 PUSH2 0x1999 JUMP JUMPDEST SWAP1 POP PUSH2 0x262 DUP2 PUSH2 0x7CD JUMP JUMPDEST POP JUMP JUMPDEST PUSH0 DUP1 PUSH1 0x1 PUSH0 ADD PUSH0 SWAP1 SLOAD SWAP1 PUSH2 0x100 EXP SWAP1 DIV PUSH1 0xF SIGNEXTEND PUSH1 0x1 PUSH0 ADD PUSH1 0x10 SWAP1 SLOAD SWAP1 PUSH2 0x100 EXP SWAP1 DIV PUSH1 0xF SIGNEXTEND SWAP2 POP SWAP2 POP SWAP1 SWAP2 JUMP JUMPDEST PUSH1 0x1 DUP1 PUSH0 ADD PUSH0 SWAP1 SLOAD SWAP1 PUSH2 0x100 EXP SWAP1 DIV PUSH1 0xF SIGNEXTEND SWAP1 DUP1 PUSH0 ADD PUSH1 0x10 SWAP1 SLOAD SWAP1 PUSH2 0x100 EXP SWAP1 DIV PUSH1 0xF SIGNEXTEND SWAP1 POP DUP3 JUMP JUMPDEST PUSH0 PUSH1 0xF4 PUSH20 0xFFFFFFFFFFFFFFFFFFFFFFFFFFFFFFFFFFFFFFFF AND PUSH4 0xEA3DD516 PUSH1 0x40 MLOAD DUP1 PUSH1 0xC0 ADD PUSH1 0x40 MSTORE DUP1 PUSH0 PUSH1 0x1 DUP2 GT ISZERO PUSH2 0x2F7 JUMPI PUSH2 0x2F6 PUSH2 0xBB4 JUMP JUMPDEST JUMPDEST DUP2 MSTORE PUSH1 0x20 ADD PUSH1 0x40 MLOAD DUP1 PUSH1 0x60 ADD PUSH1 0x40 MSTORE DUP1 PUSH1 0x23 DUP2 MSTORE PUSH1 0x20 ADD PUSH2 0x1E19 PUSH1 0x23 SWAP2 CODECOPY DUP2 MSTORE PUSH1 0x20 ADD PUSH1 0x40 MLOAD DUP1 PUSH1 0x80 ADD PUSH1 0x40 MSTORE DUP1 PUSH1 0x4C DUP2 MSTORE PUSH1 0x20 ADD PUSH2 0x1E71 PUSH1 0x4C SWAP2 CODECOPY DUP2 MSTORE PUSH1 0x20 ADD PUSH2 0x3E8 PUSH4 0xFFFFFFFF AND DUP2 MSTORE PUSH1 0x20 ADD PUSH2 0x34E PUSH2 0x8BB JUMP JUMPDEST DUP2 MSTORE PUSH1 0x20 ADD PUSH0 PUSH4 0xFFFFFFFF AND DUP2 MSTORE POP PUSH1 0x40 MLOAD DUP3 PUSH4 0xFFFFFFFF AND PUSH1 0xE0 SHL DUP2 MSTORE PUSH1 0x4 ADD PUSH2 0x379 SWAP2 SWAP1 PUSH2 0x1ABA JUMP JUMPDEST PUSH0 PUSH1 0x40 MLOAD DUP1 DUP4 SUB DUP2 PUSH0 DUP8 GAS CALL ISZERO DUP1 ISZERO PUSH2 0x394 JUMPI RETURNDATASIZE PUSH0 DUP1 RETURNDATACOPY RETURNDATASIZE PUSH0 REVERT JUMPDEST POP POP POP POP PUSH1 0x40 MLOAD RETURNDATASIZE PUSH0 DUP3 RETURNDATACOPY RETURNDATASIZE PUSH1 0x1F NOT PUSH1 0x1F DUP3 ADD AND DUP3 ADD DUP1 PUSH1 0x40 MSTORE POP DUP2 ADD SWAP1 PUSH2 0x3BC SWAP2 SWAP1 PUSH2 0x1B2F JUMP JUMPDEST SWAP1 POP DUP1 PUSH0 ADD MLOAD PUSH0 SWAP1 DUP2 PUSH2 0x3CF SWAP2 SWAP1 PUSH2 0x1D1C JUMP JUMPDEST POP POP JUMP JUMPDEST PUSH0 PUSH1 0xF4 PUSH20 0xFFFFFFFFFFFFFFFFFFFFFFFFFFFFFFFFFFFFFFFF AND PUSH4 0xEA3DD516 PUSH1 0x40 MLOAD DUP1 PUSH1 0xC0 ADD PUSH1 0x40 MSTORE DUP1 PUSH1 0x1 DUP1 DUP2 GT ISZERO PUSH2 0x40F JUMPI PUSH2 0x40E PUSH2 0xBB4 JUMP JUMPDEST JUMPDEST DUP2 MSTORE PUSH1 0x20 ADD PUSH1 0x40 MLOAD DUP1 PUSH1 0x60 ADD PUSH1 0x40 MSTORE DUP1 PUSH1 0x23 DUP2 MSTORE PUSH1 0x20 ADD PUSH2 0x1E19 PUSH1 0x23 SWAP2 CODECOPY DUP2 MSTORE PUSH1 0x20 ADD PUSH1 0x40 MLOAD DUP1 PUSH1 0x60 ADD PUSH1 0x40 MSTORE DUP1 PUSH1 0x35 DUP2 MSTORE PUSH1 0x20 ADD PUSH2 0x1E3C PUSH1 0x35 SWAP2 CODECOPY DUP2 MSTORE PUSH1 0x20 ADD PUSH2 0x3E8 PUSH4 0xFFFFFFFF AND DUP2 MSTORE PUSH1 0x20 ADD PUSH2 0x466 PUSH2 0x8BB JUMP JUMPDEST DUP2 MSTORE PUSH1 0x20 ADD PUSH0 PUSH4 0xFFFFFFFF AND DUP2 MSTORE POP PUSH1 0x40 MLOAD DUP3 PUSH4 0xFFFFFFFF AND PUSH1 0xE0 SHL DUP2 MSTORE PUSH1 0x4 ADD PUSH2 0x491 SWAP2 SWAP1 PUSH2 0x1ABA JUMP JUMPDEST PUSH0 PUSH1 0x40 MLOAD DUP1 DUP4 SUB DUP2 PUSH0 DUP8 GAS CALL ISZERO DUP1 ISZERO PUSH2 0x4AC JUMPI RETURNDATASIZE PUSH0 DUP1 RETURNDATACOPY RETURNDATASIZE PUSH0 REVERT JUMPDEST POP POP POP POP PUSH1 0x40 MLOAD RETURNDATASIZE PUSH0 DUP3 RETURNDATACOPY RETURNDATASIZE PUSH1 0x1F NOT PUSH1 0x1F DUP3 ADD AND DUP3 ADD DUP1 PUSH1 0x40 MSTORE POP DUP2 ADD SWAP1 PUSH2 0x4D4 SWAP2 SWAP1 PUSH2 0x1B2F JUMP JUMPDEST SWAP1 POP DUP1 PUSH0 ADD MLOAD PUSH0 SWAP1 DUP2 PUSH2 0x4E7 SWAP2 SWAP1 PUSH2 0x1D1C JUMP JUMPDEST POP POP JUMP JUMPDEST PUSH0 PUSH1 0xF4 PUSH20 0xFFFFFFFFFFFFFFFFFFFFFFFFFFFFFFFFFFFFFFFF AND PUSH4 0x7289E9C2 PUSH1 0x40 MLOAD DUP1 PUSH1 0x60 ADD PUSH1 0x40 MSTORE DUP1 PUSH1 0x1 PUSH1 0x2 DUP2 GT ISZERO PUSH2 0x528 JUMPI PUSH2 0x527 PUSH2 0xBB4 JUMP JUMPDEST JUMPDEST DUP2 MSTORE PUSH1 0x20 ADD PUSH1 0x40 MLOAD DUP1 PUSH1 0x60 ADD PUSH1 0x40 MSTORE DUP1 PUSH1 0x23 DUP2 MSTORE PUSH1 0x20 ADD PUSH2 0x1E19 PUSH1 0x23 SWAP2 CODECOPY DUP2 MSTORE PUSH1 0x20 ADD PUSH2 0x553 PUSH2 0x5C3 JUMP JUMPDEST DUP2 MSTORE POP PUSH1 0x40 MLOAD DUP3 PUSH4 0xFFFFFFFF AND PUSH1 0xE0 SHL DUP2 MSTORE PUSH1 0x4 ADD PUSH2 0x572 SWAP2 SWAP1 PUSH2 0x117B JUMP JUMPDEST PUSH0 PUSH1 0x40 MLOAD DUP1 DUP4 SUB DUP2 PUSH0 DUP8 GAS CALL ISZERO DUP1 ISZERO PUSH2 0x58D JUMPI RETURNDATASIZE PUSH0 DUP1 RETURNDATACOPY RETURNDATASIZE PUSH0 REVERT JUMPDEST POP POP POP POP PUSH1 0x40 MLOAD RETURNDATASIZE PUSH0 DUP3 RETURNDATACOPY RETURNDATASIZE PUSH1 0x1F NOT PUSH1 0x1F DUP3 ADD AND DUP3 ADD DUP1 PUSH1 0x40 MSTORE POP DUP2 ADD SWAP1 PUSH2 0x5B5 SWAP2 SWAP1 PUSH2 0x1999 JUMP JUMPDEST SWAP1 POP PUSH2 0x5C0 DUP2 PUSH2 0x7CD JUMP JUMPDEST POP JUMP JUMPDEST PUSH2 0x5CB PUSH2 0xA12 JUMP JUMPDEST PUSH0 PUSH1 0x40 MLOAD DUP1 PUSH1 0x40 ADD PUSH1 0x40 MSTORE DUP1 PUSH1 0x1 PUSH8 0xFFFFFFFFFFFFFFFF DUP2 GT ISZERO PUSH2 0x5F2 JUMPI PUSH2 0x5F1 PUSH2 0x11B0 JUMP JUMPDEST JUMPDEST PUSH1 0x40 MLOAD SWAP1 DUP1 DUP3 MSTORE DUP1 PUSH1 0x20 MUL PUSH1 0x20 ADD DUP3 ADD PUSH1 0x40 MSTORE DUP1 ISZERO PUSH2 0x62B JUMPI DUP2 PUSH1 0x20 ADD JUMPDEST PUSH2 0x618 PUSH2 0xA2C JUMP JUMPDEST DUP2 MSTORE PUSH1 0x20 ADD SWAP1 PUSH1 0x1 SWAP1 SUB SWAP1 DUP2 PUSH2 0x610 JUMPI SWAP1 POP JUMPDEST POP DUP2 MSTORE PUSH1 0x20 ADD PUSH0 PUSH8 0xFFFFFFFFFFFFFFFF DUP2 GT ISZERO PUSH2 0x64B JUMPI PUSH2 0x64A PUSH2 0x11B0 JUMP JUMPDEST JUMPDEST PUSH1 0x40 MLOAD SWAP1 DUP1 DUP3 MSTORE DUP1 PUSH1 0x20 MUL PUSH1 0x20 ADD DUP3 ADD PUSH1 0x40 MSTORE DUP1 ISZERO PUSH2 0x684 JUMPI DUP2 PUSH1 0x20 ADD JUMPDEST PUSH2 0x671 PUSH2 0xA4D JUMP JUMPDEST DUP2 MSTORE PUSH1 0x20 ADD SWAP1 PUSH1 0x1 SWAP1 SUB SWAP1 DUP2 PUSH2 0x669 JUMPI SWAP1 POP JUMPDEST POP DUP2 MSTORE POP SWAP1 POP PUSH0 PUSH1 0x2 PUSH8 0xFFFFFFFFFFFFFFFF DUP2 GT ISZERO PUSH2 0x6A6 JUMPI PUSH2 0x6A5 PUSH2 0x11B0 JUMP JUMPDEST JUMPDEST PUSH1 0x40 MLOAD SWAP1 DUP1 DUP3 MSTORE DUP1 PUSH1 0x20 MUL PUSH1 0x20 ADD DUP3 ADD PUSH1 0x40 MSTORE DUP1 ISZERO PUSH2 0x6DF JUMPI DUP2 PUSH1 0x20 ADD JUMPDEST PUSH2 0x6CC PUSH2 0xA67 JUMP JUMPDEST DUP2 MSTORE PUSH1 0x20 ADD SWAP1 PUSH1 0x1 SWAP1 SUB SWAP1 DUP2 PUSH2 0x6C4 JUMPI SWAP1 POP JUMPDEST POP SWAP1 POP PUSH1 0x40 MLOAD DUP1 PUSH1 0x40 ADD PUSH1 0x40 MSTORE DUP1 PUSH7 0x19E33255C6AE4B PUSH1 0xF SIGNEXTEND DUP2 MSTORE PUSH1 0x20 ADD PUSH1 0x11 PUSH1 0xF SIGNEXTEND DUP2 MSTORE POP DUP2 PUSH0 DUP2 MLOAD DUP2 LT PUSH2 0x718 JUMPI PUSH2 0x717 PUSH2 0x1DEB JUMP JUMPDEST JUMPDEST PUSH1 0x20 MUL PUSH1 0x20 ADD ADD DUP2 SWAP1 MSTORE POP PUSH1 0x40 MLOAD DUP1 PUSH1 0x40 ADD PUSH1 0x40 MSTORE DUP1 PUSH7 0xFF03F7ABFCE77 PUSH1 0xF SIGNEXTEND DUP2 MSTORE PUSH1 0x20 ADD PUSH1 0x10 PUSH1 0xF SIGNEXTEND DUP2 MSTORE POP DUP2 PUSH1 0x1 DUP2 MLOAD DUP2 LT PUSH2 0x75A JUMPI PUSH2 0x759 PUSH2 0x1DEB JUMP JUMPDEST JUMPDEST PUSH1 0x20 MUL PUSH1 0x20 ADD ADD DUP2 SWAP1 MSTORE POP PUSH2 0x7A4 PUSH1 0x40 MLOAD DUP1 PUSH1 0x40 ADD PUSH1 0x40 MSTORE DUP1 PUSH1 0x5 DUP2 MSTORE PUSH1 0x20 ADD PUSH32 0x696E707574000000000000000000000000000000000000000000000000000000 DUP2 MSTORE POP DUP3 PUSH2 0x96A JUMP JUMPDEST DUP3 PUSH0 ADD MLOAD PUSH0 DUP2 MLOAD DUP2 LT PUSH2 0x7BA JUMPI PUSH2 0x7B9 PUSH2 0x1DEB JUMP JUMPDEST JUMPDEST PUSH1 0x20 MUL PUSH1 0x20 ADD ADD DUP2 SWAP1 MSTORE POP DUP2 SWAP3 POP POP POP SWAP1 JUMP JUMPDEST DUP1 PUSH1 0x40 ADD MLOAD PUSH2 0x817 JUMPI DUP1 PUSH0 ADD MLOAD PUSH0 DUP2 MLOAD DUP2 LT PUSH2 0x7EC JUMPI PUSH2 0x7EB PUSH2 0x1DEB JUMP JUMPDEST JUMPDEST PUSH1 0x20 MUL PUSH1 0x20 ADD ADD MLOAD PUSH1 0x20 ADD MLOAD PUSH0 DUP2 MLOAD DUP2 LT PUSH2 0x80A JUMPI PUSH2 0x809 PUSH2 0x1DEB JUMP JUMPDEST JUMPDEST PUSH1 0x20 MUL PUSH1 0x20 ADD ADD MLOAD PUSH2 0x833 JUMP JUMPDEST PUSH1 0x40 MLOAD DUP1 PUSH1 0x40 ADD PUSH1 0x40 MSTORE DUP1 PUSH0 PUSH1 0xF SIGNEXTEND DUP2 MSTORE PUSH1 0x20 ADD PUSH0 PUSH1 0xF SIGNEXTEND DUP2 MSTORE POP JUMPDEST PUSH1 0x1 PUSH0 DUP3 ADD MLOAD DUP2 PUSH0 ADD PUSH0 PUSH2 0x100 EXP DUP2 SLOAD DUP2 PUSH16 0xFFFFFFFFFFFFFFFFFFFFFFFFFFFFFFFF MUL NOT AND SWAP1 DUP4 PUSH1 0xF SIGNEXTEND PUSH16 0xFFFFFFFFFFFFFFFFFFFFFFFFFFFFFFFF AND MUL OR SWAP1 SSTORE POP PUSH1 0x20 DUP3 ADD MLOAD DUP2 PUSH0 ADD PUSH1 0x10 PUSH2 0x100 EXP DUP2 SLOAD DUP2 PUSH16 0xFFFFFFFFFFFFFFFFFFFFFFFFFFFFFFFF MUL NOT AND SWAP1 DUP4 PUSH1 0xF SIGNEXTEND PUSH16 0xFFFFFFFFFFFFFFFFFFFFFFFFFFFFFFFF AND MUL OR SWAP1 SSTORE POP SWAP1 POP POP POP JUMP JUMPDEST PUSH1 0x60 PUSH0 PUSH1 0x1 PUSH8 0xFFFFFFFFFFFFFFFF DUP2 GT ISZERO PUSH2 0x8D9 JUMPI PUSH2 0x8D8 PUSH2 0x11B0 JUMP JUMPDEST JUMPDEST PUSH1 0x40 MLOAD SWAP1 DUP1 DUP3 MSTORE DUP1 PUSH1 0x20 MUL PUSH1 0x20 ADD DUP3 ADD PUSH1 0x40 MSTORE DUP1 ISZERO PUSH2 0x90C JUMPI DUP2 PUSH1 0x20 ADD JUMPDEST PUSH1 0x60 DUP2 MSTORE PUSH1 0x20 ADD SWAP1 PUSH1 0x1 SWAP1 SUB SWAP1 DUP2 PUSH2 0x8F7 JUMPI SWAP1 POP JUMPDEST POP SWAP1 POP PUSH1 0x40 MLOAD DUP1 PUSH1 0x40 ADD PUSH1 0x40 MSTORE DUP1 PUSH1 0x5 DUP2 MSTORE PUSH1 0x20 ADD PUSH32 0x3C656E643E000000000000000000000000000000000000000000000000000000 DUP2 MSTORE POP DUP2 PUSH0 DUP2 MLOAD DUP2 LT PUSH2 0x958 JUMPI PUSH2 0x957 PUSH2 0x1DEB JUMP JUMPDEST JUMPDEST PUSH1 0x20 MUL PUSH1 0x20 ADD ADD DUP2 SWAP1 MSTORE POP DUP1 SWAP2 POP POP SWAP1 JUMP JUMPDEST PUSH2 0x972 PUSH2 0xA2C JUMP JUMPDEST PUSH0 PUSH1 0x1 PUSH8 0xFFFFFFFFFFFFFFFF DUP2 GT ISZERO PUSH2 0x98E JUMPI PUSH2 0x98D PUSH2 0x11B0 JUMP JUMPDEST JUMPDEST PUSH1 0x40 MLOAD SWAP1 DUP1 DUP3 MSTORE DUP1 PUSH1 0x20 MUL PUSH1 0x20 ADD DUP3 ADD PUSH1 0x40 MSTORE DUP1 ISZERO PUSH2 0x9BC JUMPI DUP2 PUSH1 0x20 ADD PUSH1 0x20 DUP3 MUL DUP1 CALLDATASIZE DUP4 CALLDATACOPY DUP1 DUP3 ADD SWAP2 POP POP SWAP1 POP JUMPDEST POP SWAP1 POP DUP3 MLOAD DUP2 PUSH0 DUP2 MLOAD DUP2 LT PUSH2 0x9D4 JUMPI PUSH2 0x9D3 PUSH2 0x1DEB JUMP JUMPDEST JUMPDEST PUSH1 0x20 MUL PUSH1 0x20 ADD ADD SWAP1 PUSH4 0xFFFFFFFF AND SWAP1 DUP2 PUSH4 0xFFFFFFFF AND DUP2 MSTORE POP POP PUSH1 0x40 MLOAD DUP1 PUSH1 0x60 ADD PUSH1 0x40 MSTORE DUP1 DUP6 DUP2 MSTORE PUSH1 0x20 ADD DUP5 DUP2 MSTORE PUSH1 0x20 ADD DUP3 DUP2 MSTORE POP SWAP2 POP POP SWAP3 SWAP2 POP POP JUMP JUMPDEST PUSH1 0x40 MLOAD DUP1 PUSH1 0x40 ADD PUSH1 0x40 MSTORE DUP1 PUSH1 0x60 DUP2 MSTORE PUSH1 0x20 ADD PUSH1 0x60 DUP2 MSTORE POP SWAP1 JUMP JUMPDEST PUSH1 0x40 MLOAD DUP1 PUSH1 0x60 ADD PUSH1 0x40 MSTORE DUP1 PUSH1 0x60 DUP2 MSTORE PUSH1 0x20 ADD PUSH1 0x60 DUP2 MSTORE PUSH1 0x20 ADD PUSH1 0x60 DUP2 MSTORE POP SWAP1 JUMP JUMPDEST PUSH1 0x40 MLOAD DUP1 PUSH1 0x40 ADD PUSH1 0x40 MSTORE DUP1 PUSH1 0x60 DUP2 MSTORE PUSH1 0x20 ADD PUSH1 0x60 DUP2 MSTORE POP SWAP1 JUMP JUMPDEST PUSH1 0x40 MLOAD DUP1 PUSH1 0x40 ADD PUSH1 0x40 MSTORE DUP1 PUSH0 PUSH1 0xF SIGNEXTEND DUP2 MSTORE PUSH1 0x20 ADD PUSH0 PUSH1 0xF SIGNEXTEND DUP2 MSTORE POP SWAP1 JUMP JUMPDEST PUSH0 DUP2 MLOAD SWAP1 POP SWAP2 SWAP1 POP JUMP JUMPDEST PUSH0 DUP3 DUP3 MSTORE PUSH1 0x20 DUP3 ADD SWAP1 POP SWAP3 SWAP2 POP POP JUMP JUMPDEST DUP3 DUP2 DUP4 MCOPY PUSH0 DUP4 DUP4 ADD MSTORE POP POP POP JUMP JUMPDEST PUSH0 PUSH1 0x1F NOT PUSH1 0x1F DUP4 ADD AND SWAP1 POP SWAP2 SWAP1 POP JUMP JUMPDEST PUSH0 PUSH2 0xAC7 DUP3 PUSH2 0xA85 JUMP JUMPDEST PUSH2 0xAD1 DUP2 DUP6 PUSH2 0xA8F JUMP JUMPDEST SWAP4 POP PUSH2 0xAE1 DUP2 DUP6 PUSH1 0x20 DUP7 ADD PUSH2 0xA9F JUMP JUMPDEST PUSH2 0xAEA DUP2 PUSH2 0xAAD JUMP JUMPDEST DUP5 ADD SWAP2 POP POP SWAP3 SWAP2 POP POP JUMP JUMPDEST PUSH0 PUSH1 0x20 DUP3 ADD SWAP1 POP DUP2 DUP2 SUB PUSH0 DUP4 ADD MSTORE PUSH2 0xB0D DUP2 DUP5 PUSH2 0xABD JUMP JUMPDEST SWAP1 POP SWAP3 SWAP2 POP POP JUMP JUMPDEST PUSH0 DUP2 PUSH1 0xF SIGNEXTEND SWAP1 POP SWAP2 SWAP1 POP JUMP JUMPDEST PUSH2 0xB2A DUP2 PUSH2 0xB15 JUMP JUMPDEST DUP3 MSTORE POP POP JUMP JUMPDEST PUSH0 PUSH1 0x40 DUP3 ADD SWAP1 POP PUSH2 0xB43 PUSH0 DUP4 ADD DUP6 PUSH2 0xB21 JUMP JUMPDEST PUSH2 0xB50 PUSH1 0x20 DUP4 ADD DUP5 PUSH2 0xB21 JUMP JUMPDEST SWAP4 SWAP3 POP POP POP JUMP JUMPDEST PUSH32 0x4E487B7100000000000000000000000000000000000000000000000000000000 PUSH0 MSTORE PUSH1 0x22 PUSH1 0x4 MSTORE PUSH1 0x24 PUSH0 REVERT JUMPDEST PUSH0 PUSH1 0x2 DUP3 DIV SWAP1 POP PUSH1 0x1 DUP3 AND DUP1 PUSH2 0xB9B JUMPI PUSH1 0x7F DUP3 AND SWAP2 POP JUMPDEST PUSH1 0x20 DUP3 LT DUP2 SUB PUSH2 0xBAE JUMPI PUSH2 0xBAD PUSH2 0xB57 JUMP JUMPDEST JUMPDEST POP SWAP2 SWAP1 POP JUMP JUMPDEST PUSH32 0x4E487B7100000000000000000000000000000000000000000000000000000000 PUSH0 MSTORE PUSH1 0x21 PUSH1 0x4 MSTORE PUSH1 0x24 PUSH0 REVERT JUMPDEST PUSH1 0x3 DUP2 LT PUSH2 0xBF2 JUMPI PUSH2 0xBF1 PUSH2 0xBB4 JUMP JUMPDEST JUMPDEST POP JUMP JUMPDEST PUSH0 DUP2 SWAP1 POP PUSH2 0xC02 DUP3 PUSH2 0xBE1 JUMP JUMPDEST SWAP2 SWAP1 POP JUMP JUMPDEST PUSH0 PUSH2 0xC11 DUP3 PUSH2 0xBF5 JUMP JUMPDEST SWAP1 POP SWAP2 SWAP1 POP JUMP JUMPDEST PUSH2 0xC21 DUP2 PUSH2 0xC07 JUMP JUMPDEST DUP3 MSTORE POP POP JUMP JUMPDEST PUSH0 DUP3 DUP3 MSTORE PUSH1 0x20 DUP3 ADD SWAP1 POP SWAP3 SWAP2 POP POP JUMP JUMPDEST PUSH0 PUSH2 0xC41 DUP3 PUSH2 0xA85 JUMP JUMPDEST PUSH2 0xC4B DUP2 DUP6 PUSH2 0xC27 JUMP JUMPDEST SWAP4 POP PUSH2 0xC5B DUP2 DUP6 PUSH1 0x20 DUP7 ADD PUSH2 0xA9F JUMP JUMPDEST PUSH2 0xC64 DUP2 PUSH2 0xAAD JUMP JUMPDEST DUP5 ADD SWAP2 POP POP SWAP3 SWAP2 POP POP JUMP JUMPDEST PUSH0 DUP2 MLOAD SWAP1 POP SWAP2 SWAP1 POP JUMP JUMPDEST PUSH0 DUP3 DUP3 MSTORE PUSH1 0x20 DUP3 ADD SWAP1 POP SWAP3 SWAP2 POP POP JUMP JUMPDEST PUSH0 DUP2 SWAP1 POP PUSH1 0x20 DUP3 ADD SWAP1 POP SWAP2 SWAP1 POP JUMP JUMPDEST PUSH0 DUP2 MLOAD SWAP1 POP SWAP2 SWAP1 POP JUMP JUMPDEST PUSH0 DUP3 DUP3 MSTORE PUSH1 0x20 DUP3 ADD SWAP1 POP SWAP3 SWAP2 POP POP JUMP JUMPDEST PUSH0 DUP2 SWAP1 POP PUSH1 0x20 DUP3 ADD SWAP1 POP SWAP2 SWAP1 POP JUMP JUMPDEST PUSH2 0xCCA DUP2 PUSH2 0xB15 JUMP JUMPDEST DUP3 MSTORE POP POP JUMP JUMPDEST PUSH1 0x40 DUP3 ADD PUSH0 DUP3 ADD MLOAD PUSH2 0xCE4 PUSH0 DUP6 ADD DUP3 PUSH2 0xCC1 JUMP JUMPDEST POP PUSH1 0x20 DUP3 ADD MLOAD PUSH2 0xCF7 PUSH1 0x20 DUP6 ADD DUP3 PUSH2 0xCC1 JUMP JUMPDEST POP POP POP POP JUMP JUMPDEST PUSH0 PUSH2 0xD08 DUP4 DUP4 PUSH2 0xCD0 JUMP JUMPDEST PUSH1 0x40 DUP4 ADD SWAP1 POP SWAP3 SWAP2 POP POP JUMP JUMPDEST PUSH0 PUSH1 0x20 DUP3 ADD SWAP1 POP SWAP2 SWAP1 POP JUMP JUMPDEST PUSH0 PUSH2 0xD2A DUP3 PUSH2 0xC98 JUMP JUMPDEST PUSH2 0xD34 DUP2 DUP6 PUSH2 0xCA2 JUMP JUMPDEST SWAP4 POP PUSH2 0xD3F DUP4 PUSH2 0xCB2 JUMP JUMPDEST DUP1 PUSH0 JUMPDEST DUP4 DUP2 LT ISZERO PUSH2 0xD6F JUMPI DUP2 MLOAD PUSH2 0xD56 DUP9 DUP3 PUSH2 0xCFD JUMP JUMPDEST SWAP8 POP PUSH2 0xD61 DUP4 PUSH2 0xD14 JUMP JUMPDEST SWAP3 POP POP PUSH1 0x1 DUP2 ADD SWAP1 POP PUSH2 0xD42 JUMP JUMPDEST POP DUP6 SWAP4 POP POP POP POP SWAP3 SWAP2 POP POP JUMP JUMPDEST PUSH0 DUP2 MLOAD SWAP1 POP SWAP2 SWAP1 POP JUMP JUMPDEST PUSH0 DUP3 DUP3 MSTORE PUSH1 0x20 DUP3 ADD SWAP1 POP SWAP3 SWAP2 POP POP JUMP JUMPDEST PUSH0 DUP2 SWAP1 POP PUSH1 0x20 DUP3 ADD SWAP1 POP SWAP2 SWAP1 POP JUMP JUMPDEST PUSH0 PUSH4 0xFFFFFFFF DUP3 AND SWAP1 POP SWAP2 SWAP1 POP JUMP JUMPDEST PUSH2 0xDBD DUP2 PUSH2 0xDA5 JUMP JUMPDEST DUP3 MSTORE POP POP JUMP JUMPDEST PUSH0 PUSH2 0xDCE DUP4 DUP4 PUSH2 0xDB4 JUMP JUMPDEST PUSH1 0x20 DUP4 ADD SWAP1 POP SWAP3 SWAP2 POP POP JUMP JUMPDEST PUSH0 PUSH1 0x20 DUP3 ADD SWAP1 POP SWAP2 SWAP1 POP JUMP JUMPDEST PUSH0 PUSH2 0xDF0 DUP3 PUSH2 0xD7C JUMP JUMPDEST PUSH2 0xDFA DUP2 DUP6 PUSH2 0xD86 JUMP JUMPDEST SWAP4 POP PUSH2 0xE05 DUP4 PUSH2 0xD96 JUMP JUMPDEST DUP1 PUSH0 JUMPDEST DUP4 DUP2 LT ISZERO PUSH2 0xE35 JUMPI DUP2 MLOAD PUSH2 0xE1C DUP9 DUP3 PUSH2 0xDC3 JUMP JUMPDEST SWAP8 POP PUSH2 0xE27 DUP4 PUSH2 0xDDA JUMP JUMPDEST SWAP3 POP POP PUSH1 0x1 DUP2 ADD SWAP1 POP PUSH2 0xE08 JUMP JUMPDEST POP DUP6 SWAP4 POP POP POP POP SWAP3 SWAP2 POP POP JUMP JUMPDEST PUSH0 PUSH1 0x60 DUP4 ADD PUSH0 DUP4 ADD MLOAD DUP5 DUP3 SUB PUSH0 DUP7 ADD MSTORE PUSH2 0xE5C DUP3 DUP3 PUSH2 0xC37 JUMP JUMPDEST SWAP2 POP POP PUSH1 0x20 DUP4 ADD MLOAD DUP5 DUP3 SUB PUSH1 0x20 DUP7 ADD MSTORE PUSH2 0xE76 DUP3 DUP3 PUSH2 0xD20 JUMP JUMPDEST SWAP2 POP POP PUSH1 0x40 DUP4 ADD MLOAD DUP5 DUP3 SUB PUSH1 0x40 DUP7 ADD MSTORE PUSH2 0xE90 DUP3 DUP3 PUSH2 0xDE6 JUMP JUMPDEST SWAP2 POP POP DUP1 SWAP2 POP POP SWAP3 SWAP2 POP POP JUMP JUMPDEST PUSH0 PUSH2 0xEA8 DUP4 DUP4 PUSH2 0xE42 JUMP JUMPDEST SWAP1 POP SWAP3 SWAP2 POP POP JUMP JUMPDEST PUSH0 PUSH1 0x20 DUP3 ADD SWAP1 POP SWAP2 SWAP1 POP JUMP JUMPDEST PUSH0 PUSH2 0xEC6 DUP3 PUSH2 0xC6F JUMP JUMPDEST PUSH2 0xED0 DUP2 DUP6 PUSH2 0xC79 JUMP JUMPDEST SWAP4 POP DUP4 PUSH1 0x20 DUP3 MUL DUP6 ADD PUSH2 0xEE2 DUP6 PUSH2 0xC89 JUMP JUMPDEST DUP1 PUSH0 JUMPDEST DUP6 DUP2 LT ISZERO PUSH2 0xF1D JUMPI DUP5 DUP5 SUB DUP10 MSTORE DUP2 MLOAD PUSH2 0xEFE DUP6 DUP3 PUSH2 0xE9D JUMP JUMPDEST SWAP5 POP PUSH2 0xF09 DUP4 PUSH2 0xEB0 JUMP JUMPDEST SWAP3 POP PUSH1 0x20 DUP11 ADD SWAP10 POP POP PUSH1 0x1 DUP2 ADD SWAP1 POP PUSH2 0xEE5 JUMP JUMPDEST POP DUP3 SWAP8 POP DUP8 SWAP6 POP POP POP POP POP POP SWAP3 SWAP2 POP POP JUMP JUMPDEST PUSH0 DUP2 MLOAD SWAP1 POP SWAP2 SWAP1 POP JUMP JUMPDEST PUSH0 DUP3 DUP3 MSTORE PUSH1 0x20 DUP3 ADD SWAP1 POP SWAP3 SWAP2 POP POP JUMP JUMPDEST PUSH0 DUP2 SWAP1 POP PUSH1 0x20 DUP3 ADD SWAP1 POP SWAP2 SWAP1 POP JUMP JUMPDEST PUSH0 DUP2 MLOAD SWAP1 POP SWAP2 SWAP1 POP JUMP JUMPDEST PUSH0 DUP3 DUP3 MSTORE PUSH1 0x20 DUP3 ADD SWAP1 POP SWAP3 SWAP2 POP POP JUMP JUMPDEST PUSH0 DUP2 SWAP1 POP PUSH1 0x20 DUP3 ADD SWAP1 POP SWAP2 SWAP1 POP JUMP JUMPDEST PUSH0 PUSH2 0xF8C DUP4 DUP4 PUSH2 0xC37 JUMP JUMPDEST SWAP1 POP SWAP3 SWAP2 POP POP JUMP JUMPDEST PUSH0 PUSH1 0x20 DUP3 ADD SWAP1 POP SWAP2 SWAP1 POP JUMP JUMPDEST PUSH0 PUSH2 0xFAA DUP3 PUSH2 0xF58 JUMP JUMPDEST PUSH2 0xFB4 DUP2 DUP6 PUSH2 0xF62 JUMP JUMPDEST SWAP4 POP DUP4 PUSH1 0x20 DUP3 MUL DUP6 ADD PUSH2 0xFC6 DUP6 PUSH2 0xF72 JUMP JUMPDEST DUP1 PUSH0 JUMPDEST DUP6 DUP2 LT ISZERO PUSH2 0x1001 JUMPI DUP5 DUP5 SUB DUP10 MSTORE DUP2 MLOAD PUSH2 0xFE2 DUP6 DUP3 PUSH2 0xF81 JUMP JUMPDEST SWAP5 POP PUSH2 0xFED DUP4 PUSH2 0xF94 JUMP JUMPDEST SWAP3 POP PUSH1 0x20 DUP11 ADD SWAP10 POP POP PUSH1 0x1 DUP2 ADD SWAP1 POP PUSH2 0xFC9 JUMP JUMPDEST POP DUP3 SWAP8 POP DUP8 SWAP6 POP POP POP POP POP POP SWAP3 SWAP2 POP POP JUMP JUMPDEST PUSH0 PUSH1 0x40 DUP4 ADD PUSH0 DUP4 ADD MLOAD DUP5 DUP3 SUB PUSH0 DUP7 ADD MSTORE PUSH2 0x102D DUP3 DUP3 PUSH2 0xC37 JUMP JUMPDEST SWAP2 POP POP PUSH1 0x20 DUP4 ADD MLOAD DUP5 DUP3 SUB PUSH1 0x20 DUP7 ADD MSTORE PUSH2 0x1047 DUP3 DUP3 PUSH2 0xFA0 JUMP JUMPDEST SWAP2 POP POP DUP1 SWAP2 POP POP SWAP3 SWAP2 POP POP JUMP JUMPDEST PUSH0 PUSH2 0x105F DUP4 DUP4 PUSH2 0x1013 JUMP JUMPDEST SWAP1 POP SWAP3 SWAP2 POP POP JUMP JUMPDEST PUSH0 PUSH1 0x20 DUP3 ADD SWAP1 POP SWAP2 SWAP1 POP JUMP JUMPDEST PUSH0 PUSH2 0x107D DUP3 PUSH2 0xF2F JUMP JUMPDEST PUSH2 0x1087 DUP2 DUP6 PUSH2 0xF39 JUMP JUMPDEST SWAP4 POP DUP4 PUSH1 0x20 DUP3 MUL DUP6 ADD PUSH2 0x1099 DUP6 PUSH2 0xF49 JUMP JUMPDEST DUP1 PUSH0 JUMPDEST DUP6 DUP2 LT ISZERO PUSH2 0x10D4 JUMPI DUP5 DUP5 SUB DUP10 MSTORE DUP2 MLOAD PUSH2 0x10B5 DUP6 DUP3 PUSH2 0x1054 JUMP JUMPDEST SWAP5 POP PUSH2 0x10C0 DUP4 PUSH2 0x1067 JUMP JUMPDEST SWAP3 POP PUSH1 0x20 DUP11 ADD SWAP10 POP POP PUSH1 0x1 DUP2 ADD SWAP1 POP PUSH2 0x109C JUMP JUMPDEST POP DUP3 SWAP8 POP DUP8 SWAP6 POP POP POP POP POP POP SWAP3 SWAP2 POP POP JUMP JUMPDEST PUSH0 PUSH1 0x40 DUP4 ADD PUSH0 DUP4 ADD MLOAD DUP5 DUP3 SUB PUSH0 DUP7 ADD MSTORE PUSH2 0x1100 DUP3 DUP3 PUSH2 0xEBC JUMP JUMPDEST SWAP2 POP POP PUSH1 0x20 DUP4 ADD MLOAD DUP5 DUP3 SUB PUSH1 0x20 DUP7 ADD MSTORE PUSH2 0x111A DUP3 DUP3 PUSH2 0x1073 JUMP JUMPDEST SWAP2 POP POP DUP1 SWAP2 POP POP SWAP3 SWAP2 POP POP JUMP JUMPDEST PUSH0 PUSH1 0x60 DUP4 ADD PUSH0 DUP4 ADD MLOAD PUSH2 0x113C PUSH0 DUP7 ADD DUP3 PUSH2 0xC18 JUMP JUMPDEST POP PUSH1 0x20 DUP4 ADD MLOAD DUP5 DUP3 SUB PUSH1 0x20 DUP7 ADD MSTORE PUSH2 0x1154 DUP3 DUP3 PUSH2 0xC37 JUMP JUMPDEST SWAP2 POP POP PUSH1 0x40 DUP4 ADD MLOAD DUP5 DUP3 SUB PUSH1 0x40 DUP7 ADD MSTORE PUSH2 0x116E DUP3 DUP3 PUSH2 0x10E6 JUMP JUMPDEST SWAP2 POP POP DUP1 SWAP2 POP POP SWAP3 SWAP2 POP POP JUMP JUMPDEST PUSH0 PUSH1 0x20 DUP3 ADD SWAP1 POP DUP2 DUP2 SUB PUSH0 DUP4 ADD MSTORE PUSH2 0x1193 DUP2 DUP5 PUSH2 0x1127 JUMP JUMPDEST SWAP1 POP SWAP3 SWAP2 POP POP JUMP JUMPDEST PUSH0 PUSH1 0x40 MLOAD SWAP1 POP SWAP1 JUMP JUMPDEST PUSH0 DUP1 REVERT JUMPDEST PUSH0 DUP1 REVERT JUMPDEST PUSH0 DUP1 REVERT JUMPDEST PUSH32 0x4E487B7100000000000000000000000000000000000000000000000000000000 PUSH0 MSTORE PUSH1 0x41 PUSH1 0x4 MSTORE PUSH1 0x24 PUSH0 REVERT JUMPDEST PUSH2 0x11E6 DUP3 PUSH2 0xAAD JUMP JUMPDEST DUP2 ADD DUP2 DUP2 LT PUSH8 0xFFFFFFFFFFFFFFFF DUP3 GT OR ISZERO PUSH2 0x1205 JUMPI PUSH2 0x1204 PUSH2 0x11B0 JUMP JUMPDEST JUMPDEST DUP1 PUSH1 0x40 MSTORE POP POP POP JUMP JUMPDEST PUSH0 PUSH2 0x1217 PUSH2 0x119B JUMP JUMPDEST SWAP1 POP PUSH2 0x1223 DUP3 DUP3 PUSH2 0x11DD JUMP JUMPDEST SWAP2 SWAP1 POP JUMP JUMPDEST PUSH0 DUP1 REVERT JUMPDEST PUSH0 DUP1 REVERT JUMPDEST PUSH0 PUSH8 0xFFFFFFFFFFFFFFFF DUP3 GT ISZERO PUSH2 0x124A JUMPI PUSH2 0x1249 PUSH2 0x11B0 JUMP JUMPDEST JUMPDEST PUSH1 0x20 DUP3 MUL SWAP1 POP PUSH1 0x20 DUP2 ADD SWAP1 POP SWAP2 SWAP1 POP JUMP JUMPDEST PUSH0 DUP1 REVERT JUMPDEST PUSH0 DUP1 REVERT JUMPDEST PUSH0 PUSH8 0xFFFFFFFFFFFFFFFF DUP3 GT ISZERO PUSH2 0x127D JUMPI PUSH2 0x127C PUSH2 0x11B0 JUMP JUMPDEST JUMPDEST PUSH2 0x1286 DUP3 PUSH2 0xAAD JUMP JUMPDEST SWAP1 POP PUSH1 0x20 DUP2 ADD SWAP1 POP SWAP2 SWAP1 POP JUMP JUMPDEST PUSH0 PUSH2 0x12A5 PUSH2 0x12A0 DUP5 PUSH2 0x1263 JUMP JUMPDEST PUSH2 0x120E JUMP JUMPDEST SWAP1 POP DUP3 DUP2 MSTORE PUSH1 0x20 DUP2 ADD DUP5 DUP5 DUP5 ADD GT ISZERO PUSH2 0x12C1 JUMPI PUSH2 0x12C0 PUSH2 0x125F JUMP JUMPDEST JUMPDEST PUSH2 0x12CC DUP5 DUP3 DUP6 PUSH2 0xA9F JUMP JUMPDEST POP SWAP4 SWAP3 POP POP POP JUMP JUMPDEST PUSH0 DUP3 PUSH1 0x1F DUP4 ADD SLT PUSH2 0x12E8 JUMPI PUSH2 0x12E7 PUSH2 0x122C JUMP JUMPDEST JUMPDEST DUP2 MLOAD PUSH2 0x12F8 DUP5 DUP3 PUSH1 0x20 DUP7 ADD PUSH2 0x1293 JUMP JUMPDEST SWAP2 POP POP SWAP3 SWAP2 POP POP JUMP JUMPDEST PUSH0 PUSH8 0xFFFFFFFFFFFFFFFF DUP3 GT ISZERO PUSH2 0x131B JUMPI PUSH2 0x131A PUSH2 0x11B0 JUMP JUMPDEST JUMPDEST PUSH1 0x20 DUP3 MUL SWAP1 POP PUSH1 0x20 DUP2 ADD SWAP1 POP SWAP2 SWAP1 POP JUMP JUMPDEST PUSH2 0x1335 DUP2 PUSH2 0xB15 JUMP JUMPDEST DUP2 EQ PUSH2 0x133F JUMPI PUSH0 DUP1 REVERT JUMPDEST POP JUMP JUMPDEST PUSH0 DUP2 MLOAD SWAP1 POP PUSH2 0x1350 DUP2 PUSH2 0x132C JUMP JUMPDEST SWAP3 SWAP2 POP POP JUMP JUMPDEST PUSH0 PUSH1 0x40 DUP3 DUP5 SUB SLT ISZERO PUSH2 0x136B JUMPI PUSH2 0x136A PUSH2 0x11AC JUMP JUMPDEST JUMPDEST PUSH2 0x1375 PUSH1 0x40 PUSH2 0x120E JUMP JUMPDEST SWAP1 POP PUSH0 PUSH2 0x1384 DUP5 DUP3 DUP6 ADD PUSH2 0x1342 JUMP JUMPDEST PUSH0 DUP4 ADD MSTORE POP PUSH1 0x20 PUSH2 0x1397 DUP5 DUP3 DUP6 ADD PUSH2 0x1342 JUMP JUMPDEST PUSH1 0x20 DUP4 ADD MSTORE POP SWAP3 SWAP2 POP POP JUMP JUMPDEST PUSH0 PUSH2 0x13B5 PUSH2 0x13B0 DUP5 PUSH2 0x1301 JUMP JUMPDEST PUSH2 0x120E JUMP JUMPDEST SWAP1 POP DUP1 DUP4 DUP3 MSTORE PUSH1 0x20 DUP3 ADD SWAP1 POP PUSH1 0x40 DUP5 MUL DUP4 ADD DUP6 DUP2 GT ISZERO PUSH2 0x13D8 JUMPI PUSH2 0x13D7 PUSH2 0x125B JUMP JUMPDEST JUMPDEST DUP4 JUMPDEST DUP2 DUP2 LT ISZERO PUSH2 0x1401 JUMPI DUP1 PUSH2 0x13ED DUP9 DUP3 PUSH2 0x1356 JUMP JUMPDEST DUP5 MSTORE PUSH1 0x20 DUP5 ADD SWAP4 POP POP PUSH1 0x40 DUP2 ADD SWAP1 POP PUSH2 0x13DA JUMP JUMPDEST POP POP POP SWAP4 SWAP3 POP POP POP JUMP JUMPDEST PUSH0 DUP3 PUSH1 0x1F DUP4 ADD SLT PUSH2 0x141F JUMPI PUSH2 0x141E PUSH2 0x122C JUMP JUMPDEST JUMPDEST DUP2 MLOAD PUSH2 0x142F DUP5 DUP3 PUSH1 0x20 DUP7 ADD PUSH2 0x13A3 JUMP JUMPDEST SWAP2 POP POP SWAP3 SWAP2 POP POP JUMP JUMPDEST PUSH0 PUSH8 0xFFFFFFFFFFFFFFFF DUP3 GT ISZERO PUSH2 0x1452 JUMPI PUSH2 0x1451 PUSH2 0x11B0 JUMP JUMPDEST JUMPDEST PUSH1 0x20 DUP3 MUL SWAP1 POP PUSH1 0x20 DUP2 ADD SWAP1 POP SWAP2 SWAP1 POP JUMP JUMPDEST PUSH2 0x146C DUP2 PUSH2 0xDA5 JUMP JUMPDEST DUP2 EQ PUSH2 0x1476 JUMPI PUSH0 DUP1 REVERT JUMPDEST POP JUMP JUMPDEST PUSH0 DUP2 MLOAD SWAP1 POP PUSH2 0x1487 DUP2 PUSH2 0x1463 JUMP JUMPDEST SWAP3 SWAP2 POP POP JUMP JUMPDEST PUSH0 PUSH2 0x149F PUSH2 0x149A DUP5 PUSH2 0x1438 JUMP JUMPDEST PUSH2 0x120E JUMP JUMPDEST SWAP1 POP DUP1 DUP4 DUP3 MSTORE PUSH1 0x20 DUP3 ADD SWAP1 POP PUSH1 0x20 DUP5 MUL DUP4 ADD DUP6 DUP2 GT ISZERO PUSH2 0x14C2 JUMPI PUSH2 0x14C1 PUSH2 0x125B JUMP JUMPDEST JUMPDEST DUP4 JUMPDEST DUP2 DUP2 LT ISZERO PUSH2 0x14EB JUMPI DUP1 PUSH2 0x14D7 DUP9 DUP3 PUSH2 0x1479 JUMP JUMPDEST DUP5 MSTORE PUSH1 0x20 DUP5 ADD SWAP4 POP POP PUSH1 0x20 DUP2 ADD SWAP1 POP PUSH2 0x14C4 JUMP JUMPDEST POP POP POP SWAP4 SWAP3 POP POP POP JUMP JUMPDEST PUSH0 DUP3 PUSH1 0x1F DUP4 ADD SLT PUSH2 0x1509 JUMPI PUSH2 0x1508 PUSH2 0x122C JUMP JUMPDEST JUMPDEST DUP2 MLOAD PUSH2 0x1519 DUP5 DUP3 PUSH1 0x20 DUP7 ADD PUSH2 0x148D JUMP JUMPDEST SWAP2 POP POP SWAP3 SWAP2 POP POP JUMP JUMPDEST PUSH0 PUSH1 0x60 DUP3 DUP5 SUB SLT ISZERO PUSH2 0x1537 JUMPI PUSH2 0x1536 PUSH2 0x11AC JUMP JUMPDEST JUMPDEST PUSH2 0x1541 PUSH1 0x60 PUSH2 0x120E JUMP JUMPDEST SWAP1 POP PUSH0 DUP3 ADD MLOAD PUSH8 0xFFFFFFFFFFFFFFFF DUP2 GT ISZERO PUSH2 0x1560 JUMPI PUSH2 0x155F PUSH2 0x1228 JUMP JUMPDEST JUMPDEST PUSH2 0x156C DUP5 DUP3 DUP6 ADD PUSH2 0x12D4 JUMP JUMPDEST PUSH0 DUP4 ADD MSTORE POP PUSH1 0x20 DUP3 ADD MLOAD PUSH8 0xFFFFFFFFFFFFFFFF DUP2 GT ISZERO PUSH2 0x158F JUMPI PUSH2 0x158E PUSH2 0x1228 JUMP JUMPDEST JUMPDEST PUSH2 0x159B DUP5 DUP3 DUP6 ADD PUSH2 0x140B JUMP JUMPDEST PUSH1 0x20 DUP4 ADD MSTORE POP PUSH1 0x40 DUP3 ADD MLOAD PUSH8 0xFFFFFFFFFFFFFFFF DUP2 GT ISZERO PUSH2 0x15BF JUMPI PUSH2 0x15BE PUSH2 0x1228 JUMP JUMPDEST JUMPDEST PUSH2 0x15CB DUP5 DUP3 DUP6 ADD PUSH2 0x14F5 JUMP JUMPDEST PUSH1 0x40 DUP4 ADD MSTORE POP SWAP3 SWAP2 POP POP JUMP JUMPDEST PUSH0 PUSH2 0x15E9 PUSH2 0x15E4 DUP5 PUSH2 0x1230 JUMP JUMPDEST PUSH2 0x120E JUMP JUMPDEST SWAP1 POP DUP1 DUP4 DUP3 MSTORE PUSH1 0x20 DUP3 ADD SWAP1 POP PUSH1 0x20 DUP5 MUL DUP4 ADD DUP6 DUP2 GT ISZERO PUSH2 0x160C JUMPI PUSH2 0x160B PUSH2 0x125B JUMP JUMPDEST JUMPDEST DUP4 JUMPDEST DUP2 DUP2 LT ISZERO PUSH2 0x1653 JUMPI DUP1 MLOAD PUSH8 0xFFFFFFFFFFFFFFFF DUP2 GT ISZERO PUSH2 0x1631 JUMPI PUSH2 0x1630 PUSH2 0x122C JUMP JUMPDEST JUMPDEST DUP1 DUP7 ADD PUSH2 0x163E DUP10 DUP3 PUSH2 0x1522 JUMP JUMPDEST DUP6 MSTORE PUSH1 0x20 DUP6 ADD SWAP5 POP POP POP PUSH1 0x20 DUP2 ADD SWAP1 POP PUSH2 0x160E JUMP JUMPDEST POP POP POP SWAP4 SWAP3 POP POP POP JUMP JUMPDEST PUSH0 DUP3 PUSH1 0x1F DUP4 ADD SLT PUSH2 0x1671 JUMPI PUSH2 0x1670 PUSH2 0x122C JUMP JUMPDEST JUMPDEST DUP2 MLOAD PUSH2 0x1681 DUP5 DUP3 PUSH1 0x20 DUP7 ADD PUSH2 0x15D7 JUMP JUMPDEST SWAP2 POP POP SWAP3 SWAP2 POP POP JUMP JUMPDEST PUSH0 PUSH8 0xFFFFFFFFFFFFFFFF DUP3 GT ISZERO PUSH2 0x16A4 JUMPI PUSH2 0x16A3 PUSH2 0x11B0 JUMP JUMPDEST JUMPDEST PUSH1 0x20 DUP3 MUL SWAP1 POP PUSH1 0x20 DUP2 ADD SWAP1 POP SWAP2 SWAP1 POP JUMP JUMPDEST PUSH0 PUSH8 0xFFFFFFFFFFFFFFFF DUP3 GT ISZERO PUSH2 0x16CF JUMPI PUSH2 0x16CE PUSH2 0x11B0 JUMP JUMPDEST JUMPDEST PUSH1 0x20 DUP3 MUL SWAP1 POP PUSH1 0x20 DUP2 ADD SWAP1 POP SWAP2 SWAP1 POP JUMP JUMPDEST PUSH0 PUSH2 0x16F2 PUSH2 0x16ED DUP5 PUSH2 0x16B5 JUMP JUMPDEST PUSH2 0x120E JUMP JUMPDEST SWAP1 POP DUP1 DUP4 DUP3 MSTORE PUSH1 0x20 DUP3 ADD SWAP1 POP PUSH1 0x20 DUP5 MUL DUP4 ADD DUP6 DUP2 GT ISZERO PUSH2 0x1715 JUMPI PUSH2 0x1714 PUSH2 0x125B JUMP JUMPDEST JUMPDEST DUP4 JUMPDEST DUP2 DUP2 LT ISZERO PUSH2 0x175C JUMPI DUP1 MLOAD PUSH8 0xFFFFFFFFFFFFFFFF DUP2 GT ISZERO PUSH2 0x173A JUMPI PUSH2 0x1739 PUSH2 0x122C JUMP JUMPDEST JUMPDEST DUP1 DUP7 ADD PUSH2 0x1747 DUP10 DUP3 PUSH2 0x12D4 JUMP JUMPDEST DUP6 MSTORE PUSH1 0x20 DUP6 ADD SWAP5 POP POP POP PUSH1 0x20 DUP2 ADD SWAP1 POP PUSH2 0x1717 JUMP JUMPDEST POP POP POP SWAP4 SWAP3 POP POP POP JUMP JUMPDEST PUSH0 DUP3 PUSH1 0x1F DUP4 ADD SLT PUSH2 0x177A JUMPI PUSH2 0x1779 PUSH2 0x122C JUMP JUMPDEST JUMPDEST DUP2 MLOAD PUSH2 0x178A DUP5 DUP3 PUSH1 0x20 DUP7 ADD PUSH2 0x16E0 JUMP JUMPDEST SWAP2 POP POP SWAP3 SWAP2 POP POP JUMP JUMPDEST PUSH0 PUSH1 0x40 DUP3 DUP5 SUB SLT ISZERO PUSH2 0x17A8 JUMPI PUSH2 0x17A7 PUSH2 0x11AC JUMP JUMPDEST JUMPDEST PUSH2 0x17B2 PUSH1 0x40 PUSH2 0x120E JUMP JUMPDEST SWAP1 POP PUSH0 DUP3 ADD MLOAD PUSH8 0xFFFFFFFFFFFFFFFF DUP2 GT ISZERO PUSH2 0x17D1 JUMPI PUSH2 0x17D0 PUSH2 0x1228 JUMP JUMPDEST JUMPDEST PUSH2 0x17DD DUP5 DUP3 DUP6 ADD PUSH2 0x12D4 JUMP JUMPDEST PUSH0 DUP4 ADD MSTORE POP PUSH1 0x20 DUP3 ADD MLOAD PUSH8 0xFFFFFFFFFFFFFFFF DUP2 GT ISZERO PUSH2 0x1800 JUMPI PUSH2 0x17FF PUSH2 0x1228 JUMP JUMPDEST JUMPDEST PUSH2 0x180C DUP5 DUP3 DUP6 ADD PUSH2 0x1766 JUMP JUMPDEST PUSH1 0x20 DUP4 ADD MSTORE POP SWAP3 SWAP2 POP POP JUMP JUMPDEST PUSH0 PUSH2 0x182A PUSH2 0x1825 DUP5 PUSH2 0x168A JUMP JUMPDEST PUSH2 0x120E JUMP JUMPDEST SWAP1 POP DUP1 DUP4 DUP3 MSTORE PUSH1 0x20 DUP3 ADD SWAP1 POP PUSH1 0x20 DUP5 MUL DUP4 ADD DUP6 DUP2 GT ISZERO PUSH2 0x184D JUMPI PUSH2 0x184C PUSH2 0x125B JUMP JUMPDEST JUMPDEST DUP4 JUMPDEST DUP2 DUP2 LT ISZERO PUSH2 0x1894 JUMPI DUP1 MLOAD PUSH8 0xFFFFFFFFFFFFFFFF DUP2 GT ISZERO PUSH2 0x1872 JUMPI PUSH2 0x1871 PUSH2 0x122C JUMP JUMPDEST JUMPDEST DUP1 DUP7 ADD PUSH2 0x187F DUP10 DUP3 PUSH2 0x1793 JUMP JUMPDEST DUP6 MSTORE PUSH1 0x20 DUP6 ADD SWAP5 POP POP POP PUSH1 0x20 DUP2 ADD SWAP1 POP PUSH2 0x184F JUMP JUMPDEST POP POP POP SWAP4 SWAP3 POP POP POP JUMP JUMPDEST PUSH0 DUP3 PUSH1 0x1F DUP4 ADD SLT PUSH2 0x18B2 JUMPI PUSH2 0x18B1 PUSH2 0x122C JUMP JUMPDEST JUMPDEST DUP2 MLOAD PUSH2 0x18C2 DUP5 DUP3 PUSH1 0x20 DUP7 ADD PUSH2 0x1818 JUMP JUMPDEST SWAP2 POP POP SWAP3 SWAP2 POP POP JUMP JUMPDEST PUSH0 DUP2 ISZERO ISZERO SWAP1 POP SWAP2 SWAP1 POP JUMP JUMPDEST PUSH2 0x18DF DUP2 PUSH2 0x18CB JUMP JUMPDEST DUP2 EQ PUSH2 0x18E9 JUMPI PUSH0 DUP1 REVERT JUMPDEST POP JUMP JUMPDEST PUSH0 DUP2 MLOAD SWAP1 POP PUSH2 0x18FA DUP2 PUSH2 0x18D6 JUMP JUMPDEST SWAP3 SWAP2 POP POP JUMP JUMPDEST PUSH0 PUSH1 0x60 DUP3 DUP5 SUB SLT ISZERO PUSH2 0x1915 JUMPI PUSH2 0x1914 PUSH2 0x11AC JUMP JUMPDEST JUMPDEST PUSH2 0x191F PUSH1 0x60 PUSH2 0x120E JUMP JUMPDEST SWAP1 POP PUSH0 DUP3 ADD MLOAD PUSH8 0xFFFFFFFFFFFFFFFF DUP2 GT ISZERO PUSH2 0x193E JUMPI PUSH2 0x193D PUSH2 0x1228 JUMP JUMPDEST JUMPDEST PUSH2 0x194A DUP5 DUP3 DUP6 ADD PUSH2 0x165D JUMP JUMPDEST PUSH0 DUP4 ADD MSTORE POP PUSH1 0x20 DUP3 ADD MLOAD PUSH8 0xFFFFFFFFFFFFFFFF DUP2 GT ISZERO PUSH2 0x196D JUMPI PUSH2 0x196C PUSH2 0x1228 JUMP JUMPDEST JUMPDEST PUSH2 0x1979 DUP5 DUP3 DUP6 ADD PUSH2 0x189E JUMP JUMPDEST PUSH1 0x20 DUP4 ADD MSTORE POP PUSH1 0x40 PUSH2 0x198D DUP5 DUP3 DUP6 ADD PUSH2 0x18EC JUMP JUMPDEST PUSH1 0x40 DUP4 ADD MSTORE POP SWAP3 SWAP2 POP POP JUMP JUMPDEST PUSH0 PUSH1 0x20 DUP3 DUP5 SUB SLT ISZERO PUSH2 0x19AE JUMPI PUSH2 0x19AD PUSH2 0x11A4 JUMP JUMPDEST JUMPDEST PUSH0 DUP3 ADD MLOAD PUSH8 0xFFFFFFFFFFFFFFFF DUP2 GT ISZERO PUSH2 0x19CB JUMPI PUSH2 0x19CA PUSH2 0x11A8 JUMP JUMPDEST JUMPDEST PUSH2 0x19D7 DUP5 DUP3 DUP6 ADD PUSH2 0x1900 JUMP JUMPDEST SWAP2 POP POP SWAP3 SWAP2 POP POP JUMP JUMPDEST PUSH1 0x2 DUP2 LT PUSH2 0x19F1 JUMPI PUSH2 0x19F0 PUSH2 0xBB4 JUMP JUMPDEST JUMPDEST POP JUMP JUMPDEST PUSH0 DUP2 SWAP1 POP PUSH2 0x1A01 DUP3 PUSH2 0x19E0 JUMP JUMPDEST SWAP2 SWAP1 POP JUMP JUMPDEST PUSH0 PUSH2 0x1A10 DUP3 PUSH2 0x19F4 JUMP JUMPDEST SWAP1 POP SWAP2 SWAP1 POP JUMP JUMPDEST PUSH2 0x1A20 DUP2 PUSH2 0x1A06 JUMP JUMPDEST DUP3 MSTORE POP POP JUMP JUMPDEST PUSH0 PUSH1 0xC0 DUP4 ADD PUSH0 DUP4 ADD MLOAD PUSH2 0x1A3B PUSH0 DUP7 ADD DUP3 PUSH2 0x1A17 JUMP JUMPDEST POP PUSH1 0x20 DUP4 ADD MLOAD DUP5 DUP3 SUB PUSH1 0x20 DUP7 ADD MSTORE PUSH2 0x1A53 DUP3 DUP3 PUSH2 0xC37 JUMP JUMPDEST SWAP2 POP POP PUSH1 0x40 DUP4 ADD MLOAD DUP5 DUP3 SUB PUSH1 0x40 DUP7 ADD MSTORE PUSH2 0x1A6D DUP3 DUP3 PUSH2 0xC37 JUMP JUMPDEST SWAP2 POP POP PUSH1 0x60 DUP4 ADD MLOAD PUSH2 0x1A82 PUSH1 0x60 DUP7 ADD DUP3 PUSH2 0xDB4 JUMP JUMPDEST POP PUSH1 0x80 DUP4 ADD MLOAD DUP5 DUP3 SUB PUSH1 0x80 DUP7 ADD MSTORE PUSH2 0x1A9A DUP3 DUP3 PUSH2 0xFA0 JUMP JUMPDEST SWAP2 POP POP PUSH1 0xA0 DUP4 ADD MLOAD PUSH2 0x1AAF PUSH1 0xA0 DUP7 ADD DUP3 PUSH2 0xDB4 JUMP JUMPDEST POP DUP1 SWAP2 POP POP SWAP3 SWAP2 POP POP JUMP JUMPDEST PUSH0 PUSH1 0x20 DUP3 ADD SWAP1 POP DUP2 DUP2 SUB PUSH0 DUP4 ADD MSTORE PUSH2 0x1AD2 DUP2 DUP5 PUSH2 0x1A26 JUMP JUMPDEST SWAP1 POP SWAP3 SWAP2 POP POP JUMP JUMPDEST PUSH0 PUSH1 0x20 DUP3 DUP5 SUB SLT ISZERO PUSH2 0x1AEF JUMPI PUSH2 0x1AEE PUSH2 0x11AC JUMP JUMPDEST JUMPDEST PUSH2 0x1AF9 PUSH1 0x20 PUSH2 0x120E JUMP JUMPDEST SWAP1 POP PUSH0 DUP3 ADD MLOAD PUSH8 0xFFFFFFFFFFFFFFFF DUP2 GT ISZERO PUSH2 0x1B18 JUMPI PUSH2 0x1B17 PUSH2 0x1228 JUMP JUMPDEST JUMPDEST PUSH2 0x1B24 DUP5 DUP3 DUP6 ADD PUSH2 0x12D4 JUMP JUMPDEST PUSH0 DUP4 ADD MSTORE POP SWAP3 SWAP2 POP POP JUMP JUMPDEST PUSH0 PUSH1 0x20 DUP3 DUP5 SUB SLT ISZERO PUSH2 0x1B44 JUMPI PUSH2 0x1B43 PUSH2 0x11A4 JUMP JUMPDEST JUMPDEST PUSH0 DUP3 ADD MLOAD PUSH8 0xFFFFFFFFFFFFFFFF DUP2 GT ISZERO PUSH2 0x1B61 JUMPI PUSH2 0x1B60 PUSH2 0x11A8 JUMP JUMPDEST JUMPDEST PUSH2 0x1B6D DUP5 DUP3 DUP6 ADD PUSH2 0x1ADA JUMP JUMPDEST SWAP2 POP POP SWAP3 SWAP2 POP POP JUMP JUMPDEST PUSH0 DUP2 SWAP1 POP DUP2 PUSH0 MSTORE PUSH1 0x20 PUSH0 KECCAK256 SWAP1 POP SWAP2 SWAP1 POP JUMP JUMPDEST PUSH0 PUSH1 0x20 PUSH1 0x1F DUP4 ADD DIV SWAP1 POP SWAP2 SWAP1 POP JUMP JUMPDEST PUSH0 DUP3 DUP3 SHL SWAP1 POP SWAP3 SWAP2 POP POP JUMP JUMPDEST PUSH0 PUSH1 0x8 DUP4 MUL PUSH2 0x1BD2 PUSH32 0xFFFFFFFFFFFFFFFFFFFFFFFFFFFFFFFFFFFFFFFFFFFFFFFFFFFFFFFFFFFFFFFF DUP3 PUSH2 0x1B97 JUMP JUMPDEST PUSH2 0x1BDC DUP7 DUP4 PUSH2 0x1B97 JUMP JUMPDEST SWAP6 POP DUP1 NOT DUP5 AND SWAP4 POP DUP1 DUP7 AND DUP5 OR SWAP3 POP POP POP SWAP4 SWAP3 POP POP POP JUMP JUMPDEST PUSH0 DUP2 SWAP1 POP SWAP2 SWAP1 POP JUMP JUMPDEST PUSH0 DUP2 SWAP1 POP SWAP2 SWAP1 POP JUMP JUMPDEST PUSH0 PUSH2 0x1C20 PUSH2 0x1C1B PUSH2 0x1C16 DUP5 PUSH2 0x1BF4 JUMP JUMPDEST PUSH2 0x1BFD JUMP JUMPDEST PUSH2 0x1BF4 JUMP JUMPDEST SWAP1 POP SWAP2 SWAP1 POP JUMP JUMPDEST PUSH0 DUP2 SWAP1 POP SWAP2 SWAP1 POP JUMP JUMPDEST PUSH2 0x1C39 DUP4 PUSH2 0x1C06 JUMP JUMPDEST PUSH2 0x1C4D PUSH2 0x1C45 DUP3 PUSH2 0x1C27 JUMP JUMPDEST DUP5 DUP5 SLOAD PUSH2 0x1BA3 JUMP JUMPDEST DUP3 SSTORE POP POP POP POP JUMP JUMPDEST PUSH0 SWAP1 JUMP JUMPDEST PUSH2 0x1C61 PUSH2 0x1C55 JUMP JUMPDEST PUSH2 0x1C6C DUP2 DUP5 DUP5 PUSH2 0x1C30 JUMP JUMPDEST POP POP POP JUMP JUMPDEST JUMPDEST DUP2 DUP2 LT ISZERO PUSH2 0x1C8F JUMPI PUSH2 0x1C84 PUSH0 DUP3 PUSH2 0x1C59 JUMP JUMPDEST PUSH1 0x1 DUP2 ADD SWAP1 POP PUSH2 0x1C72 JUMP JUMPDEST POP POP JUMP JUMPDEST PUSH1 0x1F DUP3 GT ISZERO PUSH2 0x1CD4 JUMPI PUSH2 0x1CA5 DUP2 PUSH2 0x1B76 JUMP JUMPDEST PUSH2 0x1CAE DUP5 PUSH2 0x1B88 JUMP JUMPDEST DUP2 ADD PUSH1 0x20 DUP6 LT ISZERO PUSH2 0x1CBD JUMPI DUP2 SWAP1 POP JUMPDEST PUSH2 0x1CD1 PUSH2 0x1CC9 DUP6 PUSH2 0x1B88 JUMP JUMPDEST DUP4 ADD DUP3 PUSH2 0x1C71 JUMP JUMPDEST POP POP JUMPDEST POP POP POP JUMP JUMPDEST PUSH0 DUP3 DUP3 SHR SWAP1 POP SWAP3 SWAP2 POP POP JUMP JUMPDEST PUSH0 PUSH2 0x1CF4 PUSH0 NOT DUP5 PUSH1 0x8 MUL PUSH2 0x1CD9 JUMP JUMPDEST NOT DUP1 DUP4 AND SWAP2 POP POP SWAP3 SWAP2 POP POP JUMP JUMPDEST PUSH0 PUSH2 0x1D0C DUP4 DUP4 PUSH2 0x1CE5 JUMP JUMPDEST SWAP2 POP DUP3 PUSH1 0x2 MUL DUP3 OR SWAP1 POP SWAP3 SWAP2 POP POP JUMP JUMPDEST PUSH2 0x1D25 DUP3 PUSH2 0xA85 JUMP JUMPDEST PUSH8 0xFFFFFFFFFFFFFFFF DUP2 GT ISZERO PUSH2 0x1D3E JUMPI PUSH2 0x1D3D PUSH2 0x11B0 JUMP JUMPDEST JUMPDEST PUSH2 0x1D48 DUP3 SLOAD PUSH2 0xB84 JUMP JUMPDEST PUSH2 0x1D53 DUP3 DUP3 DUP6 PUSH2 0x1C93 JUMP JUMPDEST PUSH0 PUSH1 0x20 SWAP1 POP PUSH1 0x1F DUP4 GT PUSH1 0x1 DUP2 EQ PUSH2 0x1D84 JUMPI PUSH0 DUP5 ISZERO PUSH2 0x1D72 JUMPI DUP3 DUP8 ADD MLOAD SWAP1 POP JUMPDEST PUSH2 0x1D7C DUP6 DUP3 PUSH2 0x1D01 JUMP JUMPDEST DUP7 SSTORE POP PUSH2 0x1DE3 JUMP JUMPDEST PUSH1 0x1F NOT DUP5 AND PUSH2 0x1D92 DUP7 PUSH2 0x1B76 JUMP JUMPDEST PUSH0 JUMPDEST DUP3 DUP2 LT ISZERO PUSH2 0x1DB9 JUMPI DUP5 DUP10 ADD MLOAD DUP3 SSTORE PUSH1 0x1 DUP3 ADD SWAP2 POP PUSH1 0x20 DUP6 ADD SWAP5 POP PUSH1 0x20 DUP2 ADD SWAP1 POP PUSH2 0x1D94 JUMP JUMPDEST DUP7 DUP4 LT ISZERO PUSH2 0x1DD6 JUMPI DUP5 DUP10 ADD MLOAD PUSH2 0x1DD2 PUSH1 0x1F DUP10 AND DUP3 PUSH2 0x1CE5 JUMP JUMPDEST DUP4 SSTORE POP JUMPDEST PUSH1 0x1 PUSH1 0x2 DUP9 MUL ADD DUP9 SSTORE POP POP POP JUMPDEST POP POP POP POP POP POP JUMP JUMPDEST PUSH32 0x4E487B7100000000000000000000000000000000000000000000000000000000 PUSH0 MSTORE PUSH1 0x32 PUSH1 0x4 MSTORE PUSH1 0x24 PUSH0 REVERT INVALID PUSH14 0x6574612D6C6C616D612F4D657461 0x2D 0x4C PUSH13 0x616D612D332D38422D496E7374 PUSH19 0x756374416E642049207468696E6B20746F206D PUSH26 0x73656C662C2057686174206120776F6E64657266756C20776F72 PUSH13 0x640A3C73746172743E49207365 PUSH6 0x207472656573 KECCAK256 PUSH16 0x6620677265656E2C2072656420726F73 PUSH6 0x7320746F6F2C KECCAK256 BLOBHASH KECCAK256 PUSH20 0x6565207468656D20626C6F6F6D20666F72206D65 KECCAK256 PUSH2 0x6E64 KECCAK256 PUSH26 0x6F750A3C73746172743EA2646970667358221220E57778531137 PUSH13 0xA8848F28B0C4A860B43582A38C NUMBER POP CALLDATASIZE 0xDE 0x28 PREVRANDAO PUSH10 0x2A7EF27E7864736F6C63 NUMBER STOP ADDMOD NOT STOP CALLER "
				},
				"gasEstimates": {
					"creation": {
						"codeDepositCost": "1584400",
						"executionCost": "1657",
						"totalCost": "1586057"
					},
					"external": {
						"result()": "infinite",
						"resultNumber()": "infinite",
						"resultString()": "infinite",
						"run()": "infinite",
						"runLlm()": "infinite",
						"runTee()": "infinite",
						"runVanilla()": "infinite"
					},
					"internal": {
						"createModelInput()": "infinite",
						"createStopSequence()": "infinite",
						"processModelOutput(struct ModelOutput memory)": "infinite"
					}
				},
				"methodIdentifiers": {
					"result()": "65372147",
					"resultNumber()": "7a998900",
					"resultString()": "454e33e3",
					"run()": "c0406226",
					"runLlm()": "7b89dc9f",
					"runTee()": "a7d97dc2",
					"runVanilla()": "5a61dd9e"
				}
			},
			"storageLayout": {
				"storage": [
					{
						"astId": 4,
						"contract": "contracts/test.sol:Test",
						"label": "resultString",
						"offset": 0,
						"slot": "0",
						"type": "t_string_storage"
					},
					{
						"astId": 7,
						"contract": "contracts/test.sol:Test",
						"label": "resultNumber",
						"offset": 0,
						"slot": "1",
						"type": "t_struct(Number)373_storage"
					}
				],
				"types": {
					"t_int128": {
						"encoding": "inplace",
						"label": "int128",
						"numberOfBytes": "16"
					},
					"t_string_storage": {
						"encoding": "bytes",
						"label": "string",
						"numberOfBytes": "32"
					},
					"t_struct(Number)373_storage": {
						"encoding": "inplace",
						"label": "struct TensorLib.Number",
						"members": [
							{
								"astId": 370,
								"contract": "contracts/test.sol:Test",
								"label": "value",
								"offset": 0,
								"slot": "0",
								"type": "t_int128"
							},
							{
								"astId": 372,
								"contract": "contracts/test.sol:Test",
								"label": "decimals",
								"offset": 16,
								"slot": "0",
								"type": "t_int128"
							}
						],
						"numberOfBytes": "32"
					}
				}
			},
			"userdoc": {
				"kind": "user",
				"methods": {},
				"version": 1
			}
		}
	}
}